:100000000C943E140C9468140C9468140C946814AA
:100010000C9468140C9468140C9468140C94681470
:100020000C9468140C9468140C9468140C94681460
:100030000C9468140C94354A0C9468140C9468144D
:100040000C9468140C94E6440C940F530C946814AC
:100050000C94CC300C94C2300C9468140C9468143A
:100060000C9468140C9468140C9468140C94681420
:100070000C9468140C9468140C9468140C94681410
:100080000C946A2A0C9468140C946814BCD7BFD7DB
:10009000B2D7B6D7D6D7D6D7C3D7C7D7CDD7D1D76C
:1000A00005D90AD90FD919D947D947D923D92BD975
:1000B00033D93DD964DD22DC55DCA0DD55DC55DCCF
:1000C00055DC55DC55DC55DC55DC55DC55DC55DCA8
:1000D00055DC55DC55DC55DC55DC55DC55DC55DC98
:1000E00055DC55DC55DC55DC55DC55DC55DC55DC88
:1000F0009ADD55DC55DC55DC55DC55DC55DC55DC32
:1001000055DC73DD55DC55DC55DC55DC55DC55DC48
:1001100055DC55DC55DC55DCB7DD52DC4E414E4933
:100120004E495459494E46CDCCCC3D0AD7233C17B5
:10013000B7D13877CC2B329595E6241FB14F0A0002
:100140000020410000C84200401C4620BCBE4CCAF2
:100150001B0E5AAEC59D7400407A10F35A00A0726F
:100160004E18090010A5D4E80000E87648170000F2
:10017000E40B54020000CA9A3B000000E1F50500C0
:100180000080969800000040420F000000A0860109
:10019000000000102700000000E8030000000064D9
:1001A00000000000000A0000000000010000000044
:1001B000002C76D888DC674F0823DFC1DFAE59E119
:1001C000B1B796E5E3E453C63AE651997696E8E688
:1001D000C28426EB898C9B62ED407C6FFCEFBC9C5B
:1001E0009F40F2BAA56FA5F490055A2AF75C936B6D
:1001F0006CF9676DC11BFCE0E40D47FEF520E6B528
:1002000000D0ED902E0300943577050080841E0801
:100210000000204E0A000000C80C333333330F981F
:100220006E12831141EF8D2114893BE65516CFFEE6
:10023000E6DB18D1844B381BF77C1D901DA4BBE472
:1002400024203284725E228100C9F124ECA1E53DB4
:1002500027434F4D4D554E49434154494F4E00445D
:10026000525952554E004552524F525300494E4634
:100270004F004543484F00536C6565702E2E2E008D
:100280005A2050726F626520506173742042656419
:100290000A005A2050726F626520506173742042C8
:1002A0006564004D65736820706F696E74206F75AA
:1002B00074206F662072616E67650A00436C696323
:1002C0006B20746F20526573756D652E2E2E004E57
:1002D0006F204D6F76652E00456E642066696C65F3
:1002E000206C6973740A00426567696E2066696CE8
:1002F00065206C6973740A00286E6F2066696C65EE
:10030000290043757272656E742066696C653A20C7
:10031000005344207072696E74696E67206279744C
:100320006520004E6F74205344207072696E7469AA
:100330006E670A0044656C6574696F6E206661695A
:100340006C65642C2046696C653A200046696C65D2
:100350002064656C657465643A00256979202569B7
:1003600064202569682025696D2025697300507215
:10037000696E742074696D653A2000496E76616C0F
:1003800069642050696E204D6F64650A006F66666F
:100390000044454255473A004D313132205368758B
:1003A00074646F776E004D313133205300456E64B5
:1003B00065722D33204F46462E004348414D42453D
:1003C000525F54454D5045524154555245004241AB
:1003D00042595354455050494E47004152435300EF
:1003E0004D4F54494F4E5F4D4F444553005448457F
:1003F000524D414C5F50524F54454354494F4E006B
:100400004C4F4E475F46494C454E414D4500415586
:10041000544F5245504F52545F53445F53544154CC
:100420005553005344434152440050524F4D505491
:100430005F535550504F525400454D455247454E1D
:1004400043595F50415253455200434153455F4C1D
:10045000494748545F4252494748544E4553530018
:10046000544F47474C455F4C494748545300534FFE
:100470004654574152455F504F57455200425549E7
:100480004C445F50455243454E54004C4556454CF4
:10049000494E475F44415441005A5F50524F4245D4
:1004A0000052554E4F5554004155544F4C455645FA
:1004B0004C005052494E545F4A4F420050524F47F1
:1004C00052455353004155544F5245504F52545F7B
:1004D00054454D5000564F4C554D455452494300DC
:1004E00042494E4152595F46494C455F5452414E34
:1004F000534645520053455249414C5F584F4E5F59
:10050000584F4646004649524D574152455F4E416D
:100510004D453A4D61726C696E20322E302E362078
:100520002841756720313020323032302031353A61
:1005300032353A33302920534F555243455F434FAC
:1005400044455F55524C3A68747470733A2F2F6764
:1005500069746875622E636F6D2F4D61726C696E80
:100560004669726D776172652F4D61726C696E209C
:1005700050524F544F434F4C5F56455253494F4E84
:100580003A312E30204D414348494E455F54595031
:10059000453A456E6465722D332045585452554492
:1005A00045525F434F554E543A3120555549443AD0
:1005B00063656465326132662D343161322D3437C2
:1005C00034382D396231322D633535633632663336
:1005D000363766660A002F2F20004D313435205300
:1005E0003C696E6465783E206F7574206F6620727A
:1005F000616E67652028302D31290A0041636365EB
:100600006C65726174696F6E3A2050003F4A206FCA
:100610007574206F662072616E67652028302E30F9
:100620003120746F20302E33290A0046523A0020C0
:10063000466C6F773A200050726F7465637465641E
:100640002050696E0A0020536572766F2000206486
:100650003A0020693A0020703A00496E76616C6970
:10066000642065787472756465720A006469730049
:1006700043290A0061626C656420286D696E2074EC
:10068000656D702000436F6C6420657874727564CA
:1006900065732061726520004D34323120696E63CC
:1006A0006F727265637420706172616D65746572DA
:1006B0002075736167650A004F6666736574732001
:1006C0004170706C696564004572723A20546F6FB6
:1006D000206661722100546F6F206661722066721D
:1006E0006F6D207265666572656E636520706F69F7
:1006F0006E740A00454550524F4D204F4B0A00443E
:100700006F6E65207072696E74696E672066696CC1
:10071000650A004D3737004D33310072026D0266B5
:10072000025F0251024572726F72207772697469BA
:100730006E6720746F20454550524F4D210A0021AD
:1007400021204B494C4C20636175736564206279AC
:1007500020746F6F206D75636820696E61637469C2
:1007600076652074696D65202D2063757272656EE3
:100770007420636F6D6D616E643A20004D343130CA
:10078000004D313132004D313038004E6F2043681A
:1007900065636B73756D2077697468206C696E652D
:1007A000206E756D6265722C204C617374204C69EB
:1007B0006E653A2000636865636B73756D206D69C3
:1007C000736D617463682C204C617374204C696E86
:1007D000653A20004C696E65204E756D6265722029
:1007E0006973206E6F74204C617374204C696E6560
:1007F000204E756D6265722B312C204C6173742014
:100800004C696E653A20004D3131300053442072FE
:10081000656164206572726F720A00627573793A5D
:100820002070617573656420666F7220696E7075E3
:10083000740A00627573793A20706175736564207B
:10084000666F7220757365720A00627573793A205B
:1008500070726F63657373696E670A004D656469D2
:100860006120496E736572746564000F150E12166F
:10087000170E1303021A1401000E0DFF180C040CBE
:1008800019000120746F6F206C6F6E67206578749B
:10089000727573696F6E2070726576656E746564CB
:1008A0000A0020636F6C6420657874727573696FD9
:1008B0006E2070726576656E7465640A0020453A34
:1008C00000205A3A0020593A00DB0FC93F45BCDAF4
:1008D0003F8FB30240FCF0274056946140FE4B9B93
:1008E0004084A5D840E0231841346A5641E859971E
:1008F0004164DBD5416E271742B4B75542CE1A97F3
:1009000042C8AED542B5885A43D40684BFA65FA775
:10091000BF7443E0BF10B11AC01C2C58C0E8F69752
:10092000C0B849D6C04E4E17C124D355C1802497B4
:10093000C1A0B5D5C1121A17C244AE55C2781797D7
:10094000C26CACD5C267885AC348656174696E676A
:10095000204661696C65640048656174696E672052
:100960006661696C656400202D20496E76616C6952
:1009700064206578747275646572206E756D626549
:100980007220210A00544845524D414C2052554E88
:100990004157415900546865726D616C2052756E03
:1009A00061776179004572723A204D415854454D46
:1009B00050004D415854454D502074726967676529
:1009C000726564004572723A204D494E54454D504F
:1009D000004D494E54454D502074726967676572E9
:1009E000656400202F002042403A0020403A002059
:1009F000436F756E7420583A00453100626564009B
:100A00002C2073797374656D2073746F70706564D6
:100A100021204865617465725F49443A200024F4DE
:100A2000D43050C38E20C2A24017828B7011127A2C
:100A3000910D816CD90AA861E108C7586607615118
:100A400043061E4B5D05C145A7041A411104093D2B
:100A50009803713931034036DB0265339102D4309B
:100A60005402802E1D02632CEE01752AC501B028A8
:100A7000A001102781018F2564012B244B01E02266
:100A80003401AC211F018D200D01801FFC00841E4C
:100A9000ED00971DDF00B81CD200E61BC600201B2E
:100AA000BC00641AB200B219A8000A19A0006A18A2
:100AB0009900D117910040178B00B51684003116AC
:100AC0007E00B31579003A157300C7146F005814EF
:100AD0006A00EE1366008813630025135E00C712D8
:100AE0005B006C12570015125400C11151007011B7
:100AF0004F0021114B00D61049008D1047004610C1
:100B0000440002104200C00F4000800F3E00420F20
:100B10003C00060F3B00CB0E3800930E37005C0EF6
:100B20003500270E3400F30D3200C10D3100900D59
:100B30003000600D2E00320D2D00050D2C00D90C5B
:100B40002B00AE0C2900850C29005C0C2700350C0D
:100B500027000E0C2600E80B2400C40B2400A00B79
:100B600023007D0B23005A0B2100390B2100180BA9
:100B70002000F80A1F00D90A1E00BB0A1E009D0AA9
:100B80001D00800A1D00630A1C00470A1B002C0A76
:100B90001B00110A1A00F7091A00DD091900C4091F
:100BA0001900AB091900920917007B0918006309A5
:100BB00017004C09160036091600200916000A090C
:100BC0001500F5081500E0081400CC081400B8085A
:100BD0001400A4081400900813007D0812006B088C
:100BE00013005808120046081200340811002308A8
:100BF00011001208110001081100F0071000E007B1
:100C00001000D0071000C0071000B0070F00A107A8
:100C1000100091070E0083070F0074070F0065078F
:100C20000E0057070E0049070E003B070D002E0768
:100C30000E0020070D0013070D0006070D00F90632
:100C40000C00ED060D00E0060C00D4060C00C806F2
:100C50000C00BC060C00B0060C00A4060B009906A4
:100C60000C008D060B0082060B0077060B006C064D
:100C70000B0061060A0057060B004C060A004206EC
:100C80000A0038060A002E060A0024060A001A0680
:100C90000A001006090007060A00FD050900F40510
:100CA0000900EB050900E2050900D9050900D00596
:100CB0000900C7050900BE050900B5050800AD0516
:100CC0000800A50509009C050800940508008C058E
:100CD0000800840508007C050800740508006C0500
:100CE0000700650508005D050700560508004E056C
:100CF00007004705070040050800380507003105D3
:100D000007002A050700230507001C050600160535
:100D100007000F0507000805060002050700FB0491
:100D20000600F5040700EE040600E8040600E204ED
:100D30000700DB040600D5040600CF040600C90442
:100D40000600C3040600BD040600B7040600B10493
:100D50000500AC040600A6040600A00405009B04E0
:100D6000060095040500900406008A040500850429
:100D70000500800406007A0405007504050070046F
:100D800005006B04050066040500610405005C04B1
:100D9000050057040500520405004D0405004804F1
:100DA0000500430405003E0404003A040500350430
:100DB0000500300404002C0405002704040023046B
:100DC00005001E0404001A040400160405001104A2
:100DD00004000D04040009040500040404000004D8
:100DE0000400FC030400F8030400F4030400F0030F
:100DF0000400EC030400E8030400E4030400E0033F
:100E00000400DC030400D8030400D4030400D0036E
:100E10000400CC030400C8030300C503030024F44A
:100E200004D9201BC40C5C0E9804C4095F0265073A
:100E30007101F405F900FB04B30048048700C10305
:100E400069005803550003034500BE023A008402BE
:100E5000310053022A002902250004022000E40187
:100E60001C00C8011900AF0117009801140084018B
:100E70001300710110006101100051010E004301C7
:100E80000D0036010B002B010B0020010B0015019A
:100E900009000C01090003010800FB000800F30031
:100EA0000800EB000700E4000600DE000600D800A2
:100EB0000600D2000600CC000500C7000500C200F5
:100EC0000500BD000400B9000400B5000400B10035
:100ED0000400AD000400A9000400A5000300A20066
:100EE00003009F0004009B0003009800030095008E
:100EF000020093000300900003008D0002008B00AD
:100F000003008800020086000200840003008100C4
:100F100002007F0002007D0002007B0002007900D9
:100F200002007700010076000200740002007200E7
:100F30000100710002006F0002006D0001006C00F2
:100F400002006A00010069000200670001006600FB
:100F50000100650001006400020062000100610000
:100F60000100600001005F0002005D0001005C0004
:100F700001005B0001005A00010059000100580007
:100F80000100570001005600010055000100540007
:100F90000100530000005300010052000100510005
:100FA0000100500001004F0001004E0000004E0003
:100FB00001004D0001004C0001004B0000004B00FF
:100FC00001004A00010049000100480000004800FB
:100FD00001004700010046000000460001004500F6
:100FE00000004500010044000100430000004300F0
:100FF00001004200000042000100410000004100E9
:101000000100400001003F0000003F0001003E00E1
:1010100000003E0001003D0000003D0001003C00DA
:1010200000003C0000003C0001003B0000003B00D1
:1010300001003A0000003A000100390000003900C8
:1010400001003800000038000000380001003700BF
:1010500000003700010036000000360000003600B6
:1010600001003500000035000000350001003400AB
:1010700000003400000034000100330000003300A1
:101080000000330001003200000032000000320096
:10109000010031000000310000003100010030008B
:1010A000000030000000300001002F0000002F0081
:1010B00000002F0000002F0001002E0000002E0075
:1010C00000002E0001002D0000002D0000002D006A
:1010D00000002D0001002C0000002C0000002C005E
:1010E00000002C0001002B0000002B0000002B0052
:1010F00000002B0001002A0000002A0000002A0046
:1011000000002A0001002900000029000000290039
:10111000000029000000290001002800000028002C
:10112000000028000000280000002800010027001F
:101130000000270000002700000027000000270013
:101140000100260000002600000026000000260006
:1011500000002600010025000000250000002500F9
:1011600000002500000025000000250001002400EB
:1011700000002400000024000000240000002400DF
:1011800001002300000023000000230000002300D2
:1011900000002300000023000000230001002200C3
:1011A00000002200000022000000220000002200B7
:1011B00000002200010021000000210000002100A9
:1011C000000021000000210000002100000021009B
:1011D000010020000000200000002000000020008E
:1011E000000020000000200000002000000020007F
:1011F00001001F0000001F0000001F0000001F0072
:1012000000001F0000001F0000001F0001001E0062
:1012100000001E0000001E0000001E000000043739
:1012200000001E290000511B00005810000010098A
:101230000000CC04000078020000410100007001B1
:101240002C0190012701B0012201C0011D01F00114
:1012500018011002130130020E0160020901900210
:101260000401C002FF000003FA004003F500800300
:10127000F000D003EB002004E6007004E100E0047D
:10128000DC004005D700C005D2004006CD00D006E6
:10129000C8008007C3003008BE00F008B900C009CC
:1012A000B400B00AAF00B00BAA00D00CA500000E2D
:1012B000A000500F9B00C010960050129100001427
:1012C0008C00C0158700B0178200B0197D00D01BBC
:1012D0007800001E730040206E0090226900F02408
:1012E000640040275F0090295A00E02B5500102E23
:1012F000500020304B0010324600E0334100903562
:101300003C001037370070383200A0392D00B03A59
:101310002800A03B2300603C1E00103D1900903DBA
:101320001400103E0F00703E0A00C03E0500003F52
:101330000000403FFBFF803FF6FFC03FF1FF202051
:10134000506C616E6E657242756666657242797444
:1013500065733A20002046726565204D656D6F7299
:10136000793A2000436F6D70696C65643A2041756D
:101370006720313020323032300A00204C617374E3
:1013800020557064617465643A20323032302D30FB
:10139000372D3237207C20417574686F723A2028CF
:1013A0007468697369736B65697468622C20456E33
:1013B0006465722D33290A00322E302E360A004D14
:1013C00061726C696E0020536F667477617265207C
:1013D00052657365740A00205761746368646F67AF
:1013E0002052657365740A002042726F776E206F19
:1013F00075742052657365740A00204578746572AF
:101400006E616C2052657365740A00506F77657267
:1014100055700A006175746F25632E670047323876
:101420005859004D31303031006572726F7220773B
:10143000726974696E6720746F2066696C650A0052
:10144000446F6E6520736176696E672066696C65AE
:101450002E0A004D323900456E6473746F7073004C
:1014600025532025632025632025632025630065FF
:101470006E6473746F7073206869743A20005365EA
:101480007474696E67732053746F726564002062B0
:10149000797465733B2063726320005365747469CB
:1014A0006E67732053746F72656420280045455041
:1014B000524F4D206461746173697A652065727260
:1014C0006F722E0A002073746F72656420736574E6
:1014D00074696E67732072657472696576656420DD
:1014E0002800202863616C63756C61746564292130
:1014F0000A0020213D2000454550524F4D204352C7
:1015000043206D69736D61746368202D20287374A6
:101510006F726564292000496E6465783A20002066
:101520004D61726C696E3D563831290A004545504F
:10153000524F4D2076657273696F6E206D69736DC1
:10154000617463682028454550524F4D3D00416409
:1015500076616E6365642053657474696E677300A9
:1015600046696C616D656E7400436F6E6669677580
:10157000726174696F6E0053746F770053572D4D0D
:101580006F6465004465706C6F790053656C662DFF
:101590005465737400526573746F72652044656698
:1015A00061756C7473004C6F616420536574746969
:1015B0006E67730053746F72652053657474696E3F
:1015C000677300424C546F7563680050726F6265B8
:1015D000205A204F6666736574004261636B005346
:1015E000746F70004D3231004D32320052656C65BF
:1015F000617365204D6564696100526573756D6541
:10160000205072696E7400417474616368204D6586
:101610006469610054756E650053746F7020507278
:10162000696E74005061757365205072696E740044
:10163000496E666F2053637265656E004F46460AB9
:1016400000466164652048656967687420004265EA
:1016500064204C6576656C696E6720004661696C34
:10166000656420746F20656E61626C6520426564FC
:10167000204C6576656C696E670A00496E76616C10
:101680006964206D6573682E0A0050726F62696E1E
:101690006720506F696E740025532025692F2569D6
:1016A0000050726F62696E67206D65736820706F9D
:1016B000696E742000202844525952554E29004723
:1016C0003239204175746F20426564204C6576651F
:1016D0006C696E67003F20284C2C522C462C422906
:1016E000206F7574206F6620626F756E64732E0AAA
:1016F000003F2856296572626F7365206C657665B8
:101700006C20696D706C61757369626C652028303E
:101710002D34292E0A00426164205A2076616C75AE
:10172000650A004E6F2062696C696E6561722067A0
:101730007269640A00204D393220580020204D6122
:10174000783A200020204D696E3A2000536F66746D
:1017500020656E6473746F70733A200020496E7652
:10176000616C6964206578747275646572200048E4
:101770006F6D652025732573257320466972737418
:10178000005761726E696E673A20486F6D696E67C7
:101790002042756D702044697669736F72203C2019
:1017A000310A0000000000000000000000000000FE
:1017B00000A0410000A0410000804002020400009F
:1017C000A0400000A0400000004000006B4300006B
:1017D0006B4300007A43FFFFFF1FE0201020102022
:1017E00010102010202010201030300840048003FA
:1017F000001FE03FF03FF03FF01FE01FE03FF03FF1
:10180000F03FF00FC0078003003FFFF0380070305A
:10181000FC3020FC102078102030102C00D02E310D
:10182000D02F7BD02F7BD02E31D02C00D020301069
:1018300020781020FC1030FC303800703FFFF03F63
:10184000FFF03800703186302387102787902F876C
:10185000D02F03D0203010207810207810203010A6
:101860002F03D02F87D027879023871031863038D9
:1018700000703FFFF01FFFF81FFFF8041040020840
:101880002002082004104008208010410010410070
:101890000820800410400000001FFFF81FFFF825FB
:1018A00068753A25303268750025687564202530E2
:1018B0003268753A253032687500202020202020BB
:1018C0002000506C6561736520526573657400502B
:1018D00052494E5445522048414C544544002553EA
:1018E0003A202553004B494C4C45442E2000507261
:1018F000696E7465722068616C7465642E206B6912
:101900006C6C28292063616C6C6564210A00656336
:10191000686F3A004572726F723A0042696C696E84
:10192000656172204C6576656C696E6720477269E7
:10193000643A0A0053756264697669646564207765
:10194000697468204341544D554C4C20524F4D20F2
:101950004C6576656C696E6720477269643A0A0067
:1019600053544F505045442E20005072696E746598
:10197000722073746F707065642064756520746F75
:10198000206572726F72732E2046697820746865C4
:10199000206572726F7220616E6420757365204DD0
:1019A00039393920746F20726573746172742E2016
:1019B0002854656D70657261747572652069732055
:1019C00072657365742E2053657420697420616696
:1019D0007465722072657374617274696E67290A26
:1019E0000021212053544F502063616C6C656420AA
:1019F00062656361757365206F6620424C546F7534
:101A00006368206572726F72202D20726573746135
:101A100072742077697468204D3939390A0020536F
:101A2000697A653A200043616E6E6F74206F70654D
:101A30006E20737562646972200053442063617282
:101A400064206F6B0A006F70656E526F6F74206652
:101A500061696C65640A00766F6C756D652E696EE0
:101A60006974206661696C65640A004E6F20534496
:101A700020636172640A004D3234004D32332025F8
:101A8000730046696C652073656C65637465640AF0
:101A90000046696C65206F70656E65643A2000458C
:101AA0004E4420535542524F5554494E450A002248
:101AB00020706F73002220706172656E743A22008C
:101AC000535542524F5554494E452043414C4C20AA
:101AD0007461726765743A220053756263616C6C5D
:101AE000204F766572666C6F770045786365656434
:101AF0006564206D617820535542524F5554494ECC
:101B0000452064657074683A310A005772697469D7
:101B10006E6720746F2066696C653A2000646F6997
:101B20006E67004E6F7720007C3C3E5E2B3D3F2F62
:101B30005B5D3B2C2A225C0046696C2E2044696167
:101B40002E004520696E206D6DC2B3004D333033D9
:101B500020553120452569205325690050494420EE
:101B60004175746F74756E65202A005049442D4488
:101B7000202A005049442D49202A005049442D5024
:101B8000202A0020082046616374002008204D614F
:101B900078002008204D696E004F6666004F6E0089
:101BA0004175746F74656D70004520737465707352
:101BB0002F6D6D005A2053746570732F6D6D005931
:101BC0002053746570732F6D6D00582053746570C9
:101BD000732F6D6D0054656D7065726174757265FB
:101BE0000041425300504C41004D61696E005072FB
:101BF00065686561742024204265640050726568E0
:101C0000656174202420456E6400436F6F6C646FBF
:101C1000776E005072656865617420240046616EBD
:101C2000205370656564004E6F7A7A6C650042617E
:101C3000627973746570205A00466C6F7700E51BFB
:101C4000E11B4D6F74696F6E004D38340053746141
:101C50007274205072696E740043616E63656C002B
:101C600043616E6E6F7420656E7465722073756269
:101C70006469723A2000022E2E0001526566726578
:101C800073680044697361626C6520537465707099
:101C900065727300473238004175746F20486F6D6C
:101CA00065003F5A206F7574206F662072616E6701
:101CB000652028003F59206F7574206F662072617F
:101CC0006E676520282D0020746F20003F58206F1C
:101CD0007574206F662072616E676520282D005034
:101CE000726F6265204F6666736574205800656E7A
:101CF0007175657565696E672022006F6B005265AE
:101D000073656E643A200020573A00452025530041
:101D100042656420436F6F6C696E672E2E2E004201
:101D200065642048656174696E672E2E2E002364F9
:101D30006566696E652044454641554C545F004BCD
:101D40006420004B6920004B702000504944204122
:101D500075746F74756E652066696E697368656405
:101D6000212050757420746865206C617374204B59
:101D7000702C204B6920616E64204B6420636F6E71
:101D80007374616E74732066726F6D2062656C6F20
:101D90007720696E746F20436F6E66696775726134
:101DA00074696F6E2E680A00504944204175746F43
:101DB00074756E65206661696C6564212074696D57
:101DC000656F75740A000A20436C61737369632040
:101DD000504944200A00204B643A2000204B693AC5
:101DE0002000204B703A20002054753A2000204BF0
:101DF000753A2000206D61783A2000206D696E3AB6
:101E0000200020643A200020626961733A2000506B
:101E10004944204175746F74756E652073746172E6
:101E2000740A00504944204175746F74756E6520C2
:101E30006661696C6564212054656D7065726174BA
:101E400075726520746F6F20686967680A00504971
:101E500044204175746F74756E650050494420418B
:101E600075746F74756E65206661696C6564212098
:101E7000426164206578747275646572206E756D58
:101E80006265720A00456E636C6F73757265006FF0
:101E900070656E206661696C65642C2046696C65AE
:101EA0003A20005072696E742066726F6D204D6525
:101EB00064696100205A3A200020593A20004265A6
:101EC0006420583A20005072696E74205061757316
:101ED00065640050726F62696E67204661696C6567
:101EE000640A0050726F62696E67204661696C65B2
:101EF0006400220A00556E6B6E6F776E20636F6D03
:101F00006D616E643A202200456E6465722D332047
:101F100052656164792E005072696E74696E672E25
:101F20002E2E003F005072696E742041626F7274F1
:101F30006564004D32350050617573696E672E2EF1
:101F40002E00454550524F4D2056657273696F6E95
:101F5000204572726F7200454550524F4D20496EB8
:101F6000646578204572726F7200454550524F4D3E
:101F700020435243204572726F720049676E6F7240
:101F80006500496E697469616C697A6520454550E0
:101F9000524F4D004572723A207574663820666F54
:101FA0006E74206E6F7420696E697469616C697AF1
:101FB00065642E00000C0F00FE07022603BC017FA3
:101FC000FE08FE08FE05080806000040F0C88888E4
:101FD000987810050808060000C0F8888888888866
:101FE000F80505050600012030F830200508080630
:101FF00000002070F820202020E00509090600FFDD
:102000002070A8A8B888887020050606060001E0A0
:102010008CEA8C8A0A0509090600FFF8A8888888D6
:102020008888A8F8050A0A0600FE205050505088FB
:10203000A8A8887003030306000340A040FFFFFF29
:10204000FFFFFFFFFFFFFFFFFFFFFFFFFFFFFFFFA0
:10205000FFFFFF0000000605FF01070706020080E2
:10206000808080800080030303060105A0A0A005F6
:10207000060606000050F85050F850050909060001
:10208000FF2070A8A07028A8702005070706000090
:10209000C8C8102040989805070706000040A0A077
:1020A00040A89068010303060205808080030909A7
:1020B0000601FF204040808080404020030909063F
:1020C00001FF804040202020404080050707060097
:1020D0000020A8702070A82005050506000120201A
:1020E000F820200203030601FFC04080050101061D
:1020F0000003F8020202060100C0C005070706003F
:102100000008101020404080050707060000708876
:1021100098A8C8887003070706010040C0404040E7
:1021200040E0050707060000708808102040F80509
:102130000707060000F80810300888700507070632
:10214000000010305090F81010050707060000F846
:1021500080F008088870050707060000304080F00E
:10216000888870050707060000F808101020202056
:1021700005070706000070888870888870050707C3
:1021800006000070888878081060020505060100C6
:10219000C0C000C0C00206060601FFC0C000C040AB
:1021A0008003050506010120408040200503030649
:1021B0000002F800F8030505060101804020408078
:1021C000050707060000708810202000200507077B
:1021D0000600007088B8A8B88070050707060000E0
:1021E000708888F8888888050707060000F0484846
:1021F000704848F0050707060000708880808088D6
:1022000070050707060000F04848484848F00507F1
:1022100007060000F88080F08080F80507070600B8
:1022200000F88080F0808080050707060000708835
:102230008080988870050707060000888888F888DD
:102240008888030707060100E04040404040E00561
:1022500007070600003810101010906005070706E9
:1022600000008890A0C0A0908805070706000080A5
:102270008080808080F805070706000088D8A8883D
:102280008888880507070600008888C8A898888875
:10229000050707060000708888888888700507078A
:1022A000060000F08888F08080800507070600009F
:1022B00070888888A89068050707060000F088885D
:1022C000F0A09088050707060000708880700888D5
:1022D00070050707060000F82020202020200507B1
:1022E0000706000088888888888870050707060028
:1022F00000888888885050200507070600008888D5
:102300008888A8A850050707060000888850205034
:1023100088880507070600008888502020202005AF
:102320000707060000F80810204080F80309090696
:1023300001FFE080808080808080E0050707060044
:1023400000804040201010080309090601FFE0202A
:10235000202020202020E0050303060005205088CF
:102360000501010600FEF803030306010580402075
:10237000050505060000700878887805070706003F
:10238000008080F0888888F00505050600007080D0
:102390008088700507070600000808788888887814
:1023A0000505050600007088F08070050707060027
:1023B00000304840E04040400507070600FE7088B6
:1023C00088887808700507070600008080F08888F4
:1023D00088880307070601004000C0404040E00431
:1023E00009090601FE10003010101010906005075A
:1023F0000706000080808890E090880307070601A8
:1024000000C04040404040E0050505060000D0A85F
:10241000A8A8A8050505060000B0C8888888050595
:102420000506000070888888700507070600FEF022
:10243000888888F080800507070600FE78888888ED
:10244000780808050505060000B0C88080800505ED
:102450000506000078807008F005070706000020D8
:1024600020F8202020180505050600008888889897
:1024700068050505060000888888502005050506C2
:1024800000008888A8A8500505050600008850208F
:1024900050880507070600FE888888502040800580
:1024A0000505060000F8102040F80309090601FFA1
:1024B0002040404080404040200109090602FF8042
:1024C00080808080808080800309090601FF804031
:1024D0004040204040408005030306000248A89089
:1024E000FF20520048617264636F64656420446534
:1024F0006661756C742053657474696E6773204CE3
:102500006F616465640A003B200020204D3835313E
:102510002058005A2D50726F6265204F66667365B1
:10252000740020204D333031205000504944207336
:10253000657474696E67733A002046002048002075
:10254000204D3134352053004D6174657269616CE2
:102550002068656174757020706172616D65746565
:1025600072733A002020473239205720490020203A
:102570004D3432302053004175746F204265642021
:102580004C6576656C696E673A0020204D323036B6
:10259000205800486F6D65206F66667365743A0059
:1025A000204A0020204D32303520420041647661BF
:1025B0006E6365643A20423C6D696E5F7365676D5A
:1025C000656E745F74696D655F75733E20533C6D15
:1025D000696E5F66656564726174653E20543C6D2A
:1025E000696E5F74726176656C5F66656564726161
:1025F00074653E204A3C6A756E635F6465763E0092
:1026000020540020204D3230342050004163636557
:102610006C65726174696F6E2028756E6974732FB2
:102620007332293A20503C7072696E745F61636343
:10263000656C3E20523C726574726163745F6163C5
:1026400063656C3E20543C74726176656C5F6163B7
:1026500063656C3E0020204D3230312058004D61C2
:1026600078696D756D20416363656C65726174692D
:102670006F6E2028756E6974732F7332293A0020AB
:10268000450020204D3230332058004D6178696D6F
:10269000756D206665656472617465732028756E5A
:1026A0006974732F73293A005374657073207065D1
:1026B0007220756E69743A0020440020204D32303B
:1026C000302053002044697361626C65640A0046DF
:1026D000696C616D656E742073657474696E67737F
:1026E0003A0020204D3134392043203B20556E697B
:1026F000747320696E2043656C736975730A0020DA
:10270000286D6D29002020473231202020203B20D9
:10271000556E69747320696E206D6D00486F6D6928
:102720006E67204661696C6564006F70656E005469
:102730005249474745524544007A5F6D696E0079BA
:102740005F6D696E00785F6D696E005265706F72C3
:1027500074696E6720656E6473746F702073746142
:102760007475730A000000FA430000FA430000A0E9
:10277000400000C8410000A0420000A0420000C884
:10278000430000BA42F4010000F4010000640000BC
:10279000008813000000002100240027002A000008
:1027A000002200250028002B000000200023002626
:1027B00000290002020202020202020404040404CC
:1027C00004040403030303030303030101010101E0
:1027D00001010101020408102040800102040810D8
:1027E0002040800102040810204080804020100812
:1027F000040201000000010200090A0000000004B8
:1028000003080700000000000000000000000000B6
:102810000000004D6F76652025736D6D004D6F765D
:102820006520302E316D6D004D6F766520316D6DF8
:10283000004D6F76652031306D6D004D6F766520EF
:102840004178697300486F74656E6420746F6F20FF
:10285000636F6C64004578747275646572004D6FC7
:102860007665205A004D6F76652059004D6F76656C
:102870002058004361703A0079E65EE611241FBEDD
:10288000CFEFD0E4DEBFCDBF12E0A0E0B1E0E4E8DE
:10289000FEEE01E00BBF02C007900D92A630B1071B
:1028A000D9F725E1A6E0B2E001C01D92A532B2073A
:1028B000E1F714E1CDE3D4E104C02197FE010E94C9
:1028C0007CF4CC33D107C9F70E941DE00C9436F795
:1028D0000C940000AAE2B0E0E0E7F4E10C9497F475
:1028E0008AA7209110022CA321E02093100280914E
:1028F0001E158D3409F479C3843511F40C94B32476
:10290000873411F00C94D52480911C1590911D15DD
:102910008D31910509F430C18CF48430910509F4AE
:10292000DDC01CF4029790F15CC38531910511F470
:102930000C94D7244C9709F40FC153C38A359105E1
:1029400009F4B3C144F48E31910509F434C18A9776
:1029500009F420C246C38B35910509F4AAC18C3510
:10296000910509F03EC386E7282E81E0382E9BE6CC
:10297000E92E9AE0F92EAEEBBDE0B9A3A8A324E8B6
:10298000C22E22E0D22E00E010E0D4C180914F0A86
:10299000813011F00C94D72438E7C32E3AE0D32EBF
:1029A0004EEBE42E4DE0F42E54E8A52E52E0B52E69
:1029B00010E088E5810F0E94BC81882319F10E94F4
:1029C00047812B013C01812F0E94C663882351F06F
:1029D000D7012D913D914D915C91C301B2010E94AF
:1029E000CFF409C0F5012081318142815381C301B7
:1029F000B2010E94CEF4D6016D937D938D939C938A
:102A000013970AC0F70180819181A281B381F601F9
:102A100080839183A283B3831F5FF4E0CF0ED11C28
:102A200024E0E20EF11C34E0A30EB11C133009F6D1
:102A300085E40E94BC81882301F10E9447816B01DB
:102A40007C0183E00E94C663882371F02091CA0D47
:102A50003091CB0D4091CC0D5091CD0DC701B601F9
:102A60000E94CFF46B017C01C092840AD092850A47
:102A7000E092860AF092870A10C08091CA0D909168
:102A8000CB0DA091CC0DB091CD0D8093840A909385
:102A9000850AA093860AB093870A40E050E0BA0105
:102AA00086E40E940AA920E030E0A9010E9432F6E3
:102AB000181684F40E94478120E030E040E752E499
:102AC0000E9446F560936D0170936E0180936F01D3
:102AD000909370010E941E740C94D72480E50E948C
:102AE000BC81882329F00E941A646B017C0103C019
:102AF000C12CD12C760183E50E94BC81882361F032
:102B00000E94478120E030E04AE754E40E9415EE3D
:102B10000E94B3F56B017C010E94EF6D8091FB1365
:102B2000811105C060E087E792E00E9407CB0E9418
:102B300088D9C60ED71EE81EF91E0E9488D9DC016E
:102B4000CB018C199D09AE09BF09B7FD02C00C94D9
:102B5000D7240E94402CF1CF8091770A877087306C
:102B600011F00C94E02460E08FE40E94BD688111B4
:102B70000C94D7240C94E0240E9488D96093840D8F
:102B80007093850D8093860D9093870D87E00E944A
:102B9000D87381110C94D7248091EE13882311F4FB
:102BA0000C94E72660E08FE40E94BD6881110C94CC
:102BB000D7240C94E72620918713309188134091F5
:102BC000891350918A136091BE0D7091BF0D809151
:102BD000C00D9091C10D0E94CFF4AB01BC0188E5FE
:102BE0000E940AA969837A838B839C8320918B132B
:102BF00030918C1340918D1350918E136091C20DC2
:102C00007091C30D8091C40D9091C50D0E94CFF4B9
:102C1000AB01BC0189E50E940AA96D837E838F8385
:102C20009887BE016B5F7F4FCE0101960E94396489
:102C3000882311F40C94D72480E00E94A1830E9481
:102C4000867761E085E40E94BD6821E0482FBE01DF
:102C50006B5F7F4FCE0101960E943FC36B017C01E9
:102C60009B01AC010E94A9F6811119C049815A81CA
:102C70006B817C818EEB9EE10E9449874D815E8154
:102C80006F81788589EB9EE10E944987B701A60193
:102C900084EB9EE10E9449878AE00E942F2B0E94CC
:102CA0006D770E94DED20C94D72410920F020C9400
:102CB000D7248FE080930F020C94D7240E94478181
:102CC0002B013C01133049F0D6012D913D914D91DE
:102CD0005C910E94CEF42B013C01E8A1F9A1208176
:102CE000318142815381C301B2010E94CEF44B0174
:102CF0005C012DEB37E346E855EB0E9432F687FD89
:102D000021C02DEB37E346E855E3C501B4010E942D
:102D1000B0ED1816BCF01F5FF4E0EF0EF11C28A117
:102D200039A12C5F3F4F39A328A334E0C30ED11C37
:102D3000143031F1F10181911F010E94BC8188237F
:102D400051F3BCCF133051F44092CA0D5092CB0DC9
:102D50006092CC0D7092CD0D01E0DDCFA501940104
:102D6000D7016D917D918D919C910E94CFF4F701D7
:102D70006083718382839383812F0E946672CBCF9D
:102D8000002321F08AEC9DE00E94AF520E94DED227
:102D90000C94D72480914F0A813011F00C94D724E1
:102DA00089E40E94BC81E82E882321F00E94D0682B
:102DB000082F01C000E08AE40E94BC81F82E88231D
:102DC00021F00E94D068182F01C010E0EE2011F011
:102DD000043020F4FF2041F0143030F083EA92E018
:102DE0000E940A870C94D72480E1EEEBFDE0A8E76F
:102DF000BAE001900D928A95E1F7EE2019F1602F6B
:102E0000000F770B880B990B0E94B6ED2091871469
:102E1000309188144091891450918A140E9415EEC3
:102E20002091540A3091550A4091560A5091570A00
:102E30000E94CFF46093780A7093790A80937A0A9B
:102E400090937B0AFF2019F1612F110F770B880BEC
:102E5000990B0E94B6ED20918B1430918C14409107
:102E60008D1450918E140E9415EE2091580A3091C5
:102E7000590A40915A0A50915B0A0E94CFF460931C
:102E80007C0A70937D0A80937E0A90937F0A60E0AB
:102E900080E50E94BD688823C1F1EE20D1F0209129
:102EA0008713309188134091891350918A13609150
:102EB000780A7091790A80917A0A90917B0A0E942F
:102EC000CEF46093780A7093790A80937A0A90938B
:102ED0007B0AFF20D1F020918B1330918C1340910D
:102EE0008D1350918E1360917C0A70917D0A8091B0
:102EF0007E0A90917F0A0E94CEF460937C0A7093C0
:102F00007D0A80937E0A90937F0A40E050E0BA01E8
:102F100086E40E940AA96B017C0120E030E0A9014F
:102F20000E9432F618165CF420E030E040E752E4EC
:102F3000C701B6010E9446F56B017C0103C0C12C9C
:102F4000D12C760180906D0190906E01A0906F0160
:102F5000B090700120E030E0A901C701B6010E94E5
:102F6000B0ED882341F0C0926D01D0926E01E092E5
:102F70006F01F0927001009147011091480184E6C1
:102F800090E09093480180934701C0900601D09053
:102F90000701E0900801F090090180E090E0A0E8CE
:102FA000BFE38093060190930701A0930801B093BB
:102FB00009010E941E7480926D0190926E01A09290
:102FC0006F01B09270011093480100934701C092C5
:102FD0000601D0920701E0920801F09209010C94D9
:102FE000D7240E94C9C20C94D72480911C159091BB
:102FF0001D158537910509F465C70CF040C18C3467
:10300000910509F4F8C40CF055C08931910509F413
:103010000BC31CF58431910509F4B6C27CF48131EF
:10302000910509F494C22CF4029708F433C20C946D
:10303000B024429709F45BC60C94B0248631910504
:1030400009F4C7C20CF4C1C28731910509F4CBC29F
:10305000489709F4DDC20C94B0248E31910509F42F
:1030600065C3ACF48B31910509F405C30CF4F5C2CA
:103070008C31910509F452C34D9711F00C94B02492
:1030800080911C128E7F80931C120C94D724803266
:10309000910509F4ACC30CF4EDC38A32910509F42F
:1030A00092C48B34910511F00C94B0240E94A6C8F0
:1030B0000C94D7248A36910509F4EAC4CCF58435FA
:1030C000910509F414C6FCF48135910509F4F4C5A1
:1030D0004CF48D34910511F00C94B0240E94D9C8A1
:1030E0000C94D7248235910509F4FAC583359105EE
:1030F00011F00C94B02480910F028F7E8062809337
:103100000F020C94D7248C35910509F44AC634F487
:103110008535910509F422C60C94B02488369105B2
:1031200009F47CC48936910509F49EC40C94B0243A
:103130008F36910509F402C584F48C36910509F4A3
:1031400042C50CF4E1C48D36910509F48AC48E366B
:10315000910509F4E2C40C94B0248137910509F477
:1031600041C50CF435C58237910509F4A4C68337EF
:10317000910511F00C94B02485E095E00E940A8737
:1031800060E085EF94E00E9470DF60E080EE94E004
:103190000E9470DF61E08DE89FE10E9470DF61E0D6
:1031A00085ED94E00E9470DF61E085EC94E00E9480
:1031B00070DF60E08CEB94E00E9470DF61E082EBF6
:1031C00094E00E9470DF61E088EA94E00E9470DF82
:1031D00060E081EA94E00E9470DF61E089E994E0B8
:1031E0000E9470DF61E08BE894E00E9470DF60E095
:1031F0008DE794E00E9470DF60E08EE694E00E942C
:1032000070DF60E080E694E00E9470DF60E08AE4B6
:1032100094E00E9470DF60E089E394E00E9470DF38
:1032200060E08AE294E00E9470DF61E083E294E073
:103230000E9470DF60E08EE094E00E9470DF60E04A
:1032400080E094E00E9470DF61E08DEE93E00E94E8
:1032500070DF60E080EE93E00E9470DF60E08BED55
:1032600093E00E9470DF61E08EEC93E00E9470DFDB
:1032700060E08AEB93E00E9470DF0C94D7248232E6
:10328000A1E09A0711F40C9470220CF06BC0893CF9
:10329000910509F425C78CF58C38910509F4C4C44F
:1032A000BCF48737910509F457C60CF41BC6883760
:1032B000910509F454C68937910511F00C94B02496
:1032C00010927B0810927A080E94B7D30C94D724EE
:1032D0008B39910509F4CAC434F48139910509F494
:1032E00046C60C94B0248E3B910509F4BCC4883CBE
:1032F000910509F4B0C60C94B024833D910509F4FE
:1033000090C7D4F48C3C910509F432C734F48B3C5B
:10331000910509F40BC70C94B0248D3C910509F478
:1033200058C78E3C910511F00C94B0246DE7E62E41
:1033300068E0F62E10E063C78D3D910509F49BC748
:1033400034F48C3D910509F46FC70C94B024823E8F
:10335000910509F4E6C78831914011F40C94DB2102
:103360000C94B0248C3AF1E09F0711F40C940D24D6
:103370000CF042C08139A1E09A0711F40C94892322
:10338000ECF48E32E1E09E0711F40C9442233CF4FD
:103390008D32914011F40C94C3220C94B0248F32DE
:1033A00031E0930711F40C9486238039914011F099
:1033B0000C94B0240E94EF6D0C94D7248A39B1E0AC
:1033C0009B0709F40CC45CF48239914011F00C9411
:1033D000B0240E9430640E94DED20C94D724843A38
:1033E00021E0920711F40C949323853A914011F453
:1033F0000C9496230C94B024883FA1E09A0711F412
:103400000C9470242CF5853FE1E09E0711F40C9498
:103410006A244CF4843F914011F00C94B0240E9433
:103420002D590C94D724863F31E0930711F40C9466
:103430006D24873F914011F00C94B02461E083E546
:103440000E94BD6891E089270E9406D50C94D7247C
:10345000803AB3E09B0709F4FFC17CF48C30F2E0C2
:103460009F0711F40C9480248335934011F00C9441
:10347000B0240E9469B10C94D724873E33E09307AF
:1034800011F40C948824893E934011F40C949624F2
:103490000C94B02480E50E94BC81882329F00E940E
:1034A0001A646B017C0103C0C12CD12C760183E529
:1034B0000E94BC81882361F00E94478120E030E0B7
:1034C0004AE754E40E9415EE0E94B3F56B017C01BB
:1034D0000E94EF6D80911A1590911B15009721F0B5
:1034E00061E00E949ACB05C060E08CEB92E00E9404
:1034F00007CB1091100283E08093100281E080934B
:103500005114C114D104E104F10431F00E9488D9AE
:10351000C60ED71EE81EF91E80915114882311F49F
:103520000C94EA26C114D104E104F10411F40C94C2
:10353000F1260E9488D9DC01CB018C199D09AE09C6
:10354000BF09B7FF02C00C94F1260C94EA268091C3
:10355000F80C84FF02C00C94F4268091FA0C87FFCB
:1035600002C00C94F4268091FB0C837011F00C9433
:10357000F42660E08FEC92E00E9407CB5E985E98A4
:1035800015985E980C94D72487EE92E00E940A87E3
:1035900083E590E10E94AA948BE1E3E5F0E1DE018E
:1035A000119601900D928A95E1F760E070E0CE01EE
:1035B00001960E944A8ECE0101960E94959688ED52
:1035C00092E00E940A870C94D7240E94AF8B0C943F
:1035D000D7240E940B8B80911C12877F806280937E
:1035E0001C120C94D724E0911A15F0911B158081C0
:1035F000882329F0803209F410823196F8CF60E0F8
:1036000080911A1590911B150E94518D0C94D7240E
:103610000E94E028882321F00E941A8B0E94A6C8ED
:103620000E948FC20C94D72480911C1282FF03C089
:103630008B7F80931C128091E513813089F782E0A3
:103640008093E5130E9488D96093591470935A149B
:1036500080935B1490935C14E3CF80911C1283FDE4
:1036600002C00C94D72483E50E94BC8181110C9484
:1036700006270C94D72483E40E947381882319F1D0
:1036800082E093E00E940A878091FD0F882391F0E9
:10369000BE016F5F7F4F8AEF9FE00E949C938E0177
:1036A0000F5F1F4FF80181918F01882339F00E942D
:1036B0002F2BF8CF88EF92E00E940A878AE00E94C1
:1036C0002F2B0C94D72480911C1282FF21C081E102
:1036D00093E00E940A8760911812709119128091EC
:1036E0001A1290911B124AE00E94362B8FE20E9420
:1036F0002F2B6091141270911512809116129091D7
:1037000017124AE00E94362B0E941C2C0C94D724DE
:1037100083E293E00E940A870C94D72480911A15C3
:1037200090911B150E940E8D0C94D72480911C1231
:1037300083FD02C00C94D7240E94B2C280911C1257
:1037400083FD02C00C94D72440911A1550911B158B
:10375000BE01645E7F4F80E00E9479BF8C010097BC
:1037600011F40C94D7246C8D7D8D19821C8222E07B
:10377000AC01CE0101960E949A96811102C0F12CF3
:1037800014C0CE0101960E94FEBE8823C1F361E001
:10379000CE0101960E944993009789F325EEDC0142
:1037A0002C931C820E942A8FF82ECE0101960E9433
:1037B0009596B801FF2089F08CE493E00E9467871A
:1037C0008AE00E942F2B1092181210921912109258
:1037D0001A1210921B120C94D72484E393E00E94D7
:1037E000678783E197E10E940A870C94D724809130
:1037F0001C1282FD0E94EF6D80911C1283FD02C09D
:103800000C94D72460E080E50E94BD68182F682FD3
:1038100080911A1590911B150E94518D83E50E948D
:10382000BC81882381F00E943781AB01BC014093A9
:1038300018125093191260931A1270931B128AEF88
:103840009FE00E94FD900E941A8B11110C94D724C6
:103850000E94A6C80C94D72420911A1530911B15EC
:1038600090911C12926090931C12C9010E940E8DBF
:103870000C94D7240E9457C86B017C0120E831E5E5
:1038800041E050E00E94ECF3C9016DE671E00E9456
:1038900055F44B015C01C701B60120E13EE040E078
:1038A00050E00E94ECF3CA01B90128E130E040E0A9
:1038B00050E00E94ECF32B013C011B01C701B60153
:1038C0002CE330E040E050E00E94ECF36B017C011F
:1038D000CA01B9012CE330E040E050E00E94ECF373
:1038E0008E010F5F1F4F8114910499F0DF92CF92E8
:1038F0007F936F935F924F92BF92AF929F928F92FE
:103900008AE593E09F938F931F930F930E944AED54
:1039100013C0A114B104B1F0DF92CF927F936F93E3
:103920005F924F92BF92AF928EE593E09F938F93F9
:103930001F930F930E944AED0FB6F894DEBF0FBE9F
:10394000CDBF32C04114510479F0DF92CF927F9302
:103950006F935F924F9282E693E09F938F931F93B2
:103960000F930E944AEDE8CF6115710569F0DF926F
:10397000CF927F936F9386E693E09F938F931F93ED
:103980000F930E944AEDD8CFDF92CF928AE693E060
:103990009F938F931F930F930E944AED0F900F9068
:1039A0000F900F900F900F9060E0C8010E949ACB8B
:1039B0000E943388B8018EE693E00E9467878AE010
:1039C0000E942F2BF4C76FEF7FEF80E50E94D46831
:1039D0008C0197FF01C0EBC7E82E60E089E40E94EC
:1039E000BD6881110C941727802F0E94FDDF811183
:1039F000B5C40C9417278091E513813009F0D7C71F
:103A000082E08093E5130E9488D9609359147093E3
:103A10005A1480935B1490935C14C9C7809170070B
:103A200083FDC5C70E94FC6587FDC1C789E40E946C
:103A3000BC81882311F40C944E270E94E86590E025
:103A40001816190614F481E090E026E0289FF00192
:103A5000299FF00D1124E157FB4E808191810C9438
:103A600058270E94A6AEA3C70E94FC65182F87FDA9
:103A70000AC08BEF9CE10E940A87812F0E94244399
:103A80008AE00E942F2BECA1E09310020C949F2857
:103A900060E080E50E942466811189C781E40E946C
:103AA0007381882329F06091AC02062F10E002C0D8
:103AB0000FEF10E089E40E94BC81882399F00E94F6
:103AC000E86590E01816190614F481E090E026E00D
:103AD000289FF001299FF00D1124E157FB4E04812E
:103AE000158108C083E50E94BC81882319F00E94DB
:103AF00037818B01B8010F3F110519F010F06FEFFE
:103B000070E06093AC0253C760E080E50E942466D9
:103B100081114DC71092AC024AC78EE40E94BC814D
:103B2000882309F444C70E9437816093800D709305
:103B3000810D8093820D9093830D39C783E50E9498
:103B40007381882331F060E083E50E9424668093CE
:103B500070070E94338881E993E00E940A87809170
:103B60007007882369F10BE1E02E07E0F02E00E0FA
:103B700010E020E08091700790E0A0E0B0E0002E1F
:103B800004C0B695A795979587950A94D2F780FFBC
:103B90000EC0DD24D394D20E222319F08CE20E94B1
:103BA0002F2BF701859194910E940A872D2D0F5F8D
:103BB0001F4FF2E0EF0EF11C05301105D9F67ECD56
:103BC0008DE893E079CD1092511410922901EFC63F
:103BD00041E060E070E088E993E00E9436880E944E
:103BE000B728E5C683E50E94BC81882371F00E9456
:103BF000E865282F30E02D3331051CF48093000157
:103C0000D6C68CE380930001D2C60E9433884091CF
:103C1000000150E060E070E086EA93E00E942B87AC
:103C20008AE00E942F2BC3C68091700783FDBFC618
:103C300089E40E94BC81882311F40C9461270E94BE
:103C4000E86590E01816190614F481E090E026E08B
:103C5000289FF001299FF00D1124E157FB4E62814E
:103C600073810C946B270E94D1ACA1C683E50E949E
:103C7000BC81882309F49BC60E94E865182F90E058
:103C8000CD970CF01CE310930A020E9488D96B01B7
:103C90007C01212F30E0A8EEB3E00E943AF4C60E7A
:103CA000D71EE81EF91EC0920602D0920702E092CB
:103CB0000802F09209027BC60E9436450E94D9C8CC
:103CC0000E94FF6D0E94DD2868EE73E080E090E0C6
:103CD0000E94528660E08DEA93E00E9407CB67C69F
:103CE00080910F028F7D806180930F0260C683E513
:103CF0000E94BC818823E9F00E9488D96093840DDA
:103D00007093850D8093860D9093870D0E94478157
:103D100020E030E04AE754E40E9415EE0E94B3F53B
:103D20006093010170930201809303019093040159
:103D30003EC68091F80C84FF02C00C947C278091D1
:103D4000FA0C87FF02C00C947C278091FB0C8370D7
:103D500011F00C947C270E94FF6D29C683E50E9418
:103D60007381882309F423C60E9488D96093840D47
:103D70007093850D8093860D9093870D0E944781E7
:103D800020E030E04AE754E40E9415EE0E94B3F5CB
:103D900060930B0270930C0280930D0290930E02BD
:103DA00006C60E94FC6587FD02C69091F80C94FD42
:103DB00004C09091FA0C97FF0AC0B6E7CB2EB1E091
:103DC000DB2E11E7E12E17E0F12E10E009C09091F3
:103DD000FB0C937091F7682F81E00E94DF63E7C5C9
:103DE000D6018D916D010E94BC81882309F459C0D0
:103DF000133009F04FC00E9447814B015C0120E065
:103E000030E040EA51E40E94B0ED87FF3AC0A501DE
:103E1000940160919107709192078091930790911E
:103E200094070E9446F52B013C019B01AC01609177
:103E3000A1077091A2078091A3079091A4070E9407
:103E400015EE6093A1077093A2078093A307909348
:103E5000A4076091A0027091A1028091A2029091AA
:103E6000A3020E94B4EDA30192010E9415EE0E94EC
:103E7000B3F56093A0027093A1028093A202909385
:103E8000A3028092910790929207A0929307B0921A
:103E9000940707C00E944781F701648B758B868B5E
:103EA000978B1F5FF4E0EF0EF11C143009F098CFF0
:103EB0000E948B527CC50E94A7408FEA90E10E942D
:103EC000CE4975C580911A1590911B15009709F47C
:103ED000A7CBDC012C91222309F4A2CB60E00E9445
:103EE0009ACB65C500911A1510911B1594E0F12C21
:103EF00040E0915021F1F8018081282F2B7F21345F
:103F000021F421812133D9F407C08035C1F48181A6
:103F100080538A3048F013C0813421F0853421F475
:103F200041E002C0FF24F39498012E5F3F4F8901C6
:103F30002F5F3F4FF80180818032C9F3DACF411102
:103F40000E943388FF2021F086ED95E00E940A87C9
:103F5000C8010E94202C2BC50E9468D328C581E08F
:103F600080937B0880937A080E94B7D320C560E0D5
:103F700070E083E50E94D468823038F00E94748734
:103F80008AED95E00E940A8712C58C01112788E40A
:103F90000E94BC818823E1F00E94D0688A3A910592
:103FA00044F00E94D0688530914034F40E94D0687B
:103FB00005C08AEA90E002C084E091E026E0209FFC
:103FC000F001219FF00D1124E157FB4E9183808376
:103FD00082E40E94BC818823D9F00E94D0680597B2
:103FE00044F00E94D0688437910534F40E94D06870
:103FF00005C085E090E002C083E790E026E0209FC6
:10400000F001219FF00D1124E157FB4E9383828331
:1040100086E40E94BC81882309F4C9C40E94D06848
:1040200097FD09C00E94D0688F3F910509F034F4D4
:104030000E94D06805C080E090E002C08FEF90E061
:1040400026E0209FF001219FF00D1124E157FB4E47
:1040500095838483ACC40E94FC65182F87FDA7C498
:104060000091880A84E40E94BC81882309F469C70E
:104070000E9447816B017C0120E030E0A9010E9491
:10408000B0ED882339F124E01202F0011124E35746
:10409000F54FC082D182E282F38220E030E0A901B4
:1040A00060918D0A70918E0A80918F0A9091900A8A
:1040B0000E94B0ED81110CC080E090E0A0EEBFE363
:1040C00080938D0A90938E0AA0938F0AB093900AE2
:1040D00001E037C780E08093880A0E948A6D67C438
:1040E0000E94FC6587FD63C4F6E7EF2EF1E0FF2E2A
:1040F00001E717E0A1E8CA2EA7E0DA2ED7018D91DB
:104100007D010E947381882359F00E9447810E949B
:10411000B3F5F80160837183828393830E944A52CE
:104120000C5F1F4FC016D10649F741C40E94FC65C1
:1041300087FD3DC476E7E72E71E0F72E01E717E033
:10414000E1E8CE2EE7E0DE2ED7018D917D010E94C1
:104150007381882339F00E944781F80164A375A315
:1041600086A397A30C5F1F4FC016D10669F71FC423
:104170008091F90C87FDEAC68091FA0C8E7009F0E7
:10418000E5C64091A5075091A6076091A7077091D9
:10419000A8078CEF95E00E9449874091A9075091AC
:1041A000AA076091AB077091AC0781EE94E20E9480
:1041B00049874091AD075091AE076091AF0770916C
:1041C000B00780E096E20E9449878AE00E942F2B88
:1041D000EEC38091F80C81FDFFC68091F90C81FD42
:1041E000FBC68091FA0C8C7009F0F6C6E0C31F5F25
:1041F000B4E0EB0EF11C133011F40C94C61688E5F4
:10420000810F0E947381882391F30E944781D70117
:104210006D937D938D939C931397812F0E9466726B
:10422000E6CF0E943E66C3C383E50E94BC8188231B
:1042300031F00E94D06890934801809347018091AB
:10424000F80C9091F90CA091FA0CB091FB0C892B11
:104250008A2B8B2B09F0ABC3609147017091480109
:104260008BE296E00E945A8785E20E942F2B8AE01B
:104270000E942F2B9CC30E94FC65F82E87FD97C3DC
:1042800083E50E94BC810F2D0F2C000C110B88239D
:1042900069F10E94D068F801EE0FFF1FE75BFE4F47
:1042A00091838083000F111F000F111FF801EA5F37
:1042B000FE4F7F01BC01990F880B990B0E94B6ED50
:1042C0002AE037ED43E25CE30E9415EEF801E75780
:1042D000F54F20813181428153810E9415EED70133
:1042E0006D937D938D939C93139761C30E94338844
:1042F00085E40E942F2B80E38F0D0E942F2B000F4F
:10430000111FF801E75BFE4F608171818FE296E03B
:104310000E945A8785E20E942F2B8AE00E942F2B51
:1043200046C380E50E947381882309F440C360E09E
:1043300070E080E50E94D4688C016FEF7FEF83E529
:104340000E94D4687C010196039708F030C307FDF2
:104350002EC3802F0E94FDDF882339F00E947487CE
:1043600087E396E00E940A8722C30E94EF6DD02E59
:1043700060E0802F0E94A6D8BFEFEB16FB0629F065
:10438000E1E0EE16F10459F007C0802F0E9452D8E8
:1043900001E010E0892B29F000E010E002C001E00C
:1043A00010E08D2D0E9452D88017910709F4FFC2AA
:1043B0000E94402CF6CF80E50E947381882309F487
:1043C000F6C20E94D0688C01892B09F07DC083E57C
:1043D0000E947381882379F00E94D0688F3FFFEF9D
:1043E0009F0721F483E990E10AD7E1C2BC0183E988
:1043F00090E19FD7DCC20E94338860E070E086E4E1
:1044000096E00E945A878091951028E532E0690174
:10441000C81AD10887FDD394CC0CDD1CCC0CDD1C54
:104420000D2C000CEE08FF088091941028E830E075
:104430004901881A910887FD9394880C991C880C6F
:10444000991C092C000CAA08BB08809193108F3F7F
:10445000C1F090E0FC01EE0FFF1F8E0F9F1FFC01CB
:10446000E259FF4E21813281B3E0220F331FBA950A
:10447000E1F784E0369527958A95E1F72E5F3F4F67
:1044800002C020E030E02F5F3F4FC901330FAA0B7D
:10449000BB0B9C01AD01281939094A095B09A4EB42
:1044A000B0E00E942AF4A7019601281939094A09A7
:1044B0005B090E940EF4B9018BE19AE00E945A87D1
:1044C0008AE00E942F2B73C20E947487B80187E490
:1044D00096E00E945A878DEA92E00E940A8767C29E
:1044E0008AE50E94BC81811105C083E50E94BC81E0
:1044F0008823E9F10E94478120E030E040E050EC61
:104500000E94B0ED87FDC6C50E94478120E030E0E3
:1045100040E050E40E9432F618160CF4B6C50E9432
:104520004781209185132695269520FF20C0209154
:104530008D0730918E0740918F07509190070E9410
:1045400015EE0E94AEF52091F40C3091F50C260F7B
:10455000371F3093F50C2093F40C2091CB0730914A
:10456000CC07620F731F7093CC076093CB078091C9
:10457000FA0C87FD94C58091FB0C837009F08FC500
:104580000E94338814C260E085E40E942466811191
:1045900072C080E50E947381882351F00E94478198
:1045A0006093EE0F7093EF0F8093F00F9093F10FE5
:1045B00089E40E947381882381F00E9447812CEA5C
:1045C00035EC47E25EE30E9415EE6093F20F7093C4
:1045D000F30F8093F40F9093F50F84E40E9473819E
:1045E000882381F00E9447812CEA35EC47E25EE3A4
:1045F0000E9446F56093F60F7093F70F8093F80FC3
:104600009093F90F0E9433884091EE0F5091EF0F75
:104610006091F00F7091F10F86E596E00E94498756
:104620002CEA35EC47E25EE36091F20F7091F30FF4
:104630008091F40F9091F50F0E9446F5AB01BC01FB
:1046400082E596E00E9449872CEA35EC47E25EE37A
:104650006091F60F7091F70F8091F80F9091F90F1C
:104660000E9415EEAB01BC018EE496E00E944987E2
:104670008AE0F5D79CC10E9474878AE596E00E9483
:104680000A8795C183E50E947381182F882371F0F2
:104690000E9447810E94AEF570930B0160930A015E
:1046A00021E0672B09F020E02093BD0280E50E9405
:1046B0007381882359F020910A0130910B01232B3B
:1046C00011F00E942F668093BD0271C111116FC15C
:1046D0000E94338885E896E00E940A878091BD0297
:1046E000882319F089E396E102C08CE696E00E94E7
:1046F0000A8760910A0170910B0184E796E00E949D
:104700005A8780E796E00E940A8751C10E941EA93D
:104710004EC18091861381110C94C61681E00E94CF
:1047200032510C94C6160E942D6741C16FEF7FEF86
:1047300089E40E94D4688C016FEF7FEF8AE40E94C5
:10474000D4687C018AE50E94BC81811108C081E5A2
:104750000E94BC81D82E882309F4A7C401C0D12CA3
:10476000C02E81E0800F853008F050C0BE2C81E063
:104770008E0D853008F04AC0102F0E9447812B0112
:104780003C01A02E07FDA12C17FF02C0F3E0CF2EA5
:104790008E2DE7FCE12C87FF02C0E3E0BE2ECA1499
:1047A00090F1FE2C24E0A29E40011124BF1448F198
:1047B0000F2D10E0DD2071F0F401E00FF11FEE0F7E
:1047C000FF1FEE0FFF1FE556FB4E20813181428116
:1047D000538103C020E030E0A901080D191D000F2E
:1047E000111F000F111F05561B4EC301B2010E947D
:1047F000CFF4D8016D937D938D939C931397F3948D
:10480000D5CFA394CCCF0E941284D1C00E947487CC
:1048100083EA92E00E940A87CAC087E00E94D873A8
:104820008111C5C003EA17E1EEEBFDE0F9A3E8A3AF
:104830009E012F5F3F4F190196EDC92E97E1D92EAA
:104840007901C8010E942A64A8A1B9A18D909D9008
:10485000AD90BD90B9A3A8A3A50194010E94CEF488
:104860002B013C01F701608371838283938320E0F5
:1048700030E040EA51EC0E9432F687FD0AC020E0A9
:1048800030E040EA51E4C301B2010E94B0ED1816D5
:104890002CF4F601849118160CF40EC4D7018D90F7
:1048A0009D90AD90BD907D0120E030E040EA51EC5C
:1048B000C501B4010E9432F687FD09C420E030E052
:1048C00040EA51E4C501B4010E94B0ED18160CF0A5
:1048D0000CC4FDC30E94F8D46AC00E94D4D367C040
:1048E000209382140E948B5310928214882309F41F
:1048F0005EC00E94338884EF96E00E940A8757C00A
:1049000080911C1282FF53C0806480931C124FC0A0
:1049100081E080934F0A1092501460E083E50E947A
:10492000BD68811144C00E94CCB041C00E9457C8EC
:104930006D3371058105910520F087E197E00E94B4
:104940008BDF83E197E00E948BDF8FEF96E00E9480
:104950000A8789E49CE190938B0880938A0827C09A
:104960000E94C9C224C000911C1510911D150E94FF
:1049700088D96093840D7093850D8093860D9093F4
:10498000870D0023A1F00E94338884E568D6B80122
:104990007727072E000C880B990BC2D680E25FD6D2
:1049A0008AE596E00E940A8702C00E94C9C2FAA561
:1049B000F11102C00E94BCB02CA120931002BFC311
:1049C0000E94EF6D3091EE1339A780E00E94A18321
:1049D0000E9488D96093840D7093850D8093860D15
:1049E0009093870D0E94867781E080937B080E94D8
:1049F000B7D38AE50E947381F82E8823A1F081E065
:104A00000E94C573082F82E00E94C57311E08111D6
:104A100001C010E0011109C088E50E947381082FD0
:104A2000811103C0C0C110E0F7CF112309F4B1C157
:104A3000F112BDC13324339401E02224239482E592
:104A40000E94BC81882319F00E94478104C060E065
:104A500070E080EA90E46C8F7D8F8E8F9F8F20E0D6
:104A600030E0A9010E94B0ED882381F0011105C05A
:104A7000311003C0222009F47BC16091851362FBD1
:104A8000662760F9CE014C960E94D7C2002309F434
:104A9000CEC0332009F4C8C01092BE0D1092BF0DD5
:104AA0001092C00D1092C10D1092C20D1092C30D44
:104AB0001092C40D1092C50D0E94DCD2E6EDF7E114
:104AC00004918AEC97E10E942A644B015C018EEC10
:104AD00097E10E942A642B013C019B01AC01C501B6
:104AE000B4010E9432F618162CF4A5019401C301FA
:104AF000B20104C0A3019201C501B4010E9446F5B0
:104B000068A379A38AA39BA3E3EBF7E18591959131
:104B1000A591B4918DA39EA3AFA3B8A7EFEAF7E147
:104B2000C590D590E590F490A7019601BC01CD0108
:104B30000E9432F6181624F0CDA0DEA0EFA0F8A453
:104B400028A139A14AA15BA1CA01B9010E9415EEB1
:104B500020E030E040E85FE30E94CFF40E946BF673
:104B6000A70196010E9415EE69837A838B839C834B
:104B7000E7EDF7E114918091C60D9091C70DA091DA
:104B8000C80DB091C90D88A399A3AAA3BBA320E027
:104B900030E040EC5FE3C301B2010E9415EE6B010F
:104BA0007C01612F110F770B880B990B0E94B6EDDA
:104BB0009B01AC01C701B6010E9415EE2B013C011F
:104BC00020E030E040EC5FE3C501B4010E9415EE47
:104BD0006B017C01602F000F770B880B990B0E94F3
:104BE000B6ED9B01AC01C701B6010E9415EEDE01D6
:104BF00011966D01E8A0F9A00AA11BA1A3019201E1
:104C00000E94A5770E94C6D31092BE0D1092BF0DD0
:104C10001092C00D1092C10D1092C20D1092C30DD2
:104C20001092C40D1092C50D80E00E948672332050
:104C300019F081E00E948672222009F499C080E078
:104C40000E94958683E00E94D873811191C00E94D2
:104C5000DCD28091C60D9091C70DA091C80DB09186
:104C6000C90D88A399A3AAA3BBA320918713309150
:104C700088134091891350918A1360E070E08AEEA6
:104C800092E40E94CEF44B015C016093780A709329
:104C9000790A80937A0A90937B0A20918B13309142
:104CA0008C1340918D1350918E1360E070E08AEE6A
:104CB00092E40E94CEF42B013C0160937C0A709335
:104CC0007D0A80937E0A90937F0A20918F13309102
:104CD0009013409191135091921368A179A18AA1E8
:104CE0009BA10E94CEF46093800A7093810A809306
:104CF000820A9093830A27E137EB41ED58EBC30119
:104D0000B2010E9432F687FD56C027E030E04BE644
:104D100053E4C301B2010E94B0ED18160CF44BC06D
:104D200027E137EB41ED58EBC501B4010E9432F6A3
:104D300087FD41C027E030E04BE653E4C501B401F4
:104D40000E94B0ED1816BCF119821A821B821C82D7
:104D5000CE0101966C01E8A0F9A00AA11BA1A30154
:104D60009201C501B4010E94A57782E00E9486727B
:104D70000E94DCD280917A0880937B0889A50E94EA
:104D8000A1830E946D7783E0809367010E94DED249
:104D90000ECE11E089E50E947381382E811709F447
:104DA00047CE012F06C01123A9F3312E02C0312EA8
:104DB000012F2F2C44CE60E082E992E00E9407CBC5
:104DC0000E94338880E892E00E940A87D1CF0E9437
:104DD000E168EDCD10925114109310020E948FC221
:104DE000E6CD4ED50C948C1A88E50E947381811112
:104DF0005E9889E50E94738181115E988AE50E9420
:104E00007381882309F4D3CD1598D1CD0E943781C1
:104E1000AB01BC01409318125093191260931A12FF
:104E200070931B128AEF9FE00E94FD90C0CD8DE42D
:104E30000E94BC818823A9F00E94E865813039F086
:104E400020F0823049F462E003C060E001C061E01C
:104E5000802F0E94A6D805C08BE793E00E940A87A6
:104E6000A6CD83E50E94BC81882309F4A0CD0E94D1
:104E7000E865F82EB4E0EB1203C08093AC0297CD46
:104E800061E0802F0E94A6D86F2D802F0E9478D8D5
:104E90006F2D70E0802F0E94E2D889CD83E50E94BB
:104EA000BC81882359F00E9447810E94AEF5CB0156
:104EB0000E94144361E080E00E941D450E94FD5164
:104EC00076CD83E50E94BC81882309F470CD0E94D1
:104ED00047810E94AEF5633771055CF47093D60785
:104EE0006093D5070E94F74061E080E00E941D4575
:104EF0005ECD63E770E0F2CF0E94EF6D88E50E941F
:104F00007381882331F05E9A809185138E7F809320
:104F1000851389E50E947381882331F05E9A809120
:104F200085138D7F809385138AE50E947381882382
:104F300009F43DCD159A809185138B7F809385135D
:104F400036CD602F83E50E94BD68C5C883E50E9409
:104F5000BC81882391F00E9447816093A5077093DC
:104F6000A6078093A7079093A8076093AD07709357
:104F7000AE078093AF079093B00780E50E94BC8195
:104F8000882351F00E9447816093A5077093A6077C
:104F90008093A7079093A80782E50E94BC8188238D
:104FA00051F00E9447816093A9077093AA078093EC
:104FB000AB079093AC0784E50E94BC81882309F479
:104FC000F6CC0E9447816093AD077093AE07809343
:104FD000AF079093B007EBCC82E40E9473818823E3
:104FE00051F00E941A646093810770938207809346
:104FF00083079093840783E50E947381882351F08F
:105000000E9447816093B1077093B2078093B30702
:105010009093B40784E50E947381882351F00E9425
:1050200047816093B5077093B6078093B707909355
:10503000B8078AE40E947381882309F4B8CC0E94DF
:1050400047816B017C012AE037ED43E25CE30E947B
:1050500032F687FD13C02AE939E949E95EE3C70161
:10506000B6010E94B0ED18164CF0C0929002D0929A
:105070009102E0929202F092930299CC0E9474877E
:105080008CE096E00E940A8792CC60E070E080E0BD
:1050900090E447CA60E070E080E090EC42CA82E5AC
:1050A0000E94738181116CCA82CC0E94748788E946
:1050B00096E00E940A877BCCB7FAB094B7F8B09418
:1050C000D7018D929D92AD92BC921397E7CB0E942F
:1050D000748786ED96E00E940A8761E088EC96E08E
:1050E0000E9407CB0E94A6B462CC0C5F1F4FBFEF9B
:1050F000CB1ADB0AEFEAF7E1E017F10709F0A1CBE1
:105100008DE7E82E88E0F82E10E0F1018191919171
:10511000A191B1911F01F70181939193A193B19353
:105120007F01812F0E9466721F5F133071F70E940A
:10513000DED260E088EB96E00E9407CB38CCAA96DE
:10514000E2E10C94B3F45E9A809185138E7F809394
:1051500085135E9A809185138D7F80938513159AB0
:10516000809185138B7F809385135E9A0895CF93EA
:105170000E945070C82F80919A108093991080934C
:1051800098108093971084E6809396100E943C526A
:1051900080ED93E090936F0780936E07C1110E949A
:1051A0005D7081E080930E080E94EF6D8EEF0E948B
:1051B0004CD20E94DCD2CF9108951092AC02089597
:1051C00090911C1293FB882780F993FF06C081E021
:1051D0009091FD0F911101C080E008958091E51339
:1051E000823059F0EDDF882349F080911C1282FB58
:1051F000882780F991E08927089581E00895DC01EE
:10520000EC91F0E0CF01880F991FE80FF91FE259E8
:10521000FF4E80818F77808308958F929F92AF9207
:10522000BF92CF92DF92EF92FF920F93CF93DF93D3
:105230001F92CDB7DEB75C016B017A014901F50120
:10524000808191810E94C7F38983002311F0F601C8
:105250008083BE016F5F7F4FC4010E9462BBF50176
:1052600080819181019691838083FFEFCF1ADF0ABD
:1052700081E0E81AF10819F780E00F90DF91CF91F3
:105280000F91FF90EF90DF90CF90BF90AF909F90E5
:105290008F900895A1E0B0E0E0E5F9E20C949CF471
:1052A0007C0159018B016B01C40ED51E0C151D0527
:1052B00059F1F70180809180F80171908F01798216
:1052C000C4010E94C7F3781691F0672DC4010E94B3
:1052D000CFF3C4010E94C7F39981891741F00E945E
:1052E000338885E297E00E940A8781E00EC0BE0104
:1052F0006F5F7F4FC5010E9462BBF7018081918182
:10530000019691838083D2CF80E02196EDE00C94CA
:10531000B8F41092900082E0809391001092950072
:1053200010929400C19AE1E7F0E08081826080836E
:105330000895A0E0B0E0EFE9F9E20C949CF4FC01E0
:1053400090819C3008F0C1C06B017F01892F90E0F3
:10535000FC01EE0FFF1F8E0F9F1FFC01E259FF4E55
:10536000808161E08F770E94A6D8F70111821282B6
:1053700080816CE00E9449F4FCE08F9FB001112411
:1053800040E050E09B01240F351FF901EE0FFF1F95
:105390002E0F3F1FF901E259FF4E908197FD08C083
:1053A0004F5F5F4F4C30510569F7811101C0B1DF8C
:1053B000F7017080C72DD0E08E01000F111FF8019A
:1053C000EC0FFD1FE259FF4E80818068808377FCDF
:1053D0007CC0F0E2CF16F2E0DF060CF041C0F7012E
:1053E000828128E532E0281B310987FD3395220FA1
:1053F000331F220F331F032E000C440B550B8181EA
:1054000068E870E04B01881A910887FD9394880C36
:10541000991C880C991C092C000CAA08BB08D7FC05
:105420000BC0B601653B710514F064EB70E0072E0C
:10543000000C880B990B03C060E070E0CB012819C9
:1054400039094A095B090E94DDF324EB30E040E0B2
:1054500050E00E940EF4820E931EA41EB51E01C0E1
:105460004601FBE0F71558F1F701218188E890E04B
:10547000821B910927FD9395880F991F880F991F0B
:105480008816990684F0F701228188E592E0821B54
:10549000910927FD9395880F991F880F991F8816EA
:1054A00099060CF4C40102972FB7F894C00FD11FCE
:1054B000C259DF4E880F991F9A8389832FBF62E3F9
:1054C00070E080E090E00E945286CDB7DEB7EDE05C
:1054D0000C94B8F41F920F920FB60F9211240BB6D2
:1054E0000F922F933F934F935F936F937F938F937D
:1054F0009F93AF93BF93EF93FF938091140287FF25
:1055000005C010929500109294001BC020911402C7
:10551000022E000C330B8091921090E0281739076F
:1055200084F480911402082E000C990BFC01EE0FFC
:10553000FF1F8E0F9F1FFC01E259FF4E808187FDE8
:1055400015C0809114028F5F809314022091140281
:10555000022E000C330B8091921090E0281739072F
:10556000C4F4809114028C3064F113C08091140251
:10557000082E000C990BFC01EE0FFF1F8E0F9F1FD2
:10558000FC01E259FF4E808160E08F770E9478D85D
:10559000D8CF8091940090919500049680349C49D6
:1055A00018F480E49CE905C08091940090919500E6
:1055B000049690939900809398008FEF8093140243
:1055C0003BC0209194003091950080911402082EE8
:1055D000000C990BFC01EE0FFF1F8E0F9F1FFC01AB
:1055E000E259FF4E81819281820F931F909399001F
:1055F0008093980080911402082E000C990BFC01F6
:10560000EE0FFF1F8E0F9F1FFC01E259FF4E80819E
:1056100087FF12C080911402082E000C990BFC0128
:10562000EE0FFF1F8E0F9F1FFC01E259FF4E80817E
:1056300061E08F770E9478D8FF91EF91BF91AF9191
:105640009F918F917F916F915F914F913F912F919A
:105650000F900BBE0F900FBE0F901F90189590915A
:10566000C00095FFFCCF8093C60008958F929F9253
:10567000AF92BF92EF92FF920F931F93CF93DF935E
:10568000CDB7DEB7A0970FB6F894DEBF0FBECDBF83
:10569000611571058105910581F1E12C842E912C14
:1056A000A12CB12CFE2C01E010E00C0F1D1F0E0DE3
:1056B000111DE7FC1A95A50194010E94ECF3F80175
:1056C0006083CA01B901E394232B242B252B51F7C6
:1056D000FFEFFF16A1F0E1E0F0E0EC0FFD1FEF0D92
:1056E000F11DF7FCFA9580818A3010F097E301C034
:1056F00090E3890FB4DFFA94EBCF80E3B0DFA0969C
:105700000FB6F894DEBF0FBECDBFDF91CF911F91D2
:105710000F91FF90EF90BF90AF909F908F90089562
:10572000CF92DF92EF92FF926B017C0197FF0AC04C
:105730008DE295DFF094E094D094C094C11CD11C0C
:10574000E11CF11C4AE0C701B60190DFFF90EF9029
:10575000DF90CF9008958F929F92AF92BF92CF9299
:10576000DF92EF92FF92CF936B017C01B42E20E089
:1057700030E0A9010E94B0ED87FF06C08DE26FDF27
:10578000F7FAF094F7F8F094C0E060E070E080E0A1
:105790009FE3CB1541F02DEC3CEC4CEC5DE30E941B
:1057A00015EECF5FF6CF9B01AC01C701B6010E9499
:1057B000CFF46B017C010E94B3F54B015C014AE020
:1057C00055DFCC2379F1C501B4010E94B4ED9B01F2
:1057D000AC01C701B6010E94CEF46B017C018EE2E0
:1057E0003EDF20E030E040E251E4C701B6010E9414
:1057F00015EE4B015C010E94AEF56B01770FEE08D0
:10580000FF08C701B6018CDFC701B6010E94B6EDE3
:105810009B01AC01C501B4010E94CEF46B017C0177
:10582000C150F9F6CF91FF90EF90DF90CF90BF90ED
:10583000AF909F908F9008958DE011DF8AE00FCF99
:10584000CF93DF93EC018991882311F008DFFBCF20
:10585000F3DFDF91CF9108958091FC0C9091FD0CC6
:10586000981759F0E92FF0E0E450F34F82819F5FE1
:105870009F779093FD0C90E008958FEF9FEF089530
:10588000ABE0B0E0E6E4FCE20C9497F480914D0AC2
:10589000843008F0D9C180914D0A843008F000C1ED
:1058A0008091FC0C9091FD0C891B8F7709F4F8C056
:1058B000D3DF97FDF0CF8A3019F08D3009F0E7C0C3
:1058C0001092190280917E0D90917F0DFC01E65E91
:1058D000FD4F1082892B39F010927F0D10927E0DB2
:1058E0000AE112E003C00E949146D5CFF8018191F0
:1058F000803211F48F01FACF8E3409F06BC001159C
:10590000110509F467C067E078E0C8010E9430ED36
:105910007C01892B41F06EE470E0C80104960E947E
:10592000FCF6009709F4C8014AE050E060E070E03E
:1059300001960E949DEA4B015C018091800D90913F
:10594000810DA091820DB091830D0196A11DB11D15
:1059500088169906AA06BB0639F0E114F10421F471
:1059600060E084ED97E04AC06AE270E0C8010E94FE
:105970002BF79C01009709F1982F901BF12C99238C
:1059800039F09150F801E90FF11D8081F826F7CF29
:105990004AE050E060E070E0C90101960E949DEA93
:1059A000CF2CD12CE12CF12C6C157D058E059F059B
:1059B00041F060E085EB97E021C060E08BE897E084
:1059C0001DC08092800D9092810DA092820DB092A8
:1059D000830D17C080911C1280FF13C063E574E132
:1059E000C8010E9430ED009731F0DC0113968C91D4
:1059F00080538A3030F460E08BE897E00E94E7B093
:105A00004FC080914F0A8130E1F067E470E0C80137
:105A10000E94FCF60097A9F04AE050E060E070E0D8
:105A200001960E949DEA623071058105910548F456
:105A30008AE699E10E940A8760E080E699E10E9487
:105A400007CB66E877E0C8010E94F0EC892B21F4CF
:105A5000109229011092511461E877E0C8010E9468
:105A6000F0EC892B31F441E060E070E088E993E0EC
:105A70002FC16CE777E0C8010E94F0EC892B09F494
:105A800076DB61E08AE192E00E942AB104CF2EE742
:105A90003DE04AE152E069E172E00E9481B0FBCE54
:105AA00080911C1282FFD0C01A82198211E04091AD
:105AB00018125091191260911A1270911B12809154
:105AC000141290911512A0911612B0911712481746
:105AD00059076A077B0708F410E000E690E1F92E09
