:100000000C9471130C949B130C949B130C949B13E2
:100010000C949B130C949B130C949B130C949B13A8
:100020000C949B130C949B130C949B130C949B1398
:100030000C949B130C9432B00C949B130C949B1354
:100040000C949B130C9436AD0C94ADB80C949B138C
:100050000C94E1300C94D7300C949B130C949B13AC
:100060000C949B130C949B130C949B130C949B1358
:100070000C949B130C949B130C949B130C949B1348
:100080000C94EC2A0C949B130C949B138D574C5698
:100090008356C95783568356835683568356835651
:1000A0008356835683568356835683568356835688
:1000B0008356835683568356835683568356835678
:1000C0008356835683568356C35783568356835627
:1000D000835683568356835683569C57835683563E
:1000E0008356835683568356835683568356835648
:1000F000E05780564AA34DA340A344A364A364A33E
:1001000051A355A35BA35FA377A67CA681A68BA66C
:10011000B9A6B9A695A69DA6A5A6AFA6084AD73B9F
:100120003BCE016E84BCBFFDC12F3D6C74319ABDC6
:1001300056833DDA3D00C77F11BED9E4BB4C3E91EA
:100140006BAAAABE000000803F05A84CCDB2D44ED9
:10015000B93836A9020C50B9918688083CA6AAAADB
:100160002ABE000000803F004E414E494E4954597E
:10017000494E46CDCCCC3D0AD7233C17B7D1387772
:10018000CC2B329595E6241FB14F0A000020410088
:1001900000C84200401C4620BCBE4CCA1B0E5AAED2
:1001A000C59D7400407A10F35A00A0724E180900E1
:1001B00010A5D4E80000E87648170000E40B5402CC
:1001C0000000CA9A3B000000E1F505000080969807
:1001D00000000040420F000000A086010000001057
:1001E0002700000000E80300000000640000000099
:1001F000000A00000000000100000000002C76D87A
:1002000088DC674F0823DFC1DFAE59E1B1B796E55F
:10021000E3E453C63AE651997696E8E6C28426EBC3
:10022000898C9B62ED407C6FFCEFBC9C9F40F2BAD6
:10023000A56FA5F490055A2AF75C936B6CF9676D6E
:10024000C11BFCE0E40D47FEF520E6B500D0ED90C3
:100250002E0300943577050080841E080000204E90
:100260000A000000C80C333333330F986E12831129
:1002700041EF8D2114893BE65516CFFEE6DB18D100
:10028000844B381BF77C1D901DA4BBE424203284D2
:10029000725E228100C9F124ECA1E53D2720573A86
:1002A00000434F4D4D554E49434154494F4E004434
:1002B000525952554E004552524F525300494E46E4
:1002C0004F004543484F006F6B003F5A206F7574D5
:1002D000206F662072616E67652028003F59206F8D
:1002E0007574206F662072616E676520282D00206E
:1002F000746F20003F58206F7574206F6620726104
:100300006E676520282D0050726F6265204F66660B
:10031000736574205800454550524F4D204F4B0A8D
:10032000004F666673657473204170706C69656414
:10033000004572723A20546F6F206661722100543A
:100340006F6F206661722066726F6D2072656665E0
:1003500072656E636520706F696E740A004D343289
:100360003120696E636F72726563742070617261AF
:100370006D657465722075736167650A00646973E1
:100380000043290A0061626C656420286D696E2053
:1003900074656D702000436F6C64206578747275AD
:1003A00064657320617265200020643A0020693A18
:1003B0000020703A00496E76616C6964206578743B
:1003C00072756465720A0020536572766F20002092
:1003D000466C6F773A200046523A0020204D6178F3
:1003E0003A200020204D696E3A2000536F66742039
:1003F000656E6473746F70733A20003F4A206F75A6
:1004000074206F662072616E67652028302E30314F
:1004100020746F20302E33290A002054002052000F
:10042000416363656C65726174696F6E3A20500058
:100430004D31343520533C696E6465783E206F75CC
:1004400074206F662072616E67652028302D312917
:100450000A002F2F20004348414D4245525F54452A
:100460004D50455241545552450042414259535412
:10047000455050494E470041524353004D4F544957
:100480004F4E5F4D4F44455300544845524D414CEB
:100490005F50524F54454354494F4E004C4F4E47C6
:1004A0005F46494C454E414D45004155544F5245DC
:1004B000504F52545F53445F53544154555300536B
:1004C00044434152440050524F4D50545F53555095
:1004D000504F525400454D455247454E43595F5089
:1004E000415253455200434153455F4C494748549C
:1004F0005F4252494748544E45535300544F474773
:100500004C455F4C494748545300534F465457415C
:1005100052455F504F574552004255494C445F5039
:10052000455243454E54004C4556454C494E475F55
:1005300044415441005A5F50524F42450052554E7B
:100540004F5554004155544F4C4556454C00505260
:10055000494E545F4A4F420050524F475245535301
:10056000004155544F5245504F52545F54454D50E1
:1005700000564F4C554D45545249430042494E4157
:1005800052595F46494C455F5452414E534645527D
:100590000053455249414C5F584F4E5F584F4646B5
:1005A000004649524D574152455F4E414D453A4DE7
:1005B00061726C696E20322E302E362028417567AC
:1005C00020203720323032302030303A32323A3345
:1005D000342920534F555243455F434F44455F559F
:1005E000524C3A68747470733A2F2F676974687547
:1005F000622E636F6D2F4D61726C696E4669726D0C
:10060000776172652F4D61726C696E2050524F5444
:100610004F434F4C5F56455253494F4E3A312E305F
:10062000204D414348494E455F545950453A456E27
:100630006465722D332045585452554445525F43EA
:100640004F554E543A3120555549443A63656465D7
:10065000326132662D343161322D343734382D39E0
:100660006231322D6335356336326633363766662E
:100670000A00456E6465722D33204F46462E0042B7
:10068000656420436F6F6C696E672E2E2E00426585
:10069000642048656174696E672E2E2E004D3131DD
:1006A000332053004D3131322053687574646F77B5
:1006B0006E006F66660044454255473A0050726FBF
:1006C0007465637465642050696E0A00496E7661D2
:1006D0006C69642050696E204D6F64650A0025695D
:1006E0007920256964202569682025696D202569A0
:1006F00073005072696E742074696D653A20004E03
:100700006F204D6F76652E00436C69636B20746FAC
:1007100020526573756D652E2E2E004D6573682011
:10072000706F696E74206F7574206F662072616ED1
:1007300067650A005A2050726F62652050617374B9
:10074000204265640A005A2050726F626520506131
:1007500073742042656400536C6565702E2E2E0004
:10076000000000000000000000000000C202BD0206
:10077000B602AF02A1020000A0410000A0410000AB
:10078000804000006B4300006B4300007A43FFFF92
:10079000FF4572726F722077726974696E67207498
:1007A0006F20454550524F4D210A002121204B49D1
:1007B0004C4C2063617573656420627920746F6F9F
:1007C000206D75636820696E616374697665207455
:1007D000696D65202D2063757272656E7420636F7C
:1007E0006D6D616E643A20004D343130004D313111
:1007F00032004D313038004E6F20436865636B73B3
:10080000756D2077697468206C696E65206E756DF2
:100810006265722C204C617374204C696E653A20BD
:1008200000636865636B73756D206D69736D6174CA
:1008300063682C204C617374204C696E653A20000B
:100840004C696E65204E756D626572206973206E0D
:100850006F74204C617374204C696E65204E756D09
:100860006265722B312C204C617374204C696E656B
:100870003A20004D31313000627573793A20706151
:100880007573656420666F7220696E7075740A00F6
:10089000627573793A2070617573656420666F7252
:1008A00020757365720A00627573793A2070726FF1
:1008B00063657373696E670A000F150E1216170EC3
:1008C0001303021A1401000E0DFF180C040C19007A
:1008D0000120746F6F206C6F6E672065787472757D
:1008E00073696F6E2070726576656E7465640A0058
:1008F00020636F6C6420657874727573696F6E2005
:1009000070726576656E7465640A0020453A002051
:100910005A3A0020593A00DB0FC93F45BCDA3F8FF5
:10092000B30240FCF0274056946140FE4B9B40844C
:10093000A5D840E0231841346A5641E859974164EC
:10094000DBD5416E271742B4B75542CE1A9742C83D
:10095000AED542B5885A43D40684BFA65FA7BF74FC
:1009600043E0BF10B11AC01C2C58C0E8F697C0B8BD
:1009700049D6C04E4E17C124D355C1802497C1A07B
:10098000B5D5C1121A17C244AE55C2781797C26CBA
:10099000ACD5C267885AC354656D70657261747551
:1009A00072650041425300504C41004D61696E0038
:1009B000507265686561742024204265640050723D
:1009C0006568656174202420456E6400436F6F6C18
:1009D000646F776E0050726568656174202400460C
:1009E000616E205370656564004E6F7A7A6C6500A5
:1009F0004261627973746570205A00466C6F7700AB
:100A0000A709A30947322F47332062616420706130
:100A100072616D65746572730A00526573656E6408
:100A20003A2000452025530023646566696E6520E1
:100A300044454641554C545F004B6420004B6920AF
:100A4000004B702000504944204175746F74756EDE
:100A5000652066696E69736865642120507574202D
:100A6000746865206C617374204B702C204B692076
:100A7000616E64204B6420636F6E7374616E747377
:100A80002066726F6D2062656C6F7720696E746F7F
:100A900020436F6E66696775726174696F6E2E6848
:100AA0000A00504944204175746F74756E65206664
:100AB00061696C6564212074696D656F75740A00E5
:100AC0000A20436C617373696320504944200A0013
:100AD000204B643A2000204B693A2000204B703AAA
:100AE00020002054753A2000204B753A2000206DDC
:100AF00061783A2000206D696E3A200020643A2027
:100B00000020626961733A200050494420417574A5
:100B10006F74756E652073746172740A0050494475
:100B2000204175746F74756E65206661696C6564CB
:100B3000212054656D706572617475726520746FE3
:100B40006F20686967680A00504944204175746FD6
:100B500074756E6500504944204175746F74756EEC
:100B600065206661696C6564212042616420657856
:100B7000747275646572206E756D6265720A0045E7
:100B80006E636C6F737572650046696C2E204469E4
:100B9000612E004520696E206D6DC2B3004D33306B
:100BA000332055312045256920532569005049449B
:100BB000204175746F74756E65202A005049442D6C
:100BC00044202A005049442D49202A005049442DF0
:100BD00050202A0020082046616374002008204D20
:100BE0006178002008204D696E004F6666004F6EE8
:100BF000004175746F74656D70001FE02010201047
:100C000020101020102020102010303008400480C8
:100C100003001FE03FF03FF03FF01FE01FE03FF018
:100C20003FF03FF00FC0078003003FFFF038007037
:100C300030FC3020FC102078102030102C00D02EFA
:100C400031D02F7BD02F7BD02E31D02C00D0203034
:100C50001020781020FC1030FC303800703FFFF07E
:100C60003FFFF03800703186302387102787902FA0
:100C700087D02F03D020301020781020781020301B
:100C8000102F03D02F87D0278790238710318630ED
:100C90003800703FFFF01FFFF81FFFF804104002FC
:100CA0000820020820041040082080104100104154
:100CB000000820800410400000001FFFF81FFFF80C
:100CC00020202020202020004F46460A0046616454
:100CD00065204865696768742000426564204C653A
:100CE00076656C696E6720004661696C6564207486
:100CF0006F20656E61626C6520426564204C65768C
:100D0000656C696E670A00496E76616C6964206D76
:100D10006573682E0A0050726F62696E6720506FAB
:100D2000696E740025532025692F25690050726F64
:100D300062696E67206D65736820706F696E7420DC
:100D400000202844525952554E290047323920413B
:100D500075746F20426564204C6576656C696E67BA
:100D6000003F20284C2C522C462C4229206F7574B1
:100D7000206F6620626F756E64732E0A003F2856DE
:100D8000296572626F7365206C6576656C20696D8C
:100D9000706C61757369626C652028302D34292E62
:100DA0000A00426164205A2076616C75650A004E23
:100DB0006F2062696C696E65617220677269640A8E
:100DC00000204D393220580020496E76616C6964EC
:100DD00020657874727564657220004361703A0012
:100DE000454550524F4D2056657273696F6E2045D0
:100DF00072726F7200454550524F4D20496E6465C6
:100E000078204572726F7200454550524F4D204315
:100E10005243204572726F72003F0049676E6F72D5
:100E20006500496E697469616C697A652045455051
:100E3000524F4D0053657474696E67732053746F1D
:100E40007265640053657474696E67732053746FC0
:100E5000726564202800452073746570732F6D6D72
:100E6000005A2053746570732F6D6D0059205374B0
:100E70006570732F6D6D00582053746570732F6DFE
:100E80006D00416476616E636564205365747469B6
:100E90006E67730046696C616D656E740053572D03
:100EA0004D6F64650053746F77004465706C6F79A3
:100EB0000053656C662D5465737400526573746FCE
:100EC00072652044656661756C7473004C6F616473
:100ED0002053657474696E67730053746F72652074
:100EE00053657474696E677300424C546F75636820
:100EF0000050726F6265205A204F666673657400F9
:100F0000313235004245443A4550434F5320313049
:100F1000304B0052756E6177617920576174636858
:100F20003A204F4E004D61782054656D7000323785
:100F300035004D696E2054656D700045313A20458D
:100F400050434F53203130304B00436F6E6669671A
:100F500075726174696F6E005053550047656E6518
:100F60007269630050726F746F636F6C00312E3062
:100F7000004261756400313135323030004D656CAE
:100F80007A692028437265616C6974792900426925
:100F90006C696E656172204C6576656C696E670080
:100FA0004578747275646572730068747470733A0E
:100FB0002F2F6D61726C696E66772E6F72670045B8
:100FC0006E6465722D3300323032302D30372D3261
:100FD0003700322E302E3600546865726D69737496
:100FE0006F727300426F61726420496E666F0050C9
:100FF00072696E74657220496E666F0041626F752A
:1010000074205072696E746572004D6F74696F6EF2
:101010000054756E6500496E666F20536372656596
:101020006E004D38340044697361626C65205374FE
:1010300065707065727300473238004175746F20B7
:10104000486F6D650020436F756E7420583A0045F7
:101050003100626564002C2073797374656D2073B0
:10106000746F7070656421204865617465725F49B2
:10107000443A200048656174696E67204661696C76
:1010800065640048656174696E67206661696C65B6
:10109000640024F4D43050C38E20C2A24017828B47
:1010A0007011127A910D816CD90AA861E108C758B4
:1010B0006607615143061E4B5D05C145A7041A41F1
:1010C0001104093D9803713931034036DB02653361
:1010D0009102D4305402802E1D02632CEE01752A39
:1010E000C501B028A001102781018F2564012B24A0
:1010F0004B01E0223401AC211F018D200D01801F26
:10110000FC00841EED00971DDF00B81CD200E61B1A
:10111000C600201BBC00641AB200B219A8000A194C
:10112000A0006A189900D117910040178B00B516DE
:10113000840031167E00B31579003A157300C71488
:101140006F0058146A00EE136600881363002513BD
:101150005E00C7125B006C12570015125400C111DB
:10116000510070114F0021114B00D61049008D1015
:1011700047004610440002104200C00F4000800F9C
:101180003E00420F3C00060F3B00CB0E3800930E92
:1011900037005C0E3500270E3400F30D3200C10D10
:1011A0003100900D3000600D2E00320D2D00050D28
:1011B0002C00D90C2B00AE0C2900850C29005C0CEE
:1011C0002700350C27000E0C2600E80B2400C40B6A
:1011D0002400A00B23007D0B23005A0B2100390BA8
:1011E0002100180B2000F80A1F00D90A1E00BB0AB4
:1011F0001E009D0A1D00800A1D00630A1C00470A8C
:101200001B002C0A1B00110A1A00F7091A00DD093D
:101210001900C4091900AB091900920917007B09CC
:101220001800630917004C0916003609160020093A
:1012300016000A091500F5081500E0081400CC088E
:101240001400B8081400A4081400900813007D08C6
:1012500012006B08130058081200460812003408E8
:101260001100230811001208110001081100F007F5
:101270001000E0071000D0071000C0071000B007F2
:101280000F00A107100091070E0083070F007407DD
:101290000F0065070E0057070E0049070E003B07B9
:1012A0000D002E070E0020070D0013070D00060786
:1012B0000D00F9060C00ED060D00E0060C00D4064A
:1012C0000C00C8060C00BC060C00B0060C00A406FE
:1012D0000B0099060C008D060B0082060B007706AA
:1012E0000B006C060B0061060A0057060B004C064B
:1012F0000A0042060A0038060A002E060A002406E2
:101300000A001A060A001006090007060A00FD0571
:101310000900F4050900EB050900E2050900D905FB
:101320000900D0050900C7050900BE050900B5057B
:101330000800AD050800A50509009C0508009405F6
:1013400008008C050800840508007C050800740569
:1013500008006C050700650508005D0507005605D7
:1013600008004E050700470507004005080038053E
:101370000700310507002A050700230507001C05A3
:101380000600160507000F05070008050600020500
:101390000700FB040600F5040700EE040600E8045D
:1013A0000600E2040700DB040600D5040600CF04B3
:1013B0000600C9040600C3040600BD040600B70405
:1013C0000600B1040500AC040600A6040600A00453
:1013D00005009B04060095040500900406008A049D
:1013E000050085040500800406007A0405007504E4
:1013F0000500700405006B04050066040500610427
:1014000005005C04050057040500520405004D0466
:10141000050048040500430405003E0404003A04A6
:10142000050035040500300404002C0405002704E1
:101430000400230405001E0404001A04040016041A
:101440000500110404000D0404000904050004044F
:10145000040000040400FC030400F8030400F40387
:101460000400F0030400EC030400E8030400E403B8
:101470000400E0030400DC030400D8030400D403E8
:101480000400D0030400CC030400C8030300C50318
:10149000030024F404D9201BC40C5C0E9804C40976
:1014A0005F0265077101F405F900FB04B30048040D
:1014B0008700C10369005803550003034500BE02BD
:1014C0003A008402310053022A0029022500040256
:1014D0002000E4011C00C8011900AF0117009801A9
:1014E000140084011300710110006101100051010A
:1014F0000E0043010D0036010B002B010B002001F3
:101500000B00150109000C01090003010800FB0094
:101510000800F3000800EB000700E4000600DE000E
:101520000600D8000600D2000600CC000500C70067
:101530000500C2000500BD000400B9000400B500AC
:101540000400B1000400AD000400A9000400A500DF
:101550000300A20003009F0004009B00030098000A
:1015600003009500020093000300900003008D002B
:1015700002008B0003008800020086000200840045
:101580000300810002007F0002007D0002007B005A
:10159000020079000200770001007600020074006A
:1015A000020072000100710002006F0002006D0075
:1015B00001006C0002006A0001006900020067007F
:1015C0000100660001006500010064000200620085
:1015D000010061000100600001005F0002005D0089
:1015E00001005C0001005B0001005A00010059008D
:1015F000010058000100570001005600010055008D
:10160000010054000100530000005300010052008B
:10161000010051000100500001004F0001004E0088
:1016200000004E0001004D0001004C0001004B0085
:1016300000004B0001004A00010049000100480081
:10164000000048000100470001004600000046007D
:101650000100450000004500010044000100430076
:101660000000430001004200000042000100410070
:10167000000041000100400001003F0000003F0069
:1016800001003E0000003E0001003D0000003D0062
:1016900001003C0000003C0000003C0001003B0059
:1016A00000003B0001003A0000003A000100390050
:1016B0000000390001003800000038000000380048
:1016C000010037000000370001003600000036003E
:1016D0000000360001003500000035000000350034
:1016E0000100340000003400000034000100330029
:1016F000000033000000330001003200000032001F
:101700000000320001003100000031000000310013
:1017100001003000000030000000300001002F0008
:1017200000002F0000002F0000002F0001002E00FD
:1017300000002E0000002E0001002D0000002D00F2
:1017400000002D0000002D0001002C0000002C00E6
:1017500000002C0000002C0001002B0000002B00DA
:1017600000002B0000002B0001002A0000002A00CE
:1017700000002A0000002A000100290000002900C2
:1017800000002900000029000000290001002800B5
:1017900000002800000028000000280000002800A9
:1017A000010027000000270000002700000027009C
:1017B000000027000100260000002600000026008F
:1017C0000000260000002600010025000000250082
:1017D0000000250000002500000025000000250075
:1017E0000100240000002400000024000000240068
:1017F000000024000100230000002300000023005B
:10180000000023000000230000002300000023004C
:10181000010022000000220000002200000022003F
:101820000000220000002200010021000000210031
:101830000000210000002100000021000000210024
:101840000000210001002000000020000000200016
:101850000000200000002000000020000000200008
:101860000000200001001F0000001F0000001F00FA
:1018700000001F0000001F0000001F0000001F00EC
:1018800001001E0000001E0000001E0000001E00DF
:101890000000043700001E290000511B00005810F2
:1018A000000010090000CC04000078020000410193
:1018B0000000506C6561736520526573657400505B
:1018C00052494E5445522048414C544544002553FA
:1018D0003A202553004B494C4C45442E2000507271
:1018E000696E7465722068616C7465642E206B6922
:1018F0006C6C28292063616C6C6564210A00656347
:10190000686F3A004572726F723A0042696C696E94
:10191000656172204C6576656C696E6720477269F7
:10192000643A0A0053756264697669646564207775
:10193000697468204341544D554C4C20524F4D2002
:101940004C6576656C696E6720477269643A0A0077
:1019500053544F505045442E20005072696E7465A8
:10196000722073746F707065642064756520746F85
:10197000206572726F72732E2046697820746865D4
:10198000206572726F7220616E6420757365204DE0
:1019900039393920746F20726573746172742E2026
:1019A0002854656D70657261747572652069732065
:1019B00072657365742E20536574206974206166A6
:1019C0007465722072657374617274696E67290A36
:1019D0000021212053544F502063616C6C656420BA
:1019E00062656361757365206F6620424C546F7544
:1019F0006368206572726F72202D20726573746146
:101A000072742077697468204D3939390A000000F2
:101A10002100240027002A000000220025002800C1
:101A20002B000000200023002600290002020202F1
:101A30000202020204040404040404040303030372
:101A40000303030301010101010101010102040873
:101A50001020408001020408102040800102040888
:101A60001020408080402010080402010000000186
:101A70000200090A0000000004030807000000003B
:101A80000000000000000000000000004D6F7665BF
:101A90002025736D6D004D6F766520302E316D6D94
:101AA000004D6F766520316D6D004D6F766520318C
:101AB000306D6D004D6F7665204178697300486F19
:101AC00074656E6420746F6F20636F6C640045787A
:101AD000747275646572004D6F7665205A004D6FA3
:101AE00076652059004D6F7665205800202D2049DD
:101AF0006E76616C696420657874727564657220B5
:101B00006E756D62657220210A00544845524D4140
:101B10004C2052554E4157415900546865726D61D1
:101B20006C2052756E61776179004572723A204D72
:101B3000415854454D50004D415854454D50207426
:101B40007269676765726564004572723A204D4933
:101B50004E54454D50004D494E54454D50207472E1
:101B60006967676572656400202F002042403A0073
:101B700020403A005761726E696E673A20486F6D77
:101B8000696E672042756D702044697669736F7263
:101B9000203C20310A000202040000A0400000A006
:101BA000400000004070012C0190012701B001228B
:101BB00001C0011D01F00118011002130130020ED5
:101BC000016002090190020401C002FF000003FA53
:101BD000004003F5008003F000D003EB002004E692
:101BE000007004E100E004DC004005D700C005D22D
:101BF000004006CD00D006C8008007C3003008BEF4
:101C000000F008B900C009B400B00AAF00B00BAAD8
:101C100000D00CA500000EA000500F9B00C0109635
:101C2000005012910000148C00C0158700B017827C
:101C300000B0197D00D01B7800001E730040206E9C
:101C40000090226900F024640040275F0090295A28
:101C500000E02B5500102E500020304B0010324673
:101C600000E033410090353C0010373700703832C7
:101C700000A0392D00B03A2800A03B2300603C1E94
:101C800000103D1900903D1400103E0F00703E0AF8
:101C900000C03E0500003F0000403FFBFF803FF6D4
:101CA000FFC03FF1FF2020506C616E6E657242757F
:101CB0006666657242797465733A200020467265E3
:101CC00065204D656D6F72793A2000436F6D7069C4
:101CD0006C65643A204175672020372032303230FD
:101CE0000A00204C61737420557064617465643A15
:101CF00020323032302D30372D3237207C20417564
:101D000074686F723A20287468697369736B6569C7
:101D10007468622C20456E6465722D33290A003286
:101D20002E302E360A004D61726C696E0020536FA2
:101D30006674776172652052657365740A00205776
:101D400061746368646F672052657365740A00206C
:101D500042726F776E206F75742052657365740AD6
:101D6000002045787465726E616C205265736574ED
:101D70000A00506F77657255700A00456E6473747F
:101D80006F70730025532025632025632025632071
:101D9000256300656E6473746F7073206869743AAC
:101DA00020004572723A207574663820666F6E7432
:101DB000206E6F7420696E697469616C697A6564FC
:101DC0002E00000C0F00FE07022603BC017FFE0858
:101DD000FE08FE05080806000040F0C888889878CC
:101DE00010050808060000C0F88888888888F8056B
:101DF00005050600012030F830200508080600001F
:101E00002070F820202020E00509090600FF20703E
:101E1000A8A8B888887020050606060001E08CEAAC
:101E20008C8A0A0509090600FFF8A888888888882E
:101E3000A8F8050A0A0600FE205050505088A8A8AD
:101E4000887003030306000340A040FFFFFFFFFF6D
:101E5000FFFFFFFFFFFFFFFFFFFFFFFFFFFFFFFF92
:101E6000FF0000000605FF010707060200808080D2
:101E700080800080030303060105A0A0A0050606DC
:101E800006000050F85050F8500509090600FF20E0
:101E900070A8A07028A87020050707060000C8C811
:101EA000102040989805070706000040A0A040A811
:101EB000906801030306020580808003090906017A
:101EC000FF2040408080804040200309090601FF38
:101ED0008040402020204040800507070600002069
:101EE000A8702070A8200505050600012020F82014
:101EF000200203030601FFC0408005010106000324
:101F0000F8020202060100C0C0050707060000082B
:101F1000101020404080050707060000708898A830
:101F2000C8887003070706010040C040404040E0F9
:101F3000050707060000708808102040F80507070D
:101F4000060000F808103008887005070706000032
:101F500010305090F81010050707060000F880F0C8
:101F600008088870050707060000304080F0888860
:101F700070050707060000F808101020202005074C
:101F800007060000708888708888700507070600BB
:101F90000070888878081060020505060100C0C03E
:101FA00000C0C00206060601FFC0C000C04080039A
:101FB00005050601012040804020050303060002BC
:101FC000F800F80305050601018040204080050760
:101FD0000706000070881020200020050707060073
:101FE000007088B8A8B880700507070600007088E0
:101FF00088F8888888050707060000F04848704878
:1020000048F005070706000070888080808870050A
:102010000707060000F04848484848F0050707064B
:102020000000F88080F08080F8050707060000F8BF
:102030008080F0808080050707060000708880801F
:10204000988870050707060000888888F8888888BF
:10205000030707060100E04040404040E005070755
:1020600006000038101010109060050707060000E9
:102070008890A0C0A0908805070706000080808097
:10208000808080F805070706000088D8A88888881F
:10209000880507070600008888C8A898888805076B
:1020A0000706000070888888888870050707060082
:1020B00000F08888F080808005070706000070889F
:1020C0008888A89068050707060000F08888F0A0B7
:1020D00090880507070600007088807008887005E2
:1020E0000707060000F8202020202020050707060B
:1020F000000088888888888870050707060000889F
:10210000888888505020050707060000888888883E
:10211000A8A8500507070600008888502050888826
:1021200005070706000088885020202020050707A3
:10213000060000F80810204080F80309090601FF96
:10214000E080808080808080E005070706000080B6
:102150004040201010080309090601FFE02020205C
:1021600020202020E00503030600052050880501FB
:10217000010600FEF8030303060105804020050563
:1021800005060000700878887805070706000080BB
:1021900080F0888888F0050505060000708080883A
:1021A0007005070706000008087888888878050504
:1021B000050600007088F0807005070706000030F3
:1021C0004840E04040400507070600FE70888888C8
:1021D0007808700507070600008080F088888888E6
:1021E0000307070601004000C0404040E004090921
:1021F0000601FE1000301010101090600507070651
:10220000000080808890E09088030707060100C0E6
:102210004040404040E0050505060000D0A8A8A8C1
:10222000A8050505060000B0C888888805050506CC
:10223000000070888888700507070600FEF088880F
:1022400088F080800507070600FE7888888878086F
:1022500008050505060000B0C88080800505050654
:10226000000078807008F00507070600002020F8BD
:102270002020201805050506000088888898680534
:102280000505060000888888502005050506000021
:102290008888A8A8500505050600008850205088A9
:1022A0000507070600FE8888885020408005050540
:1022B000060000F8102040F80309090601FF20403D
:1022C000404080404040200109090602FF80808094
:1022D0008080808080800309090601FF80404040A3
:1022E000204040408005030306000248A890FF6F8D
:1022F00070656E00545249474745524544007A5F25
:102300006D696E00795F6D696E00785F6D696E0052
:102310005265706F7274696E6720656E6473746F56
:1023200070207374617475730A00486F6D652025A1
:102330007325732573204669727374002062797463
:1023400065733B2063726320004E6F2045455052F9
:102350004F4D2E0A00454550524F4D206461746127
:1023600073697A65206572726F722E0A0020737429
:102370006F7265642073657474696E67732072652B
:1023800074726965766564202800202863616C6337
:10239000756C6174656429210A0020213D20004587
:1023A0004550524F4D20435243206D69736D617407
:1023B0006368202D202873746F72656429200020C3
:1023C00053697A653A2000496E6465783A200020A6
:1023D0004D61726C696E3D563831290A0045455091
:1023E000524F4D2076657273696F6E206D69736D03
:1023F000617463682028454550524F4D3D00486147
:102400007264636F6465642044656661756C7420F2
:1024100053657474696E6773204C6F616465640AF8
:10242000003B200020204D3835312058005A2D50D7
:10243000726F6265204F66667365740020204D33AD
:1024400030312050005049442073657474696E67C0
:10245000733A0020460020480020204D31343520BA
:1024600053004D6174657269616C206865617475B3
:102470007020706172616D65746572733A0020201E
:10248000473239205720490020204D343230205324
:10249000004175746F20426564204C6576656C69F7
:1024A0006E673A0020204D323036205800486F6D5C
:1024B00065206F66667365743A00204A0020204DDF
:1024C000323035204200416476616E6365643A20A3
:1024D000423C6D696E5F7365676D656E745F7469AC
:1024E0006D655F75733E20533C6D696E5F66656513
:1024F00064726174653E20543C6D696E5F747261F4
:1025000076656C5F66656564726174653E204A3C01
:102510006A756E635F6465763E0020204D3230340C
:10252000205000416363656C65726174696F6E2051
:1025300028756E6974732F7332293A20503C70727B
:10254000696E745F616363656C3E20523C726574B2
:10255000726163745F616363656C3E20543C7472A6
:102560006176656C5F616363656C3E0020204D326F
:1025700030312058004D6178696D756D204163637D
:10258000656C65726174696F6E2028756E6974730D
:102590002F7332293A0020450020204D323033205D
:1025A00058004D6178696D756D206665656472616E
:1025B0007465732028756E6974732F73293A0053FC
:1025C000746570732070657220756E69743A0020AE
:1025D000440020204D323030205300204469736184
:1025E000626C65640A0046696C616D656E74207387
:1025F000657474696E67733A0020204D3134392058
:1026000043203B20556E69747320696E2043656CCE
:10261000736975730A0020286D6D290020204732E8
:1026200031202020203B20556E69747320696E2074
:102630006D6D00486F6D696E67204661696C6564F9
:10264000000000FA430000FA430000A0400000C868
:10265000410000A0420000A0420000C8430000BAB0
:1026600042F4010000F4010000640000008813003F
:1026700000205A3A200020593A2000426564205830
:102680003A20005072696E74205061757365640061
:1026900050726F62696E67204661696C65640A00FA
:1026A00050726F62696E67204661696C65640022D2
:1026B0000A00556E6B6E6F776E20636F6D6D616E85
:1026C000643A202200456E6465722D3320526561A4
:1026D00064792E005072696E74696E672E2E2E001A
:1026E0007EDB11241FBECFEFD0E4DEBFCDBF12E0F2
:1026F000A0E0B1E0EAE5F6ED01E00BBF02C0079013
:102700000D92A030B107D9F720E1A0E0B2E001C0FE
:102710001D92A136B207E1F713E1C1E7D3E104C08E
:102720002197FE010E94B7E7C037D107C9F70E9481
:102730008FD60C942BEB0C9400002F923F924F926B
:102740005F926F927F928F929F92AF92BF92CF9241
:10275000DF92EF92FF920F931F93CF93DF93CDB74A
:10276000DEB7E3970FB6F894DEBF0FBECDBF209162
:1027700018032AA781E080931803809117038D34F2
:1027800009F4F0C2843511F40C94A322873411F0BB
:102790000C94C82220911503309116032C31310579
:1027A00009F489C094F42430310534F42230310521
:1027B000B4F537FF28C0D2C224303105F1F12531FC
:1027C000310511F40C94CA22C9C22A32310509F428
:1027D0009EC14CF42D31310509F47DC02E313105F7
:1027E00009F498C0BBC22B35310509F40DC12C3555
:1027F000310509F40EC12A35310509F0AFC2109236
:1028000014030C94CA2280911303813011F00C94AC
:10281000CA220E946B6E0E94EABE0C94CA2280916A
:102820001303813011F00C94CA222230310509F0D3
:1028300080E00E94BC500C94CA2280E50E94A49BB8
:10284000882329F00E945A6F6B017C0103C0C12CC0
:10285000D12C760183E50E94A49B882361F00E941D
:10286000249B20E030E04AE754E40E9430E10E94DB
:1028700046E96B017C010E9446B28091BE02811143
:1028800005C060E087E597E00E94BD7B0E94A1B88B
:10289000C60ED71EE81EF91E0E94A1B8DC01CB01AE
:1028A0008C199D09AE09BF09B7FD02C00C94CA225C
:1028B0000E94DD2CF1CF8091BD028770873011F02E
:1028C0000C94DD2260E08FE40E94627381110C940D
:1028D000CA220C94DD220E94A1B86093B9027093C1
:1028E000BA028093BB029093BC0287E00E94F3BDC2
:1028F00081110C94CA2280915610882311F40C94F3
:10290000EF2460E08FE40E94627381110C94CA226C
:102910000C94EF2420913E1030913F1040914010D4
:10292000509141106091720E7091730E8091740EEF
:102930009091750E0E94D3E7AB01BC0188E50E941F
:10294000DE4869837A838B839C8320914210309187
:10295000431040914410509145106091760E709153
:10296000770E8091780E9091790E0E94D3E7AB019B
:10297000BC0189E50E94DE486D837E838F83988742
:10298000BE016B5F7F4FCE0101960E94796F882355
:1029900011F40C94CA2280E00E94A09D0E94BFC145
:1029A00061E085E40E94627321E0482FBE016B5F05
:1029B0007F4FCE0101960E94E7D26B017C019B0103
:1029C000AC010E94C5EA811119C049815A816B810D
:1029D0007C818BE796E20E94AFA14D815E816F8181
:1029E000788586E796E20E94AFA1B701A60181E74C
:1029F00096E20E94AFA18AE00E94B12B0E94A6C17C
:102A00000E9450C30C94CA228FE0809314030C944C
:102A1000CA2293E7292E91E0392E2BE9E22E22E0FB
:102A2000F22EA2E7BEE0BB8FAA8F3CE8C32E33E0B4
:102A3000D32E00E010E0F10181911F010E94A49BC0
:102A4000882309F44AC00E94249B2B013C011330C7
:102A500049F0D6012D913D914D915C910E94D2E7B4
:102A60002B013C01EA8DFB8D208131814281538114
:102A7000C301B2010E94D2E74B015C012DEB37E3A9
:102A800046E855EB0E9433EA87FD0AC02DEB37E399
:102A900046E855E3C501B4010E94CAE01816ECF4FB
:102AA000133051F440927E0E50927F0E6092800E51
:102AB0007092810E01E011C0A5019401D7016D91C2
:102AC0007D918D919C910E94D3E7F7016083718382
:102AD00082839383812F0E94ADB61F5FF4E0EF0ED7
:102AE000F11C2A8D3B8D2C5F3F4F3B8F2A8F34E0AA
:102AF000C30ED11C143009F09ECF002321F08EE7C5
:102B00009EE00E9424B50E9450C30C94CA2280917A
:102B10001303813011F00C94CA2289E40E94A49B13
:102B2000E82E882321F00E947773082F01C000E06F
:102B30008AE40E94A49BF82E882321F00E947773D8
:102B4000182F01C010E0EE2011F0043020F4FF2017
:102B500041F0143030F08BE197E00E947DA10C949D
:102B6000CA2280E1E2E7FEE0A8EAB2E001900D921D
:102B70008A95E1F7EE2019F1602F000F770B880B93
:102B8000990B0E94D1E020918B0230918C024091F0
:102B90008D0250918E020E9430E12091930230917B
:102BA000940240919502509196020E94D3E760935F
:102BB000A8027093A9028093AA029093AB02FF200F
:102BC00019F1612F110F770B880B990B0E94D1E03F
:102BD00020918F0230919002409191025091920287
:102BE0000E9430E120919702309198024091990221
:102BF00050919A020E94D3E76093AC027093AD02A9
:102C00008093AE029093AF0260E080E50E94627311
:102C10008823C1F1EE20D1F020913E1030913F1079
:102C200040914010509141106091A8027091A9020A
:102C30008091AA029091AB020E94D2E76093A80211
:102C40007093A9028093AA029093AB02FF20D1F067
:102C50002091421030914310409144105091451002
:102C60006091AC027091AD028091AE029091AF0282
:102C70000E94D2E76093AC027093AD028093AE02E3
:102C80009093AF0240E050E0BA0186E40E94DE4833
:102C90006B017C0120E030E0A9010E9433EA1816A4
:102CA0005CF420E030E040E752E4C701B6010E9446
:102CB000CDE86B017C0103C0C12CD12C7601809042
:102CC0006F0190907001A0907101B090720120E0AE
:102CD00030E0A901C701B6010E94CAE0882341F093
:102CE000C0926F01D0927001E0927101F092720176
:102CF000009121011091220184E690E0909322013D
:102D000080932101C0902401D0902501E0902601FC
:102D1000F090270180E090E0A0E8BFE380932401D9
:102D200090932501A0932601B09327010E94EABE4B
:102D300080926F0190927001A0927101B092720125
:102D40001093220100932101C0922401D092250109
:102D5000E0922601F09227010C94CA220E946AD2C6
:102D60000C94CA2280911503909116038C3891051A
:102D700009F43CC40CF010C18836910509F41BC35A
:102D80000CF044C08C34910509F400C3FCF482318A
:102D9000910509F4B2C46CF497FF02C00C94A02210
:102DA000823091050CF4B0C1419709F40AC20C9429
:102DB000A0228A32910509F4CCC28B34910509F422
:102DC000E1C24F9711F00C94A02218C283359105EF
:102DD00009F48CC47CF48135910509F46CC40CF0C1
:102DE0007EC48D34910511F00C94A0220E9491793B
:102DF0000C94CA228535910509F4B6C40CF47DC43F
:102E00008C35910509F4D3C40C94A0228037910528
:102E100009F4B9C3B4F48C36910509F4AEC33CF49B
:102E20008A36910509F402C30CF4ECC23DC38E3618
:102E3000910509F444C30CF055C30E94E64C0C9470
:102E4000CA228537910509F443C50CF08EC082373C
:102E5000910509F436C50CF4A1C38337910511F02F
:102E60000C94A02281EA95E00E947DA160E081E9B6
:102E700095E00E94516E60E08CE795E00E94516EF3
:102E800061E08DE29EE00E94516E61E081E795E095
:102E90000E94516E61E081E695E00E94516E60E013
:102EA00088E595E00E94516E61E08EE495E00E9415
:102EB000516E61E084E495E00E94516E60E08DE324
:102EC00095E00E94516E61E085E395E00E94516EAD
:102ED00061E087E295E00E94516E60E089E195E053
:102EE0000E94516E60E08AE095E00E94516E60E0C1
:102EF0008CEF94E00E94516E60E086EE94E00E94B8
:102F0000516E60E085ED94E00E94516E60E086ECC9
:102F100094E00E94516E60E08FEB94E00E94516E4D
:102F200060E08AEA94E00E94516E60E08CE994E0EF
:102F30000E94516E61E089E894E00E94516E60E069
:102F40008CE794E00E94516E61E087E794E00E9474
:102F5000516E61E08AE694E00E94516E60E086E581
:102F600094E00E94516E0C94CA228737910509F4AF
:102F7000FAC40CF4BEC48837910509F4F7C4893744
:102F8000910511F00C94A0221092B8021092A702A1
:102F90000E9432C40C94CA228D3241E0940711F48D
:102FA0000C9497200CF04DC08D3C910509F41AC685
:102FB000FCF4883C910509F455C574F48B399105EE
:102FC00009F453C38E3B910509F42FC38139910550
:102FD00011F00C94A022D2C48B3C910509F4AFC52A
:102FE0000CF0CCC5893C910509F483C50C94A02252
:102FF0008D3D910509F410C79CF4833D910509F4BA
:103000001EC68C3D910509F4E0C68E3C910511F079
:103010000C94A0224BE4E42E42E0F42E10E0FDC517
:103020008831A1E09A0709F498C78232B1E09B0782
:1030300011F40C944420823E910511F00C94A022CE
:1030400041C7853AE1E09E0711F40C946B217CF5B1
:10305000813921E0920711F40C945E2194F48F32AF
:1030600041E0940711F40C945B2114F40C941721A3
:103070008039914011F00C94A0220E9446B20C9429
:10308000CA228A39B1E09B0709F484C2843AE1E09C
:103090009E0711F40C9468218239914011F00C9430
:1030A000A0220E94706F0E9450C30C94CA22863FD7
:1030B00021E0920711F40C94442284F4843F41E00F
:1030C000940711F40C943E2214F00C9441228C3A93
:1030D000914011F40C94E1210C94A022883FB1E0BE
:1030E0009B0711F40C94502214F40C94472283355E
:1030F000F3E09F0711F40C946122873E934011F492
:103100000C9492220C94A02280E50E94A49B882318
:1031100029F00E945A6F6B017C0103C0C12CD12C95
:10312000760183E50E94A49B882361F00E94249B82
:1031300020E030E04AE754E40E9430E10E9446E992
:103140006B017C010E9446B28091890290918A02B3
:10315000009721F061E00E942B8105C060E088E0CB
:1031600097E00E94BD7B1091180383E080931803C1
:1031700081E080938802C114D104E104F10431F0AC
:103180000E94A1B8C60ED71EE81EF91E80918802C3
:10319000882311F40C94F224C114D104E104F10445
:1031A00011F40C94F9240E94A1B8DC01CB018C1914
:1031B0009D09AE09BF09B7FF02C00C94F9240C9415
:1031C000F2248091840284FF02C00C94FD2480913B
:1031D000860287FF02C00C94FD24809187028370D1
:1031E00011F00C94FD2460E08FEF96E00E94BD7B0F
:1031F0005E985E9815985E980C94CA220E941E797B
:103200007B018C0120E831E541E050E00E9420E79D
:10321000C9016DE671E00E948FE74B015C01C801B6
:10322000B70120E13EE040E050E00E9420E7CA0103
:10323000B90128E130E040E050E00E9420E7762E1E
:10324000672EC62ED72E8CE3282E312C412C512CE4
:10325000C801B701A20191010E9420E7F62EE72ED6
:10326000CA01B901A20191010E9420E7CB018E01A0
:103270000F5F1F4F8114910499F0EF92FF927F939B
:103280006F936F927F92BF92AF929F928F928EEDCB
:1032900096E09F938F931F930F930E9462E013C059
:1032A000A114B104B1F0EF92FF927F936F936F92EC
:1032B0007F92BF92AF9282EE96E09F938F931F937F
:1032C0000F930E9462E00FB6F894DEBF0FBECDBF31
:1032D00030C0CD2879F0EF92FF927F936F936F9279
:1032E0007F9286EE96E09F938F931F930F930E9499
:1032F00062E0E9CF892B69F0EF92FF927F936F93A1
:103300008AEE96E09F938F931F930F930E9462E043
:10331000DACFEF92FF928EEE96E09F938F931F93FA
:103320000F930E9462E00F900F900F900F900F90FC
:103330000F9060E0C8010E942B810E94B0A2B801EA
:1033400082EF96E00E94CDA18AE00E94B12B0C94FE
:10335000CA226FEF7FEF80E50E947B738C0197FF9D
:1033600002C00C94CA22E82E60E089E40E946273D5
:1033700081110C940F25802F0E94F6D48111BFC5B6
:103380000C940F250E946D790C94CA2280914D10E7
:10339000813011F00C94CA2282E080934D100E947B
:1033A000A1B860938002709381028093820290930F
:1033B00083020C94CA228091780883FF02C00C9487
:1033C000CA220E943C7187FF02C00C94CA2289E481
:1033D0000E94A49B882311F40C9446250E94287116
:1033E00090E01816190614F481E090E026E0289F7A
:1033F000F001299FF00D1124EC58FD4F808191813F
:103400000C9450250E943C71182F87FD0AC087EC50
:1034100092E00E947DA1812F0E9453AB8AE00E941E
:10342000B12B2AA5209318030C94FC2860E080E5BA
:103430000E94657181110C94CA2281E40E945B9BF9
:10344000882329F06091B403062F10E002C00FEF2B
:1034500010E089E40E94A49B882399F00E942871BF
:1034600090E01816190614F481E090E026E0289FF9
:10347000F001299FF00D1124EC58FD4F04811581B6
:1034800008C083E50E94A49B882319F00E94149B26
:103490008B01B8010F3F110519F010F06FEF70E0CC
:1034A0006093B4030C94CA2260E080E50E946571C9
:1034B00081110C94CA221092B4030C94CA228EE497
:1034C0000E94A49B882311F40C94CA220E94149B8E
:1034D00060937002709371028093720290937302F2
:1034E0000C94CA2283E50E945B9B882331F060E044
:1034F00083E50E946571809378080E94B0A286EBF4
:1035000096E00E947DA180917808882369F10CE6FD
:10351000E02E07E0F02E00E010E020E08091780837
:1035200090E0A0E0B0E0002E04C0B695A795979576
:1035300087950A94D2F780FF0EC0DD24D394D20E73
:10354000222319F08CE20E94B12BF701859194910E
:103550000E947DA12D2D0F5F1F4F32E0E30EF11C65
:1035600005301105D9F604C082EB96E00E947DA1DA
:103570008AE00E94B12B0C94CA2210928802109209
:1035800020010C94CA2241E060E070E084EA96E0F9
:103590000E94B4A20E9429290C94CA2283E50E94A9
:1035A000A49B882379F00E942871282F30E02D33C6
:1035B000310524F480931F010C94CA228CE380937C
:1035C0001F01E8C70E94B0A2C0901F01D12CE12CBE
:1035D000F12C8DE996E00E947DA14AE0C701B60179
:1035E0000E94B82B8AE00E94B12BD4C78091780842
:1035F00083FDD0C789E40E94A49B882311F40C9416
:1036000059250E94287190E01816190614F481E0DB
:1036100090E026E0289FF001299FF00D1124EC583E
:10362000FD4F628173810C9463258091780883FD3E
:10363000B1C789E40E94A49B882311F40C947625D9
:103640000E94287190E01816190614F481E090E0A9
:1036500026E0289FF001299FF00D1124EC58FD4F22
:10366000628173811A8E0C94862583E50E94A49B47
:10367000882309F48FC70E942871182F90E0CD97F6
:103680000CF01CE3109364020E94A1B86B017C0152
:10369000212F30E0A8EEB3E00E9474E7C60ED71EDB
:1036A000E81EF91EC0926002D0926102E0926202AE
:1036B000F09263026FC70E9487AD0E9491790E94C9
:1036C00056B20E941C6F68EE73E080E090E00E94AA
:1036D000BEA060E082E796E00E94BD7B5BC7809160
:1036E00014038F7D80618093140354C78091140369
:1036F0008F7E8062809314034DC783E50E94A49B54
:103700008823E9F00E94A1B86093B9027093BA02CD
:103710008093BB029093BC020E94249B20E030E087
:103720004AE754E40E9430E10E9446E960931B019D
:1037300070931C0180931D0190931E012BC78091F3
:10374000840284FF02C00C9408278091860287FFC0
:1037500002C00C94082780918702837011F00C94AA
:1037600008270E9456B216C783E50E945B9B8823F8
:1037700009F410C70E94A1B86093B9027093BA020D
:103780008093BB029093BC020E94249B20E030E017
:103790004AE754E40E9430E10E9446E960935C02EB
:1037A00070935D0280935E0290935F02F3C60E9465
:1037B0003C7187FDEFC69091840294FD04C0909106
:1037C000860297FF0AC0E3E7CE2EE1E0DE2EF9E79E
:1037D000EF2EF8E0FF2E10E009C090918702937061
:1037E00091F7682F81E00E941F6FD4C6D6018D919A
:1037F0006D010E94A49B882309F459C0133009F07D
:103800004FC00E94249B4B015C0120E030E040EA65
:1038100051E40E94CAE087FF3AC0A501940160917B
:10382000990870919A0880919B0890919C080E9439
:10383000CDE82B013C019B01AC016091A90870917E
:10384000AA088091AB089091AC080E9430E1609387
:10385000A9087093AA088093AB089093AC08609174
:10386000A8037091A9038091AA039091AB030E94D1
:10387000CFE0A30192010E9430E10E9446E96093EB
:10388000A8037093A9038093AA039093AB0380923B
:10389000990890929A08A0929B08B0929C0807C041
:1038A0000E94249BF701648B758B868B978B1F5F1F
:1038B000F4E0EF0EF11C143009F098CF0E9422B210
:1038C00069C60E94704184EE9EE00E94719262C6B9
:1038D0008091890290918A02009741F0DC012C913D
:1038E000222321F060E00E942B8154C60E9459D20D
:1038F00051C60091890210918A0294E0F12C40E0B7
:10390000915021F1F8018081282F2B7F213421F45F
:1039100021812133D9F407C08035C1F481818053DE
:103920008A3048F013C0813421F0853421F441E01D
:1039300002C0FF24F39498012E5F3F4F89012F5F4F
:103940003F4FF80180818032C9F3DACF41110E94E4
:10395000B0A2FF2021F082E594E00E947DA1C80181
:103960000E94BC2C17C60E94E3C314C681E080935A
:10397000B8028093A7020E9432C40CC660E070E0D7
:1039800083E50E947B73823038F00E94E0A180E3DF
:1039900094E00E947DA1FEC58C01112788E40E945D
:1039A000A49B8823E1F00E9477738A3A910544F042
:1039B0000E9477738530914034F40E94777305C07C
:1039C0008AEA90E002C084E091E026E0209FF001C6
:1039D000219FF00D1124EC58FD4F9183808382E4E8
:1039E0000E94A49B8823D9F00E947773059744F026
:1039F0000E9477738437910534F40E94777305C071
:103A000085E090E002C083E790E026E0209FF0018F
:103A1000219FF00D1124EC58FD4F9383828386E49F
:103A20000E94A49B882309F4B5C50E94777397FD73
:103A300009C00E9477738F3F910509F034F40E940A
:103A4000777305C080E090E002C08FEF90E026E041
:103A5000209FF001219FF00D1124EC58FD4F95831C
:103A6000848398C50E943C71182F87FD93C50091EF
:103A70005B0284E40E94A49B882311F40C942D27FC
:103A80000E94249B6B017C0120E030E0A9010E9490
:103A9000CAE0882341F124E01202F0011124E95A1E
:103AA000FD4FC082D182E282F38220E030E0A901A2
:103AB00060915702709158028091590290915A0278
:103AC0000E94CAE081110CC080E090E0A0EEBFE34C
:103AD0008093570290935802A0935902B0935A02D0
:103AE00001E00C942D2780E080935B020E94CDAF13
:103AF00051C50E943C7187FD4DC563E7E62E61E02C
:103B0000F62E09E718E079E8C72E78E0D72ED7011E
:103B10008D917D010E945B9B882359F00E94249B1C
:103B20000E9446E9F80160837183828393830E9437
:103B3000DBB10C5F1F4FC016D10649F72BC50E94A1
:103B40003C7187FD27C553E7E52E51E0F52E09E7C7
:103B500018E0D7018D917D010E945B9B882339F08D
:103B60000E94249BF80164A375A386A397A30C5F0E
:103B70001F4FF8E009381F0761F70CC580918502D7
:103B800087FF02C00C943327809186028E7011F05B
:103B90000C9433274091AD085091AE086091AF0866
:103BA0007091B00880E294E00E94AFA14091B1080A
:103BB0005091B2086091B3087091B4088DE194E01F
:103BC0000E94AFA14091B5085091B6086091B70826
:103BD0007091B8088AE194E00E94AFA18AE00E9447
:103BE000B12BD8C48091840281FF02C00C94792744
:103BF0008091850281FF02C00C9479278091860212
:103C00008C7011F00C947927C5C41F5FB4E0EB0EE3
:103C1000F11C133011F40C94831588E5810F0E9478
:103C20005B9B882391F30E94249BD7016D937D9326
:103C30008D939C931397812F0E94ADB6E6CF409051
:103C40008C0350908D0360908E0370908F032091B1
:103C50000301309104014091050150910601C30117
:103C6000B2010E94D3E76A8F7B8F8C8F9D8F8090EB
:103C7000900390909103A0909203B09093032091B1
:103C80000701309108014091090150910A01C501D5
:103C9000B4010E94D3E76E8F7F8F88A399A3C09051
:103CA0009403D0909503E0909603F09097032091B1
:103CB0000B0130910C0140910D0150910E01C70193
:103CC000B6010E94D3E76AA37BA38CA39DA3209196
:103CD0000F01309110014091110150911201C30167
:103CE000B2010E94D3E72B013C01209113013091D6
:103CF00014014091150150911601C501B4010E94B3
:103D0000D3E74B015C0120911701309118014091DC
:103D1000190150911A01C701B6010E94D3E76B0146
:103D20007C010E94B0A28BEE93E00E947DA183E50E
:103D30000E945B9B882321F00E9471718093020195
:103D400080910201882319F082E29FE002C08DE990
:103D500095E00E947DA183EE93E00E947DA14A8DB3
:103D60005B8D6C8D7D8D82E795E20E94AFA14E8DBB
:103D70005F8D68A179A182EE9AE10E94AFA14AA16C
:103D80005BA16CA17DA18BED9AE10E94AFA186ECB5
:103D90009CE00E947DA18BED93E00E947DA1B30188
:103DA000A20182E795E20E94AFA1B501A40182EED3
:103DB0009AE10E94AFA1B701A6018BED9AE10E94A2
:103DC000AFA18AE00E94B12BE5C383E50E94A49BCA
:103DD000882331F00E947773909322018093210110
:103DE0008091840290918502A0918602B091870211
:103DF000892B8A2B8B2B09F0CDC360912101709107
:103E0000220187ED93E00E94C0A185E20E94B12BC0
:103E10008AE00E94B12BBEC30E943C71F82E87FD40
:103E2000B9C383E50E94A49B0F2D0F2C000C110B2E
:103E3000882369F10E947773F801EE0FFF1FE050AD
:103E4000FF4F91838083000F111F000F111FF80196
:103E5000EC5DFE4F7F01BC01990F880B990B0E940E
:103E6000D1E02AE037ED43E25CE30E9430E1F80163
:103E7000E95BFD4F20813181428153810E9430E115
:103E8000D7016D937D938D939C93139783C30E9469
:103E9000B0A285E40E94B12B80E38F0D0E94B12B6C
:103EA000000F111FF801E050FF4F608171818FEC0E
:103EB00093E00E94C0A185E20E94B12B8AE00E949B
:103EC000B12B68C380E50E945B9B882309F462C321
:103ED00060E070E080E50E947B73F82E6FEF7FEF6B
:103EE00083E50E947B738C010196039708F052C30F
:103EF000F7FC50C38F2D0E94F6D4882339F00E941E
:103F0000E0A18DEB96E00E947DA144C30E9446B2E1
:103F100060E08F2D0E9414A60F3FBFEF1B0731F00A
:103F20000130110571F000E010E00DC08F2D0E94EE
:103F3000BCA531E020E0892B09F030E0032F122FDF
:103F400002C001E010E08F2D0E94BCA580179107F0
:103F500009F420C30E94DD2CF6CF80E50E945B9B14
:103F6000882309F417C30E9477738C01892B09F009
:103F70007FC083E50E945B9B882389F00E94777352
:103F80008F3FEFEF9E0729F488EC9EE00E944E29B8
:103F900001C3BC0188EC9EE00E94FD29FBC20E9487
:103FA000B0A260E070E087EC93E00E94C0A1809135
:103FB000CA0E28E532E06901C81AD10887FDD394FA
:103FC000CC0CDD1CCC0CDD1C0D2C000CEE08FF080D
:103FD0008091C90E28E830E04901881A910887FDD0
:103FE0009394880C991C880C991C092C000CAA0825
:103FF000BB088091C80E8F3FC1F090E0FC01EE0F2E
:10400000FF1F8E0F9F1FFC01ED55F14F2181328163
:10401000B3E0220F331FBA95E1F714E036952795E8
:104020001A95E1F72E5F3F4F02C020E030E02F5F8E
:104030003F4FC901330FAA0BBB0B9C01AD012819DF
:1040400039094A095B09A4EBB0E00E9461E7A701C6
:104050009601281939094A095B090E9442E7B9010A
:1040600081E790E10E94C0A18AE00E94B12B92C238
:104070000E94E0A1B80188EC93E00E94C0A185E213
:1040800097E00E947DA186C28AE50E94A49B8111CF
:1040900005C083E50E94A49B8823E9F10E94249B2C
:1040A00020E030E040E050EC0E94CAE087FD7FC78E
:1040B0000E94249B20E030E040E050E40E9433EA7C
:1040C00018160CF46FC70E94249B20913C10269573
:1040D000269520FF20C020919508309196084091A8
:1040E0009708509198080E9430E10E943FE9209182
:1040F000450230914602260F371F30934602209327
:1041000045022091430230914402620F731F709365
:104110004402609343028091860287FD4DC78091DF
:104120008702837009F048C70E94B0A233C260E0E2
:1041300085E40E946571811173C080E50E945B9BDC
:10414000882351F00E94249B6093970E7093980EE1
:104150008093990E90939A0E89E40E945B9B88232A
:1041600081F00E94249B2CEA35EC47E25EE30E943A
:1041700030E160939B0E70939C0E80939D0E909304
:104180009E0E84E40E945B9B882381F00E94249B06
:104190002CEA35EC47E25EE30E94CDE860939F0E87
:1041A0007093A00E8093A10E9093A20E0E94B0A2D5
:1041B0004091970E5091980E6091990E70919A0EC1
:1041C00081EB93E00E94AFA12CEA35EC47E25EE37D
:1041D00060919B0E70919C0E80919D0E90919E0E11
:1041E0000E94CDE8AB01BC018DEA93E00E94AFA133
:1041F0002CEA35EC47E25EE360919F0E7091A00ED1
:104200008091A10E9091A20E0E9430E1AB01BC0101
:1042100089EA93E00E94AFA18AE00E94B12BBAC163
:104220000E94E0A185EB93E00E947DA1B3C183E5EC
:104230000E945B9B182F882371F00E94249B0E9490
:104240003FE9709329016093280121E0672B09F071
:1042500020E02093C50380E50E945B9B882359F0F2
:104260002091280130912901232B11F00E947171B6
:104270008093C5038FC111118DC10E94B0A286E940
:1042800093E00E947DA18091C503882319F08FE1FE
:1042900090E102C08DE793E00E947DA1609128012A
:1042A0007091290185E893E00E94C0A181E893E024
:1042B0000E947DA16FC10E94F5486CC180913D10A4
:1042C00081110C94831581E00E94A5B00C94831594
:1042D0000E9481715FC16FEF7FEF89E40E947B7361
:1042E000082F6FEF7FEF8AE40E947B73182F8AE517
:1042F0000E94A49B811108C081E50E94A49BD82E36
:10430000882309F45FC601C0D12CC02E81E0800F44
:10431000853008F04FC0912E81E0810F853008F084
:1043200049C00E94249B2B013C01F02E07FDF12C7B
:1043300007FF02C0F3E0CF2E812E17FD812C17FF5F
:1043400002C0E3E09E2ECF1490F1E82CF4E0FF9E33
:10435000500111249E1448F10E2D10E0DD2071F063
:10436000F501E00FF11FEE0FFF1FEE0FFF1FED5FD6
:10437000FD4F208131814281538103C020E030E034
:10438000A9010A0D1B1D000F111F000F111F0D5F4A
:104390001D4FC301B2010E94D3E7D8016D937D93F5
:1043A0008D939C931397E394D5CFF394CCCF0E9435
:1043B000149EF0C00E94E0A18BE197E00E947DA1D5
:1043C000E9C087E00E94F3BD8111E4C000E617E078
:1043D000E2E7FEE0FB8FEA8F9E012F5F3F4F19015E
:1043E0009EE8C92E97E0D92E7901C8010E946A6F14
:1043F000AA8DBB8D8D909D90AD90BD90BB8FAA8FE7
:10440000A50194010E94D2E72B013C01F7016083D2
:1044100071838283938320E030E040EA51EC0E9474
:1044200033EA87FD0AC020E030E040EA51E4C301EE
:10443000B2010E94CAE018162CF4F60184911816F5
:104440000CF4C7C5D7018D909D90AD90BD907D01B6
:1044500020E030E040EA51ECC501B4010E9433EAAB
:1044600087FDC2C520E030E040EA51E4C501B40157
:104470000E94CAE018160CF0C5C5B6C50E94F67BAE
:1044800089C00E9434CE86C00E9407CD83C061E0FF
:1044900083E50E94627391E089270E9442CE7AC030
:1044A00081E0809302020E9441C41092020288239C
:1044B00009F470C00E94B0A286E193E00E947DA141
:1044C00069C08091860287FDC7C58091870283708D
:1044D00009F0C2C540913E1050913F1060914010CC
:1044E0007091411087E093E00E94AFA1409142108B
:1044F00050914310609144107091451082EE9AE102
:104500000E94AFA140914610509147106091481011
:10451000709149108BED9AE10E94AFA18AE00E9450
:10452000B12B38C081E0809313031092010260E048
:1045300083E50E94627381112DC00E94EC4E2AC057
:104540000E946AD227C000911503109116030E94A1
:10455000A1B86093B9027093BA028093BB029093A2
:10456000BC020023B9F00E94B0A284E50E94B12BE6
:10457000B8017727072E000C880B990B0E94252C79
:1045800080E20E94B12B85EB93E00E947DA102C0E6
:104590000E946AD2E0910002F0E0EC5CF04F808172
:1045A000882339F087EC92E00E947DA18AE00E9486
:1045B000B12BFAA5F09318031FC60E9446B22091B2
:1045C00056102FA380E00E94A09D0E94A1B8609386
:1045D000B9027093BA028093BB029093BC020E940E
:1045E000BFC181E08093B8020E9432C48AE50E9474
:1045F0005B9B382E8823A1F081E00E94E0BD082F4C
:1046000082E00E94E0BD11E0811101C010E00111C3
:1046100009C088E50E945B9B082F811103C0CCC1B3
:1046200010E0F7CF112309F4BFC13112C9C131E045
:104630003A8F01E03324339482E50E94A49B8823BF
:1046400019F00E94249B04C060E070E080EA90E4CE
:104650006E8B7F8B888F998F20E030E0A9010E94BC
:10466000CAE0882389F0011106C04A8D411103C0B8
:10467000332009F488C160913C1062FB662760F921
:10468000CE0146960E9478D2002309F4D9C05A8DF3
:10469000552309F4D2C01092720E1092730E10922C
:1046A000740E1092750E1092760E1092770E109274
:1046B000780E1092790E0E944EC3EEE8F7E0249037
:1046C00082E897E00E946A6F6B017C0186E897E0C0
:1046D0000E946A6F2B013C019B01AC01C701B6012E
:1046E0000E9433EA18162CF4A7019601C301B20107
:1046F00004C0A3019201C701B6010E94CDE84B019D
:104700005C01EAE7F7E085919591A591B4918E8FD0
:104710009F8FA8A3B9A3E6E7F7E0259135914591CE
:1047200054912AA33BA34CA35DA3BC01CD010E94DD
:1047300033EA18163CF43AA13EA30BA11CA14DA1EB
:104740004E8F06C05E8D5EA30F8D18A189A18E8F3E
:10475000A5019401C501B4010E9430E120E030E0E0
:1047600040E85FE30E94D3E70E9481EA2EA1302F48
:10477000412F5E8D0E9430E169837A838B839C8315
:10478000EFE8F7E0149120917A0E30917B0E409182
:104790007C0E50917D0E2E8F3F8F48A359A320E0B1
:1047A00030E040EC5FE3C301B2010E9430E12B0135
:1047B0003C01612F110F770B880B990B0E94D1E000
:1047C0009B01AC01C301B2010E9430E12B013C010D
:1047D00020E030E040EC5FE3C701B6010E9430E129
:1047E0006B017C01622D220C770B880B990B0E94C8
:1047F000D1E09B01AC01C701B6010E9430E1AE01DE
:104800004F5F5F4F6A01EE8CFF8C08A119A1A301D5
:1048100092010E94DEC10E94F9CC1092720E109299
:10482000730E1092740E1092750E1092760E1092F6
:10483000770E1092780E1092790E80E00E94CDB61D
:104840005A8D552319F081E00E94CDB6332009F42A
:104850009AC080E00E9401A183E00E94F3BD811113
:1048600092C00E944EC380917A0E90917B0EA091CF
:104870007C0EB0917D0E8A8F9B8FAC8FBD8F209167
:104880003E1030913F10409140105091411060E037
:1048900070E08AEE92E40E94D2E72B013C01609323
:1048A000A8027093A9028093AA029093AB02209170
:1048B000421030914310409144105091451060E0F7
:1048C00070E08AEE92E40E94D2E74B015C016093B3
:1048D000AC027093AD028093AE029093AF02209130
:1048E00046103091471040914810509149106A8D00
:1048F0007B8D8C8D9D8D0E94D2E76093B00270936A
:10490000B1028093B2029093B30227E137EB41EDFD
:1049100058EBC501B4010E9433EA87FD54C027E07B
:1049200030E04BE653E4C501B4010E94CAE018161A
:104930000CF449C027E137EB41ED58EBC301B2015C
:104940000E9433EA87FD3FC027E030E04BE653E4A6
:10495000C301B2010E94CAE01816ACF119821A8292
:104960001B821C82AE014F5F5F4F6A01EA8CFB8C99
:104970000C8D1D8DA5019401C301B2010E94DEC101
:1049800082E00E94CDB60E944EC38091A702809320
:10499000B8028FA10E94A09D0E94A6C183E08093CF
:1049A00023010E9450C3F6CD11E089E50E945B9B74
:1049B0008A8F811306C039CE1123B9F31A8F3CCEEA
:1049C0001A8F012F39CE60E086E497E00E94BD7B0C
:1049D0000E94B0A284E397E00E947DA1D4CF0E9400
:1049E0008A73D8CD10928802109318030E9459D26E
:1049F000D1CD0E94DD2C0C94C61888E50E945B9BEB
:104A000081115E9889E50E945B9B81115E988AE521
:104A10000E945B9B882309F4BDCD1598BBCD8DE426
:104A20000E94A49B8823A9F00E942871813039F04C
:104A300020F0823049F462E003C060E001C061E030
:104A4000802F0E9414A605C08CEC96E00E947DA1E8
:104A5000A1CD83E50E94A49B882309F49BCD0E94ED
:104A60002871F82EF4E0EF1203C08093B40392CDC6
:104A700061E0802F0E9414A66F2D802F0E94E5A573
:104A80006F2D70E0802F0E9450A684CD83E50E9498
:104A9000A49B882359F00E94249B0E943FE9CB01EC
:104AA0000E9443AB61E080E00E946EAD0E949CB129
:104AB00071CD83E50E94A49B882309F46BCD0E94ED
:104AC000249B0E943FE9633771056CF4962F872F72
:104AD00090936D0280936E020E94A4A961E080E031
:104AE0000E946EAD57CD93E780E0F2CF83E50E9440
:104AF000A49B8A8F811106C082E50E94A49B882313
:104B000009F448CD0E94249B0E943FE96337710558
:104B10000CF07BC1962F872F90936D0280936E02CD
:104B20000E94A4A960E081E00E946EAD60916D02D8
:104B300070916E02072E000C880B990B0E94D1E039
:104B40002091690230916A0240916B0250916C028F
:104B50000E9433EA18161CF48EE896E002C08FE734
:104B600096E060E00E94BD7B81E0809320011AA264
:104B70001BA21CA21DA21BA61CA61DA61EA61E8E45
:104B800018AA4CE349AB5CE15AAB86E48BABC12C71
:104B9000D12CB0E8EB2E1FEBF12E91E09FA7812CDA
:104BA000912C540160916D0270916E02072E000CE1
:104BB000880B990B0E94D1E0162F072F782E692EB3
:104BC0009601A7010E94CAE0882311F12091690291
:104BD00030916A0240916B0250916C02AA8D612F54
:104BE000702F872D962DA11107C00E94CAE0881F43
:104BF0008827881F8E8F12C00E94CAE087FF0DC0D1
:104C000080912001882309F4C5CC0E9459D2C2CCDE
:104C10001C2D0D2D7E2C6F2C01C01E8E0E94A1B864
:104C20006B017C01DC01CB012BA53CA54DA55EA54C
:104C3000821B930BA40BB50BB7FD33C0D701C60184
:104C400088519C4FAF4FBF4F8BA79CA7ADA7BEA766
:104C500080E00E9453AB8DE992E00E947DA1811417
:104C60009104A104B104B9F0D501C401805F984D4D
:104C7000AF4FBF4FBC01CD016C197D098E099F0953
:104C800028EE33E040E050E00E9420E7CA01B9017D
:104C90000E94252C03C08FE30E94B12B8AE00E9462
:104CA000B12B0E94DD2C0E94A1B86093B9027093D1
:104CB000BA028093BB029093BC02909169029EA3BA
:104CC000A0916A02AFA3B0916B02B8A7E0916C0209
:104CD000E9A7292F3A2F4B2F5E2F612F702F872D99
:104CE000962D0E94D2E71B012C0120E030E0A901A3
:104CF0000E9433EA87FF04C057FA509457F8509443
:104D000081149104A104B104E1F420E030E040E812
:104D10005FE3C201B1010E94CAE087FF1EC0FFA588
:104D2000FF2339F0A5E08A2EADE09A2EA12CB12CFC
:104D300003C0812C912C54018C0C9D1CAE1CBF1CFB
:104D40000CC020E030E040E450E4C201B1010E9418
:104D500033EA181614F4460157012E8D2223C1F1AF
:104D60008AA19BA1ACA1BDA1892B8A2B8B2B61F0C1
:104D7000D701C6012AA13BA14CA15DA1821B930BC7
:104D8000A40BB50BB7FD24C02EA13FA148A559A582
:104D900068A979A98AA99BA90E94D2E720E030E0FE
:104DA00040E85FE30E94CAE087FD2ACFD701C60131
:104DB000805A9541AF4FBF4F8AA39BA3ACA3BDA31D
:104DC0009EA198ABAFA1A9ABB8A5BAABE9A5EBABD7
:104DD00080912001882309F413CF81149104A10448
:104DE000B10431F41FA6C12ED02EE72CF62CDACE5A
:104DF000F0E1CF1AF7E2DF0AE108F108C818D90894
:104E0000EA08FB08F7FCEECFFBCE93E780E084CE08
:104E10000E9446B288E50E945B9B882331F05E9A2F
:104E200080913C108E7F80933C1089E50E945B9BB3
:104E3000882331F05E9A80913C108D7F80933C10E6
:104E40008AE50E945B9B882309F4A4CB159A809184
:104E50003C108B7F80933C109DCB602F83E50E949C
:104E600062730C94741D83E50E94A49B882391F0C7
:104E70000E94249B6093AD087093AE088093AF08A6
:104E80009093B0086093B5087093B6088093B70804
:104E90009093B80880E50E94A49B882351F00E945B
:104EA000249B6093AD087093AE088093AF089093F5
:104EB000B00882E50E94A49B882351F00E94249BA5
:104EC0006093B1087093B2088093B3089093B408CC
:104ED00084E50E94A49B882309F45CCB0E94249B58
:104EE0006093B5087093B6088093B7089093B8089C
:104EF00051CB82E40E945B9B882351F00E945A6F41
:104F00006093890870938A0880938B0890938C082B
:104F100083E50E945B9B882351F00E94249B609351
:104F2000B9087093BA088093BB089093BC0884E5D5
:104F30000E945B9B882351F00E94249B6093BD08D4
:104F40007093BE088093BF089093C0088AE40E94C3
:104F50005B9B882309F41ECB0E94249B6B017C0180
:104F60002AE037ED43E25CE30E9433EA87FD13C099
:104F70002AE939E949E95EE3C701B6010E94CAE0BE
:104F800018164CF0C0929803D0929903E0929A03BD
:104F9000F0929B03FFCA0E94E0A18BEF93E00E9476
:104FA0007DA1F8CA60E070E080E090E48EC860E027
:104FB00070E080E090EC89C882E50E945B9B8111E3
:104FC000B3C8E8CA0E94E0A18DE593E00E947DA1EC
:104FD000E1CAB7FAB094B7F8B094D7018D929D9218
:104FE000AD92BC9213972ECA0E94E0A18FE393E08A
:104FF0000E947DA161E081E393E00E94BD7B0E945D
:105000005758C8CA0C5F1F4FBFEFCB1ADB0AECE63C
:10501000F7E0E017F10709F0E8C98BE4E82E82E039
:10502000F82E10E0F10181919191A191B1911F01B0
:10503000F70181939193A193B1937F01812F0E94F6
:10504000ADB61F5F133071F70E9450C360E081E27C
:1050500093E00E94BD7B9ECAF0913E10FA8F809033
:105060003F1070904010609041105090421040905E
:1050700043103090441020904510C0904610D090BE
:105080004710E0904810F090491088E50E94A49BDA
:10509000882361F10E94249B5B018C0120E030E0B9
:1050A0004BE653EC0E9433EA87FD0AC020E030E073
:1050B0004BE653E4B501C8010E94CAE0181694F407
:1050C0006BEE70E084EF92E00E94C0A16BEE70E0A6
:1050D0008FEE92E00E94C0A18FE494E00E947DA137
:1050E00010E005C0AA8E8B2C702E612E11E089E590
:1050F0000E94A49B882381F10E94249B962EA72EB8
:10510000B82E092F20E030E04BE653EC0E9433EA42
:1051100087FD0CC020E030E04BE653E4692D7A2D8A
:105120008B2D902F0E94CAE0181694F46BEE70E05D
:105130008CED92E00E94C0A16BEE70E08FEE92E0E9
:105140000E94C0A18FE494E00E947DA110E004C001
:10515000592C4A2C3B2C202E8AE50E94A49B8823A4
:1051600039F10E94249B6B017C0120E030E040EA91
:1051700051EC0E9433EA87FD0AC020E030E040EAAB
:1051800051E4C701B6010E94CAE018168CF46CEE17
:105190007FEF8AEC92E00E94C0A164E170E08FEEA4
:1051A00092E00E94C0A18FE494E00E947DA1F2C928
:1051B000112309F4EFC98A8D982DA72DB62D809360
:1051C0003E1090933F10A0934010B0934110852D56
:1051D000942DA32DB22D8093421090934310A09351
:1051E0004410B0934510C0924610D0924710E09200
:1051F0004810F0924910CEC9E3960FB6F894DEBF7E
:105200000FBECDBFDF91CF911F910F91FF90EF9017
:10521000DF90CF90BF90AF909F908F907F906F90D6
:105220005F904F903F902F9008955E9A80913C1030
:105230008E7F80933C105E9A80913C108D7F80938E
:105240003C10159A80913C108B7F80933C105E9AA5
:105250000895CF930E9473B4C82F8091CF0E80938E
:10526000CE0E8093CD0E8093CC0E84E68093CB0E31
:105270000E9486B480ED93E090937708809376083F
:10528000C1110E9480B481E08093040A0E9446B25A
:105290008EEF0E94BEC2CF910C944EC3DC01EC9104
:1052A000F0E0CF01880F991FE80FF91FED55F14F7E
:1052B00080818F77808308958F929F92AF92BF9263
:1052C000CF92DF92EF92FF920F93CF93DF931F92D3
:1052D000CDB7DEB75C016B017A014901F501808130
:1052E00091810E94FAE68983002311F0F601808300
:1052F000BE016F5F7F4FC4010E9441CAF5018081EA
:105300009181019691838083FFEFCF1ADF0A81E0BC
:10531000E81AF10819F780E00F90DF91CF910F9113
:10532000FF90EF90DF90CF90BF90AF909F908F90C5
:1053300008957F928F929F92AF92BF92CF92DF9209
:10534000EF92FF920F931F93CF93DF931F92CDB7EE
:10535000DEB77C0159018B016B01C40ED51E0C1503
:105360001D0559F1F70180809180F80171908F013E
:105370007982C4010E94FAE6781691F0672DC40183
:105380000E9402E7C4010E94FAE69981891741F060
:105390000E94B0A281E997E00E947DA181E00EC049
:1053A000BE016F5F7F4FC5010E9441CAF701808136
:1053B0009181019691838083D2CF80E00F90DF911D
:1053C000CF911F910F91FF90EF90DF90CF90BF9002
:1053D000AF909F908F907F9008951092900082E000
:1053E000809391001092950010929400C19AE1E789
:1053F000F0E080818260808308957F928F929F92F7
:10540000AF92BF92CF92DF92EF92FF920F931F93D2
:10541000CF93DF93FC0190819C3008F0CFC06B01EB
:105420007F01892F90E0FC01EE0FFF1F8E0F9F1F61
:10543000FC01ED55F14F808161E08F770E9414A649
:10544000F7011182128280816CE00E9483E7FCE008
:105450008F9FB001112440E050E09B01240F351FC5
:10546000F901EE0FFF1F2E0F3F1FF901ED55F14F10
:10547000908197FD09C04F5F5F4F4C30510569F730
:10548000811102C00E94ED29F7017080C72DD0E084
:105490008E01000F111FF801EC0FFD1FED55F14FAC
:1054A00080818068808377FC89C0F0E2CF16F2E0CB
:1054B000DF060CF041C0F701828128E532E0281BAD
:1054C000310987FD3395220F331F220F331F032E1F
:1054D000000C440B550B818168E870E04B01881A81
:1054E000910887FD9394880C991C880C991C092CB1
:1054F000000CAA08BB08D7FC0BC0B601653B7105C0
:1055000014F064EB70E0072E000C880B990B03C0BD
:1055100060E070E0CB01281939094A095B090E9453
:1055200010E724EB30E040E050E00E9442E7820EBA
:10553000931EA41EB51E01C04601FBE0F71558F1ED
:10554000F701218188E890E0821B910927FD93955E
:10555000880F991F880F991F8816990684F0F70104
:10556000228188E592E0821B910927FD9395880F9F
:10557000991F880F991F881699060CF4C401029789
:105580002FB7F894C00FD11FCD55D14F880F991F59
:105590009A8389832FBF62E370E080E090E0DF911F
:1055A000CF911F910F91FF90EF90DF90CF90BF9020
:1055B000AF909F908F907F900C94BEA0DF91CF9181
:1055C0001F910F91FF90EF90DF90CF90BF90AF9021
:1055D0009F908F907F9008951F920F920FB60F9219
:1055E00011240BB60F922F933F934F935F936F93BA
:1055F0007F938F939F93AF93BF93EF93FF9380918C
:105600001C0387FF05C010929500109294001BC0E8
:1056100020911C03022E000C330B8091C70E90E0EA
:105620002817390784F480911C03082E000C990B6D
:10563000FC01EE0FFF1F8E0F9F1FFC01ED55F14F78
:10564000808187FD15C080911C038F5F80931C03B0
:1056500020911C03022E000C330B8091C70E90E0AA
:1056600028173907C4F480911C038C3064F113C0EF
:1056700080911C03082E000C990BFC01EE0FFF1FFC
:105680008E0F9F1FFC01ED55F14F808160E08F77F9
:105690000E94E5A5D8CF8091940090919500049642
:1056A00080349C4918F480E49CE905C08091940002
:1056B00090919500049690939900809398008FEFB5
:1056C00080931C033BC02091940030919500809101
:1056D0001C03082E000C990BFC01EE0FFF1F8E0F10
:1056E0009F1FFC01ED55F14F81819281820F931F25
:1056F000909399008093980080911C03082E000CD1
:10570000990BFC01EE0FFF1F8E0F9F1FFC01ED5543
:10571000F14F808187FF12C080911C03082E000C7E
:10572000990BFC01EE0FFF1F8E0F9F1FFC01ED5523
:10573000F14F808161E08F770E94E5A5FF91EF91A5
:10574000BF91AF919F918F917F916F915F914F9199
:105750003F912F910F900BBE0F900FBE0F901F9097
:1057600018959091C00095FFFCCF8093C6000895D6
:105770008F929F92AF92BF92EF92FF920F931F93DF
:10578000CF93DF93CDB7DEB7A0970FB6F894DEBF07
:105790000FBECDBF611571058105910591F100E046
:1057A000842E912CA12CB12C102FEE24E394F12CFB
:1057B000EC0EFD1EE00EF11C07FDFA94A50194010C
:1057C0000E9420E7F7016083B901CA010F5F6115EC
:1057D00071058105910541F71F3F31F1E1E0F0E0EE
:1057E000EC0FFD1FE10FF11D17FDFA9580818A3046
:1057F00010F097E301C090E3890F0E94B12B115084
:10580000EBCF80E3A0960FB6F894DEBF0FBECDBFFE
:10581000DF91CF911F910F91FF90EF90BF90AF90CC
:105820009F908F900C94B12BA0960FB6F894DEBF8A
:105830000FBECDBFDF91CF911F910F91FF90EF90E1
:10584000BF90AF909F908F900895CF92DF92EF928C
:10585000FF926B017C0197FF0BC08DE20E94B12B80
:10586000F094E094D094C094C11CD11CE11CF11CB4
:105870004AE0C701B601FF90EF90DF90CF900C9403
:10588000B82B8F929F92AF92BF92CF92DF92EF92FE
:10589000FF92CF936B017C01B42E20E030E0A90190
:1058A0000E94CAE087FF07C08DE20E94B12BF7FA81
:1058B000F094F7F8F094C0E060E070E080E09FE3DF
:1058C000CB1541F02DEC3CEC4CEC5DE30E9430E15B
:1058D000CF5FF6CF9B01AC01C701B6010E94D3E7B1
:1058E0006B017C010E9446E94B015C014AE00E9489
:1058F000B82BCC2389F1C501B4010E94CFE09B01F4
:10590000AC01C701B6010E94D2E76B017C018EE2B7
:105910000E94B12B20E030E040E251E4C701B60123
:105920000E9430E14B015C010E943FE96B01770F5F
:10593000EE08FF08C701B6010E94252CC701B60179
:105940000E94D1E09B01AC01C501B4010E94D2E7E5
:105950006B017C01C150F1F6CF91FF90EF90DF9089
:10596000CF90BF90AF909F908F9008958DE00E9450
:10597000B12B8AE00C94B12BCF93DF93EC0189918A
:10598000882319F00E94B12BFACFDF91CF910C94AC
:10599000B62C8091EE089091EF08981759F0E92FF6
:1059A000F0E0E251F74F82819F5F9F779093EF087D
:1059B00090E008958FEF9FEF08952F923F924F92BE
:1059C0005F926F927F928F929F92AF92BF92CF928F
:1059D000DF92EF92FF920F931F93CF93DF93CDB798
:1059E000DEB728970FB6F894DEBF0FBECDBF80910B
:1059F0004D0E843008F05FC100E611E080914D0E3D
:105A0000843008F058C18091EE089091EF08891B0E
:105A10008F7709F450C10E94C92CAC0197FDEECFDD
:105A2000282F8A3019F08D3009F008C11092220316
:105A30008091700990917109FC01ED5DFC4F10821D
:105A4000892B49F0109271091092700923E233E01A
:105A50003F832E8303C00E944C8FD0CFEE81FF8105
:105A60008191803219F4FF83EE83F8CF8E3409F0F0
:105A700072C04E815F814115510509F46CC063E726
:105A800078E0CA010E9448E07C01892B49F06EE46D
:105A900070E08E819F8104960E94F1EA009711F4D4
:105AA0008E819F814AE050E060E070E001960E94A4
:105AB000BBDD4B015C018091700290917102A0915D
:105AC0007202B09173020196A11DB11D881699064C
:105AD000AA06BB0631F0EF2821F460E080E498E0EC
