:100000000C9432160C945C160C945C160C945C16D2
:100010000C945C160C945C160C945C160C945C1698
:100020000C945C160C945C160C945C160C945C1688
:100030000C945C160C944B220C945C160C945C167D
:100040000C945C160C9466200C94CEA50C945C1653
:100050000C943D960C945C160C945C160C945C16F7
:100060000C945C160C945C160C945C160C945C1648
:100070000C945C160C945C160C945C160C945C1638
:100080000C94FB290C945C160C945C164E414E4962
:100090004E495459494E46CDCCCC3D0AD7233C1746
:1000A000B7D13877CC2B329595E6241FB14F0A0093
:1000B0000020410000C84200401C4620BCBE4CCA83
:1000C0001B0E5AAEC59D7400407A10F35A00A07200
:1000D0004E18090010A5D4E80000E8764817000083
:1000E000E40B54020000CA9A3B000000E1F5050051
:1000F0000080969800000040420F000000A086019A
:10010000000000102700000000E803000000006469
:1001100000000000000A00000000000100000000D4
:10012000002C76D888DC674F0823DFC1DFAE59E1A9
:10013000B1B796E5E3E453C63AE651997696E8E618
:10014000C28426EB898C9B62ED407C6FFCEFBC9CEB
:100150009F40F2BAA56FA5F490055A2AF75C936BFD
:100160006CF9676DC11BFCE0E40D47FEF520E6B5B8
:1001700000D0ED902E0300943577050080841E0892
:100180000000204E0A000000C80C333333330F98B0
:100190006E12831141EF8D2114893BE65516CFFE77
:1001A000E6DB18D1844B381BF77C1D901DA4BBE403
:1001B00024203284725E228100C9F124ECA1E53D45
:1001C0002770012C0190012701B0012201C0011DFF
:1001D00001F00118011002130130020E0160020942
:1001E0000190020401C002FF000003FA004003F581
:1001F000008003F000D003EB002004E6007004E16F
:1002000000E004DC004005D700C005D2004006CD68
:1002100000D006C8008007C3003008BE00F008B94F
:1002200000C009B400B00AAF00B00BAA00D00CA502
:1002300000000EA000500F9B00C0109600501291BD
:100240000000148C00C0158700B0178200B0197D23
:1002500000D01B7800001E730040206E00902269C1
:1002600000F024640040275F0090295A00E02B55DD
:1002700000102E500020304B0010324600E0334179
:100280000090353C001037370070383200A0392D0F
:1002900000B03A2800A03B2300603C1E00103D192E
:1002A00000903D1400103E0F00703E0A00C03E0555
:1002B00000003F0000403FFBFF803FF6FFC03FF1E2
:1002C000FF656E7175657565696E672022004B4923
:1002D0004C4C45442E200053544F505045442E2042
:1002E000005072696E7465722073746F707065640B
:1002F0002064756520746F206572726F72732E2092
:1003000046697820746865206572726F7220616E2C
:100310006420757365204D39393920746F207265FA
:1003200073746172742E202854656D7065726174E7
:100330007572652069732072657365742E2053652C
:1003400074206974206166746572207265737461CB
:100350007274696E67290A004E6F20436865636B8B
:1003600073756D2077697468206C696E65206E7591
:100370006D6265722C204C617374204C696E653A15
:1003800020004E6F20436865636B73756D2077693D
:100390007468206C696E65206E756D6265722C20C4
:1003A0004C617374204C696E653A20006368656324
:1003B0006B73756D206D69736D617463682C204C6F
:1003C000617374204C696E653A20004C696E65203B
:1003D0004E756D626572206973206E6F74204C617A
:1003E0007374204C696E65204E756D6265722B3199
:1003F0002C204C617374204C696E653A20004D319D
:100400003130004D33310053442072656164206502
:1004100072726F720A00446F6E65207072696E743A
:10042000696E672066696C650A0020496E76616CAA
:10043000696420657874727564657220000000003C
:1004400000000000000000000000006B4300006B93
:100450004300007A434265642068656174696E6791
:100460002E2E2E0042696C696E656172204C657695
:10047000656C696E6720477269643A0A0042656478
:100480002068656174696E672E2E2E00576169744D
:1004900020666F72206265642068656174696E67AA
:1004A0002E2E2E0A00202844525952554E2900471C
:1004B0003239204175746F20426564204C65766541
:1004C0006C696E67003F20284C2C522C462C422928
:1004D000206F7574206F6620626F756E64732E0ACC
:1004E000003F2856296572626F7365206C657665DA
:1004F0006C20697320696D706C61757369626C65DD
:100500002028302D34292E0A00426164205A20769A
:10051000616C75650A004E6F2062696C696E656179
:100520007220677269640A004D3438205265737511
:100530006C743A202573005374616E646172642098
:10054000446576696174696F6E3A200046696E6928
:1005500073686564210A003F2028582C5929206FB0
:100560007574206F6620626F756E64732E0A004D7D
:10057000343820546573742052756E6E696E672E20
:100580002E2E0A00205A3A0020593A0020436F7557
:100590006E7420583A0020453A00205A3A002059FB
:1005A0003A00583A0023646566696E652044454602
:1005B00041554C545F4B64200023646566696E6549
:1005C0002044454641554C545F4B692000236465E7
:1005D00066696E652044454641554C545F4B70201A
:1005E00000504944204175746F74756E65206669CA
:1005F0006E69736865642120507574207468652085
:100600006C617374204B702C204B6920616E6420E8
:100610004B6420636F6E7374616E74732066726FC7
:100620006D2062656C6F7720696E746F20436F6E0A
:1006300066696775726174696F6E2E680A00504949
:1006400044204175746F74756E65206661696C65D0
:1006500064212074696D656F75740A0045312054FA
:100660004845524D414C2052554E41574159005436
:100670006865726D616C2052756E617761790045B5
:10068000312048656174696E67206661696C6564D4
:100690000048656174696E67206661696C65640015
:1006A000504944204175746F74756E6520666169A8
:1006B0006C6564212054656D706572617475726536
:1006C00020746F6F20686967680A00204B643A20C5
:1006D00000204B693A2000204B703A20000A20434A
:1006E0006C617373696320504944200A002054757B
:1006F0003A2000204B753A2000206D61783A2000A6
:10070000206D696E3A200020643A20002062696101
:10071000733A2000504944204175746F74756E65BA
:100720002073746172740A00504944204175746FDB
:1007300074756E65206661696C6564212054656D11
:10074000706572617475726520746F6F2068696777
:10075000680A00504944204175746F74756E6520B5
:100760006661696C656421204261642065787472F9
:1007700075646572206E756D6265720A00496E73EC
:100780006572742066696C616D656E7420616E645B
:1007900020707265737320627574746F6E0A0050F6
:1007A0007265737320627574746F6E20746F206845
:1007B000656174206E6F7A7A6C650A00496E7365A4
:1007C00072742066696C616D656E7420616E642060
:1007D000707265737320627574746F6E20286F7207
:1007E000204D313038290A00536C6565702E2E2E4D
:1007F00000486F6D652058592066697273740A004D
:10080000486F6D6520585920666972737400205ACC
:100810003A200020593A200042656420583A2000CE
:100820004D65736820706F696E742063616E6E6FC2
:1008300074206265207265736F6C7665640A00438C
:100840006C69636B20746F20726573756D652E2EF5
:100850002E004E6F206D6F76652E00456E6420660B
:10086000696C65206C6973740A00426567696E2063
:1008700066696C65206C6973740A004D313235000D
:10088000286E6F2066696C65290043757272656E0B
:10089000742066696C653A20005344207072696E5A
:1008A00074696E67206279746520004E6F742053FE
:1008B00044207072696E74696E670A0044656C65E5
:1008C00074696F6E206661696C65642C2046696C82
:1008D000653A200046696C652064656C65746564E2
:1008E0003A002569730025696D2025697300256923
:1008F000682025696D2025697300256964202569B4
:10090000682025696D20256973002569792025698E
:1009100064202569682025696D202569730050725F
:10092000696E742074696D653A20004B494C4C45E2
:10093000442E20006F6B0020573A004520436F6F14
:100940006C696E672E2E2E00452048656174696EB5
:10095000672E2E2E0020573A0042656420636F6F89
:100960006C696E672E2E2E00426564206865617486
:10097000696E672E2E2E005448334420424C546F2B
:10098000756368204F66662E002C20002C200046E0
:1009900049524D574152455F4E414D453A4D617266
:1009A0006C696E20544833442055312E52322E4209
:1009B0003520534F555243455F434F44455F555291
:1009C0004C3A2050524F544F434F4C5F5645525370
:1009D000494F4E3A312E30204D414348494E455FF4
:1009E000545950453A5448334420424C546F75632F
:1009F000682045585452554445525F434F554E5414
:100A00003A3120555549443A0A002F2F20002054EE
:100A100000205200416363656C65726174696F6E9A
:100A20003A2050005741524E494E4721204C6F7793
:100A3000205A204A65726B206D6179206C65616473
:100A400020746F20756E77616E74656420706175B7
:100A50007365732E0A0020466C6F773A20003A20A7
:100A60000020536572766F2000206F7574206F66CA
:100A70002072616E67650A00536572766F200050C0
:100A8000726F6265205A204F66667365743A200063
:100A9000496E76616C6964206578747275646572FC
:100AA0000A0020643A0020693A0020703A004E6F34
:100AB0002063617365206C696768740A004265642D
:100AC000204C6576656C696E6720004661696C65CF
:100AD0006420746F20656E61626C652042656420DD
:100AE0004C6576656C696E670A00454550524F4DFE
:100AF000204F4B0A003F5A206F7574206F6620729A
:100B0000616E676520282D3520746F2031290A0019
:100B10003A200050726F6265205A204F66667365F6
:100B200074004163746976652045787472756465F4
:100B3000723A2000496E76616C696420657874723F
:100B4000756465720A00526573656E643A20006FC1
:100B50006B0020746F6F206C6F6E67206578747205
:100B60007573696F6E2070726576656E7465640A60
:100B70000020636F6C6420657874727573696F6EA2
:100B80002070726576656E7465640A0062757379AB
:100B90003A2070617573656420666F7220696E70AB
:100BA00075740A00627573793A20706175736564B3
:100BB00020666F7220757365720A00627573793AE8
:100BC0002070726F63657373696E670A00506C659D
:100BD000617365207265736574005052494E5445C7
:100BE000522048414C544544005072696E746572FD
:100BF0002068616C7465642E206B696C6C282920F8
:100C000063616C6C6564210A000000000000000054
:100C10000000000000000020420000204200008090
:100C200040000000005761726E696E673A20486F9D
:100C30006D696E672042756D702044697669736FC7
:100C400072203C20310A000202040000A040000093
:100C5000A0400000004000006B4300006B43000018
:100C60007A43FFFFFF4D3630303A20546F6F2063D8
:100C70006F6C6400486F74656E6420746F6F2063DE
:100C80006F6C640A007C3C3E5E2B3D3F2F5B5D3BFE
:100C90002C2A225C004572726F7220777269746927
:100CA0006E6720746F20454550524F4D210A004514
:100CB0004550524F4D206461746173697A652065B7
:100CC00072726F722E0A00290A00206279746573AD
:100CD0003B20637263200053657474696E677320F0
:100CE00053746F726564202800290A0020627974A9
:100CF00065733B2063726320002073746F726564B8
:100D00002073657474696E677320726574726965A7
:100D1000766564202800202863616C63756C6174BB
:100D2000656429210A0020213D2000454550524F8D
:100D30004D20435243206D69736D61746368202DAB
:100D4000202873746F7265642920002053697A65C6
:100D50003A2000496E6465783A2000204D61726C3B
:100D6000696E3D563536290A0028454550524F4D8B
:100D70003D00454550524F4D2076657273696F6E48
:100D8000206D69736D6174636820004861726463EB
:100D90006F6465642044656661756C742053657486
:100DA00074696E6773204C6F616465640A00F401B6
:100DB000000020030000F401000088130000000080
:100DC00048430000484300007041000048420000D2
:100DD000A0420000A0420000C8430000BE423A0A00
:100DE0000020286D6D290020204D383531205A0013
:100DF0005A2D50726F6265204F66667365740020CD
:100E0000440020490020204D33303120500050490B
:100E1000442073657474696E67733A0A00205A003F
:100E2000204A002020473239205720490020204DF9
:100E30003432302053004175746F20426564204C79
:100E40006576656C696E673A0A00204500205A0095
:100E500020590020580020540020530020204D32FB
:100E6000303520510020453C6D61785F655F6A65D3
:100E7000726B3E0020583C6D61785F785F6A6572E6
:100E80006B3E20593C6D61785F795F6A65726B3E9D
:100E9000205A3C6D61785F7A5F6A65726B3E0041F3
:100EA0006476616E6365643A20513C6D696E5F7370
:100EB00065676D656E745F74696D655F75733E20FF
:100EC000533C6D696E5F66656564726174653E2052
:100ED000543C6D696E5F74726176656C5F666565C2
:100EE00064726174653E0020540020520020204D41
:100EF000323034205000416363656C6572617469FF
:100F00006F6E2028756E6974732F7332293A2050E2
:100F10003C7072696E745F616363656C3E20523C25
:100F2000726574726163745F616363656C3E2054C3
:100F30003C74726176656C5F616363656C3E0A0048
:100F4000204500205A0020590020204D3230312009
:100F500058004D6178696D756D20416363656C65FE
:100F6000726174696F6E2028756E6974732F7332A5
:100F7000293A0A00204500205A0020590020204D1F
:100F80003230332058004D6178696D756D2066658B
:100F9000656472617465732028756E6974732F734C
:100FA000293A0A00204500205A0020590020204DEF
:100FB0003932205800537465707320706572207543
:100FC0006E69743A0A0020204D3134392043203BA9
:100FD00020556E69747320696E2043656C73697562
:100FE000730A002020473231202020203B00486F28
:100FF0006D696E67206661696C656400545249478B
:101000004745524544006F70656E003A20007A5F94
:101010006D696E00795F6D696E00785F6D696E0055
:101020005265706F7274696E6720656E6473746F59
:1010300070207374617475730A0020746F6F206C74
:101040006F6E6720657874727573696F6E20707249
:101050006576656E7465640A0020636F6C64206554
:101060007874727573696F6E2070726576656E74D0
:1010700065640A0024F4D43050C38E20C2A2401705
:10108000828B7011127A910D816CD90AA861E108E6
:10109000C7586607615143061E4B5D05C145A7044D
:1010A0001A411104093D9803713931034036DB02BE
:1010B00065339102D4305402802E1D02632CEE0160
:1010C000752AC501B028A001102781018F25640170
:1010D0002B244B01E0223401AC211F018D200D0196
:1010E000801FFC00841EED00971DDF00B81CD2009D
:1010F000E61BC600201BBC00641AB200B219A8008F
:101100000A19A0006A189900D117910040178B00A6
:10111000B516840031167E00B31579003A157300B8
:10112000C7146F0058146A00EE136600881363003A
:1011300025135E00C7125B006C1257001512540095
:10114000C111510070114F0021114B00D610490000
:101150008D1047004610440002104200C00F4000AE
:10116000800F3E00420F3C00060F3B00CB0E3800C4
:10117000930E37005C0E3500270E3400F30D32005D
:10118000C10D3100900D3000600D2E00320D2D008C
:10119000050D2C00D90C2B00AE0C2900850C290064
:1011A0005C0C2700350C27000E0C2600E80B2400F1
:1011B000C40B2400A00B23007D0B23005A0B21003D
:1011C000390B2100180B2000F80A1F00D90A1E0055
:1011D000BB0A1E009D0A1D00800A1D00630A1C0038
:1011E000470A1B002C0A1B00110A1A00F7091A00F3
:1011F000DD091900C4091900AB091900920917008B
:101200007B091800630917004C09160036091600FF
:10121000200916000A091500F5081500E008140059
:10122000CC081400B8081400A40814009008130097
:101230007D0812006B0813005808120046081200BF
:1012400034081100230811001208110001081100D0
:10125000F0071000E0071000D0071000C0071000D2
:10126000B0070F00A107100091070E0083070F00C1
:1012700074070F0065070E0057070E0049070E00A0
:101280003B070D002E070E0020070D0013070D0071
:1012900006070D00F9060C00ED060D00E0060C0037
:1012A000D4060C00C8060C00BC060C00B0060C00EE
:1012B000A4060B0099060C008D060B0082060B009D
:1012C00077060B006C060B0061060A0057060B0040
:1012D0004C060A0042060A0038060A002E060A00DA
:1012E00024060A001A060A001006090007060A006A
:1012F000FD050900F4050900EB050900E2050900F8
:10130000D9050900D0050900C7050900BE05090077
:10131000B5050800AD050800A50509009C050800F5
:10132000940508008C050800840508007C05080069
:10133000740508006C050700650508005D050700D9
:10134000560508004E050700470507004005080040
:1013500038050700310507002A05070023050700A7
:101360001C050600160507000F0507000805060006
:1013700002050700FB040600F5040700EE04060062
:10138000E8040600E2040700DB040600D5040600BA
:10139000CF040600C9040600C3040600BD0406000D
:1013A000B7040600B1040500AC040600A60406005C
:1013B000A00405009B0406009504050090040600A7
:1013C0008A04050085040500800406007A040500EF
:1013D00075040500700405006B0405006604050033
:1013E000610405005C040500570405005204050073
:1013F0004D04050048040500430405003E040400B4
:101400003A04050035040500300404002C040500EE
:1014100027040400230405001E0404001A04040029
:1014200016040500110404000D040400090405005D
:101430000404040000040400FC030400F803040096
:10144000F4030400F0030400EC030400E8030400C8
:10145000E4030400E0030400DC030400D8030400F8
:10146000D4030400D0030400CC030400C803030029
:10147000C503030024F404D9201BC40C5C0E98049B
:10148000C4095F0265077101F405F900FB04B300AC
:1014900048048700C1036900580355000303450051
:1014A000BE023A008402310053022A0029022500BC
:1014B00004022000E4011C00C8011900AF0117005C
:1014C00098011400840113007101100061011000E3
:1014D00051010E0043010D0036010B002B010B00E2
:1014E00020010B00150109000C010900030108008F
:1014F000FB000800F3000800EB000700E400060012
:10150000DE000600D8000600D2000600CC00050070
:10151000C7000500C2000500BD000400B9000400BA
:10152000B5000400B1000400AD000400A9000400EF
:10153000A5000300A20003009F0004009B0003001D
:101540009800030095000200930003009000030040
:101550008D0002008B00030088000200860002005C
:1015600084000300810002007F0002007D00020071
:101570007B00020079000200770001007600020083
:101580007400020072000100710002006F0002008E
:101590006D0001006C0002006A0001006900020099
:1015A00067000100660001006500010064000200A0
:1015B0006200010061000100600001005F000200A4
:1015C0005D0001005C0001005B0001005A000100A9
:1015D00059000100580001005700010056000100A9
:1015E00055000100540001005300000053000100A9
:1015F0005200010051000100500001004F000100A5
:101600004E0000004E0001004D0001004C000100A2
:101610004B0000004B0001004A000100490001009E
:10162000480000004800010047000100460000009B
:101630004600010045000000450001004400010093
:10164000430000004300010042000000420001008E
:101650004100000041000100400001003F00000087
:101660003F0001003E0000003E0001003D00000080
:101670003D0001003C0000003C0000003C00010077
:101680003B0000003B0001003A0000003A0001006E
:101690003900000039000100380000003800000067
:1016A000380001003700000037000100360000005C
:1016B0003600000036000100350000003500000053
:1016C0003500010034000000340000003400010047
:1016D000330000003300000033000100320000003E
:1016E0003200000032000100310000003100000033
:1016F0003100010030000000300000003000010027
:101700002F0000002F0000002F0000002F0001001C
:101710002E0000002E0000002E0001002D00000011
:101720002D0000002D0000002D0001002C00000005
:101730002C0000002C0000002C0001002B000000F9
:101740002B0000002B0000002B0001002A000000ED
:101750002A0000002A0000002A00010029000000E1
:1017600029000000290000002900000029000100D4
:1017700028000000280000002800000028000000C9
:1017800028000100270000002700000027000000BB
:1017900027000000270001002600000026000000AE
:1017A00026000000260000002600010025000000A1
:1017B0002500000025000000250000002500000095
:1017C0002500010024000000240000002400000087
:1017D000240000002400010023000000230000007A
:1017E000230000002300000023000000230000006D
:1017F000230001002200000022000000220000005F
:101800002200000022000000220001002100000050
:101810002100000021000000210000002100000044
:101820002100000021000100200000002000000035
:101830002000000020000000200000002000000028
:1018400020000000200001001F0000001F00000019
:101850001F0000001F0000001F0000001F0000000C
:101860001F0001001E0000001E0000001E000000FE
:101870001E000000043700001E290000511B00005C
:101880005810000010090000CC040000780200008D
:10189000410100006265640A002C2073797374654D
:1018A0006D2073746F707065642120486561746584
:1018B000725F49443A20004265642068656174693A
:1018C0006E67206661696C65640048656174696E65
:1018D00067206661696C6564004531204865617404
:1018E000696E67206661696C65640048656174694A
:1018F0006E67206661696C6564001000C9021001A2
:101900002C014001220170011801B0010E01F0010B
:1019100004015002FA00B002F0003003E600D003E8
:10192000DC009004D2007005C800A006BE000008CC
:10193000B400B009AA00D00BA000600E96006011A0
:101940008C000015820020197800C01D6E00A022B6
:101950006400B0275A00902C500000314600E0345B
:101960003C0010383200903A2800603C1E00A03D38
:101970001400803E0A00203F0000453120544845B5
:10198000524D414C2052554E415741590042454419
:1019900020544845524D414C2052554E41574159D3
:1019A00000546865726D616C2052756E6177617963
:1019B000004531204572723A204D415854454D50F2
:1019C000004572723A204D415854454D50204245D1
:1019D00044004D415854454D502074726967676505
:1019E000726564004531204572723A204D494E546B
:1019F000454D50004572723A204D494E54454D5068
:101A000020424544004D494E54454D502074726962
:101A100067676572656400202F002042403A00200D
:101A2000403A0025753A2530327500253032753A36
:101A3000253032750025756420253032753A253001
:101A40003275005A005900580009200000000000BB
:101A500000000000000000003FFFF0000000000058
:101A600000000000000000380070000000000000CE
:101A700000000000000030FC30000000000000000A
:101A8000000000000020FC1000000000000000002A
:101A9000000000002078100000000000000000009E
:101AA00000000020301000000000000000000000D6
:101AB00000002C00D03FC000000000000000208289
:101AC000002E31D07FE00000000000000010410037
:101AD0002F7BD07FE0000000000000001041002FAD
:101AE0007BD07FE0000000000000002082002E314B
:101AF000D03FC0000000000000004104002C00D0D6
:101B00003FC0000000000000008208002030107F6D
:101B1000E0000000000000008208002078107FE054
:101B20000000000000000041040020FC107FE000E5
:101B300000000000000020820030FC301F80000008
:101B400000000000000000003800700F00000000DE
:101B500000000000FFFFC03FFFF006000000000093
:101B6000000000FFFFC000000000000000000000B7
:101B700000000000003FFFF0000000000000000037
:101B800000000000380070000000000000000000AD
:101B9000000000318630000000000000000000005E
:101BA000000023871000000000000000000000007B
:101BB00000278790000000000000000000000000E7
:101BC0002F87D00000000000000000000000002F60
:101BD00003D03FC000000000000000208200203041
:101BE000107FE0000000000000001041002078108D
:101BF0007FE0000000000000001041002078107F0E
:101C0000E0000000000000002082002030103FC0F3
:101C1000000000000000004104002F03D03FC0007E
:101C20000000000000008208002F87D07FE0000045
:101C300000000000008208002787907FE00000007D
:101C4000000000004104002387107FE00000000036
:101C50000000002082003186301F8000000000005C
:101C600000000000003800700F00000000000000BD
:101C700000FFFFC03FFFF006000000000000000072
:101C8000FFFFC00000005448334420424C546F759D
:101C900063682052656164792E005072696E7469C0
:101CA0006E672E2E2E005072696E742070617573EF
:101CB000656400436D643A2053572D4D6F64650091
:101CC000436D643A2053746F7700436D643A204447
:101CD00065706C6F7900436D643A2053656C662DB6
:101CE0005465737400436D643A20526573657400E3
:101CF0004D61696E004D313235004D323400507205
:101D0000696E742061626F72746564004D323100D7
:101D10004E6F2053442063617264004368616E67B4
:101D2000652053442063617264004D32310050726B
:101D3000696E742066726F6D2053440053746F7027
:101D4000207072696E7400526573756D65207072D3
:101D5000696E7400496E69742E2053442063617269
:101D600064005061757365207072696E7400436F12
:101D70006E74726F6C00507265706172650054759C
:101D80006E6500496E666F2073637265656E000E46
:101D9000000E000E000E000E000E000E000E007F62
:101DA000C03F801F000E00040004000E001F003F13
:101DB000807FC00E000E000E000E000E000E000E02
:101DC000000E0003F8000FFE001E0F003807003859
:101DD0000380700380700FE07007C0700380700193
:101DE000007000003800003807001E0F000FFE00D2
:101DF00003F80000FE0003FF800783C00E01C00E41
:101E000000E01C00E07F00E03E00E01C00E0080075
:101E1000E00000E00001C00E01C00F078007FF00D6
:101E200001FC00FFFFFF7F80FFC0FFC0FFC07F807D
:101E30007F80FFC0FFC0FFC03F001E000C0050723B
:101E40006F6265205A204F6666736574004368614F
:101E50006E67652066696C616D656E7400436861CC
:101E60006E67652066696C616D656E74004D363015
:101E7000302042300050726F6265205A204F6666F3
:101E800073657400466C6F7700466C6F770046612F
:101E90006E2073706565640046616E2073706565C1
:101EA000640042656400426564004E6F7A7A6C6536
:101EB000004E6F7A7A6C65005370656564005370EC
:101EC000656564004D61696E005072656865617496
:101ED00020504C4120456E64005072656865617405
:101EE00020504C4120426564005072656865617401
:101EF00020504C41005072657061726500507265EF
:101F0000686561742041425320456E6400507265DB
:101F100068656174204142532042656400507265D7
:101F2000686561742041425300507265706172654A
:101F300000507265686561742041425300507265BB
:101F40006865617420504C4100436F6F6C646F771B
:101F50006E004368616E67652066696C616D656ED1
:101F600074004368616E67652066696C616D656EBB
:101F700074004D3630302042300044697361626C29
:101F800065207374657070657273004D383400524B
:101F9000756E204D34382054657374004732380A0A
:101FA0004D34382050313000486F6D65205A00475D
:101FB0003238205A00486F6D65205900473238206A
:101FC0005900486F6D65205800473238205800414D
:101FD00075746F20686F6D6500473238004D6F76FD
:101FE000652061786973004D61696E004D6F76659B
:101FF0002058004D6F76652059004D6F7665205A48
:10200000004578747275646572004D6F7665203096
:102010002E316D6D004D6F766520316D6D004D6F09
:1020200076652031306D6D004D6F76652061786981
:1020300073004578747275646572004D6F76652023
:102040005A004D6F76652059004D6F766520580017
:102050004578747275646572004D6F7665205A001C
:102060004D6F76652059004D6F766520580050728F
:102070006570617265005265736574204545505204
:102080004F4D00436F6E74726F6C005265736574D0
:1020900020454550524F4D0053746F726520736553
:1020A0007474696E677300424C546F756368004DB9
:1020B0006F74696F6E0054656D70657261747572CE
:1020C00065004D61696E004D333033205531204538
:1020D00025692053256900504944204175746F7467
:1020E000756E6500504944204175746F74756E6556
:1020F000005049442D44005049442D440050494467
:102100002D49005049442D49005049442D5000505C
:1021100049442D500046616E207370656564004629
:10212000616E207370656564004265640042656499
:10213000004E6F7A7A6C65004E6F7A7A6C65004358
:102140006F6E74726F6C0050726F6265205A204F10
:10215000666673657400436F6E74726F6C004361E2
:102160006E6E6F7420656E7465722073756264693B
:10217000723A2000022E2E00015265667265736865
:10218000004D61696E004D37303220542564004D9A
:1021900036303020423020542564004D3730322014
:1021A0003B2564004D37303120542564004368617D
:1021B0006E67652066696C616D656E74005072654E
:1021C00068656174204142530050726568656174AE
:1021D00020504C41004368616E67652066696C6100
:1021E0006D656E74005052494E5420504155534510
:1021F0004400554E4C4F41442046494C414D454EBC
:1022000054004C4F41442046494C414D454E5400EA
:102210005075726765206D6F726500436F6E7469EB
:102220006E756500524553554D45204F5054494FEA
:102230004E533A0020204E6F7A7A6C653A20006344
:1022400068616E6765006F66207468652066696CFA
:10225000616D656E74005761697420666F722073DA
:10226000746172740020204E6F7A7A6C653A200097
:10227000200066696C616D656E7420756E6C6F61AF
:1022800064005761697420666F720020204E6F7A77
:102290007A6C653A20002000506C65617365207788
:1022A0006169742E2E2E0048656174696E67206E18
:1022B0006F7A7A6C650020204E6F7A7A6C653A20CE
:1022C00000200068656174206E6F7A7A6C652E005C
:1022D000507265737320627574746F6E20746F0032
:1022E00020204E6F7A7A6C653A2000746F20636FFD
:1022F0006E74696E75652E2E2E00616E642070728C
:1023000065737320627574746F6E00496E736572C5
:10231000742066696C616D656E740020204E6F7A62
:102320007A6C653A2000200066696C616D656E7498
:10233000206C6F6164005761697420666F720020C1
:10234000204E6F7A7A6C653A2000200066696C61D5
:102350006D656E74207075726765005761697420D1
:10236000666F7200746F20726573756D65005761DA
:10237000697420666F72207072696E7400000000CC
:10238000010200090A000000000403080700000021
:1023900000000000000000000000000000202050AD
:1023A0006C616E6E657242756666657242797465BF
:1023B000733A20002046726565204D656D6F727915
:1023C0003A2000436F6D70696C65643A204175670F
:1023D00020203720323032300A00207C20417574B2
:1023E000686F723A202854483344290A0000204C70
:1023F00061737420557064617465643A20005448B8
:1024000033442055312E52322E42350A004D61722E
:102410006C696E0020536F66747761726520526537
:102420007365740A00205761746368646F67205293
:10243000657365740A002042726F776E206F757441
:102440002052657365740A002045787465726E6168
:102450006C2052657365740A00506F776572557011
:102460000A0073746172740A006175746F25692EB5
:1024700067006572726F722077726974696E672087
:10248000746F2066696C650A00456E6473746F70C2
:102490007320256320256320256320256300205AAF
:1024A0003A0020593A0020583A00656E6473746F00
:1024B0007073206869743A2000446F6E6520736100
:1024C00076696E672066696C652E0A004D323900A8
:1024D0004D3234004D323320257300556E6B6E6FD4
:1024E000776E20636F6D6D616E643A202200496ED5
:1024F000736572742066696C616D656E7420616EBF
:102500006420707265737320627574746F6E202816
:102510006F72204D313038290A00486F74656E643F
:1025200020746F6F20636F6C640A0050726F626971
:102530006E67206661696C65640A0050726F62693B
:102540006E67206661696C656400205A3A2000203D
:10255000593A200042656420583A200053442063D1
:10256000617264206F6B0A006F70656E526F6F74DA
:10257000206661696C65640A00766F6C756D652E06
:10258000696E6974206661696C65640A0053442051
:10259000696E6974206661696C0A00486F6D652018
:1025A000257325732573206669727374002066692C
:1025B0007273740A005A0059005800486F6D652004
:1025C0000057726974696E6720746F2066696C6564
:1025D0003A20006F70656E206661696C65642C201E
:1025E00046696C653A20006F70656E206661696CA3
:1025F00065642C2046696C653A200046696C65204C
:1026000073656C65637465640A002053697A653A82
:10261000200046696C65206F70656E65643A200025
:102620002066696C653A2000646F696E67006672A7
:10263000657368004E6F772000454E442053554225
:10264000524F5554494E450A002220706F730022A4
:1026500020706172656E743A2200535542524F5594
:1026600054494E452043414C4C2074617267657457
:102670003A22004B494C4C45442E20007472796933
:102680006E6720746F2063616C6C207375622D67B8
:10269000636F64652066696C657320776974682070
:1026A000746F6F206D616E79206C6576656C732E2A
:1026B000204D4158206C6576656C2069733A004561
:1026C00072726F723A006F70656E206661696C6538
:1026D000642C2046696C653A200043616E6E6F740D
:1026E000206F70656E207375626469722000656387
:1026F000686F3A0000002200250028002B0000002F
:102700002100240027002A00020202020202020223
:102710000404040404040404030303030303030381
:1027200001010101010101010102040810204080A2
:10273000010204081020408001020408102040809B
:10274000804020100804020100060900FE070192E3
:102750000321207FFF07FF07FF00000006000001A4
:102760000707060200808080808000800302020646
:102770000105A0A00507070600005050F850F850CA
:10278000500507070600002078A07028F0200507F4
:1027900007060000C0C8102040981805070706006B
:1027A000006090A040A89068020303060104C040A6
:1027B0008003070706010020408080804020030737
:1027C0000706010080402020204080050505060006
:1027D0000120A870A8200505050600012020F8208A
:1027E000200203030602FFC040800501010600032A
:1027F000F8020202060200C0C00505050600010835
:1028000010204080050707060000708888888888A7
:102810007003070706010040C040404040E0050744
:1028200007060000708808708080F805070706001A
:1028300000F81020100808F0050707060000103007
:102840005090F81010050707060000F880F00808FF
:102850008870050707060000708080F08888700582
:102860000707060000F808102020202005070706AB
:10287000000070888870888870050707060000705F
:10288000888878080870020505060200C0C000C0EC
:10289000C00206060602FFC0C000C0408004070751
:1028A00006000010204080402010050303060002AF
:1028B000F800F8040707060100804020102040803F
:1028C000050707060000708808102000200507078C
:1028D00006000070880868A8A870050707060000B1
:1028E000708888F8888888050707060000F08888BF
:1028F000F08888F0050707060000708880808088CF
:1029000070050707060000F08888888888F00507AA
:1029100007060000F88080F08080F80507070600B1
:1029200000F88080F080808005070706000070882E
:1029300080B8888870050707060000888888F888AE
:1029400088880107070602008080808080808005DB
:1029500007070600003810101010906005070706E2
:1029600000008890A0C0A09088050707060000809E
:102970008080808080F805070706000088D8A88836
:102980008888880507070600008888C8A89888886E
:102990000507070600007088888888887005070783
:1029A000060000F08888F080808005070706000098
:1029B00070888888A89068050707060000F0888856
:1029C000F0A090880507070600007880807008084E
:1029D000F0050707060000F820202020202005072A
:1029E0000706000088888888888870050707060021
:1029F0000088888888885020050707060000888896
:102A0000888888A85005070706000088885020504D
:102A10008888050707060000888888502020200540
:102A20000707060000F80810204080F80307070693
:102A30000100E08080808080E005050506000180BF
:102A400040201008030707060100E0202020202076
:102A5000E00503030600042050880501010600007C
:102A6000F802020206020580400505050600007016
:102A7000087888780507070600008080B0C8888835
:102A8000F0050505060000708080887005070706C0
:102A90000000080868988888780505050600007019
:102AA00088F880700507070600003048E040404085
:102AB000400506060600FF7088887808700507073D
:102AC0000600008080B0C8888888010707060200D9
:102AD000800080808080800308080601FF2000209D
:102AE000202020A040040707060000808090A0C09E
:102AF000A090030707060100C04040404040E005A9
:102B00000505060000D0A8A8A8A805050506000030
:102B1000B0C8888888050505060000708888887018
:102B20000506060600FFF08888F080800506060688
:102B300000FF788888780808050505060000B0C8F9
:102B400080808005050506000070807008F004078D
:102B5000070600004040E040404030050505060003
:102B600000888888986805050506000088888850D0
:102B7000200505050600008888A8A850050505065B
:102B8000000088502050880506060600FF888888C7
:102B9000780870050505060000F8102040F80307C6
:102BA0000706010020404080404020010707060240
:102BB00000808080808080800307070601008040BD
:102BC000402040408005020206000268900000009C
:102BD00006000000060900FE0000000000010900D8
:102BE00008FE000005080806000040F0C888889824
:102BF0007810050808060000C0F88888888888F8DA
:102C00000505050600012030F830200508080600FB
:102C1000002070F820202020E00509090600FF2090
:102C200070A8A8B8888870200509090600FFE08010
:102C3000C0B0A8283028280509090600FFF8A88890
:102C400088888888A8F8050A0A0600FE2050505097
:102C50005088A8A8887003030306000340A0400022
:102C6000B4D9F8D711241FBECFEFD0E4DEBFCDBF5B
:102C700012E0A0E0B1E0ECE4FBED01E00BBF02C02C
:102C800007900D92A835B107D9F726E1A8E5B2E083
:102C900001C01D92A63AB207E1F716E1C1E3D6E101
:102CA00004C02197FE010E940AEDC033D107C9F785
:102CB0000E949BDA0C9499ED0C94000090916F00A7
:102CC000292F227091FF05C090916F009D7F9093F6
:102CD0006F0034E0839FC0011124FC01E256FE4ED8
:102CE00040815181628173818359964FFC014083F9
:102CF00051836283738381E080936C09222329F0DE
:102D000080916F00826080936F000895BC012091D4
:102D10006A0930916B0940916A0950916B09241737
:102D2000350731F481E02617370709F080E0089570
:102D30009A01F1CF4F925F926F927F928F929F9202
:102D4000AF92BF92EF92FF920F931F93CF93DF93B7
:102D5000C2E4D4E08EEAE82E81E1F82E02E314E02A
:102D6000412C512C32014394699179918991999127
:102D7000F70181909190A190B1907F010E9422E48F
:102D8000A50194010E9483E40E94C5EBF8016193C0
:102D90007193819391938F014616570668067906C1
:102DA00010F42B013C01F4E0C235DF07E9F66FEFC8
:102DB0007FEFCB01A30192010E9465EA20932E04CC
:102DC00030932F044093300450933104DF91CF911E
:102DD0001F910F91FF90EF90BF90AF909F908F90B9
:102DE0007F906F905F904F900895CF93DF93909175
:102DF0006F00292F227091FF05C090916F009D7F79
:102E000090936F0094E0899FA0011124FA01E2568B
:102E1000FE4E6081718182819381222329F020916D
:102E20006F00226020936F00EA01CA52D64F0E94C1
:102E300024E4288139814A815B810E9483E4DF9107
:102E4000CF91089580916F00982F927081FF05C0F7
:102E500080916F008D7F80936F0010920A0A10920C
:102E60000B0A10920C0A10920D0A992329F08091F6
:102E70006F00826080936F0008950F931F9380917D
:102E80002A1290912B12891B8F7009F449C09091DE
:102E90002712992361F0833040F48FEF890F29F0D6
:102EA0008093271290E080E038C010922712809122
:102EB0002B122DE4829FC00111248D5A9B4FFC01DF
:102EC000208120FDEFCF40910A0A50910B0A6091BA
:102ED0000C0A70910D0AE75BFF4F0081118122817E
:102EE0003381401B510B620B730B40930A0A5093C2
:102EF0000B0A60930C0A70930D0A20912B122F5F1E
:102F00002F702093281230912B1220912912321306
:102F100004C020912812209329121F910F91089527
:102F20000E942217BFCFCF93DF938091F303329B90
:102F300064C081608093F3038091F30333995FC091
:102F40008D7F8093F3038091F30334995AC08B7F74
:102F50008093F3038091F3039091F203981709F49F
:102F600052C092E09093F1038093F2038091160A8D
:102F7000811105C08091170A882309F451C0C091BE
:102F80005D09C0FF10C08091230980FF0CC08091B3
:102F9000F00380FF08C08091350A81608093350A74
:102FA00080E00E945E16C1FF10C08091230981FF5E
:102FB0000CC08091F00381FF08C08091350A8260C7
:102FC0008093350A81E00E945E16C2FF29C080917D
:102FD000230982FF25C08091170A882309F1809177
:102FE000F00382FF1DC08091350A84608093350A0A
:102FF00082E0DF91CF910C945E168E7F9BCF826032
:10300000A0CF8460A5CF8091F103882309F4AECFCF
:1030100081508093F1038111A9CF9093F003A6CF43
:10302000DF91CF9108955E9A8091710F8E7F80938A
:10303000710F5E9A8091710F8D7F8093710F159A39
:103040008091710F8B7F8093710F5E9A0895CF935B
:10305000DF9380E00E94F516CDE8D3E068837983A2
:103060008A839B8381E00E94F5166C837D838E8327
:103070009F8382E00E94F516688779878A879B87FD
:10308000DF91CF910895CF92DF92EF92FF926091FE
:10309000C8037091C903072E000C880B990B0E947E
:1030A00024E46B017C012DEB37E346E855EB0E94ED
:1030B0004CEC87FD0BC02DEB37E346E855E3C70129
:1030C000B6010E941DE418160CF043C0A70196013A
:1030D00060E070E080E89FE30E944CEB6093850322
:1030E0007093860380938703909388036091CA034B
:1030F0007091CB03072E000C880B990B0E9424E4DF
:103100006B017C012DEB37E346E855EB0E944CEC5C
:1031100087FD0AC02DEB37E346E855E3C701B6014A
:103120000E941DE41816CCF4A701960160E070E03F
:1031300080E89FE30E944CEB6093890370938A03BD
:1031400080938B0390938C03FF90EF90DF90CF9050
:10315000089560E070E0CB01C1CF60E070E0CB018A
:10316000EBCF8091B3029091B402A091B502B091DF
:10317000B60280934E0190934F01A0935001B093FB
:1031800051018091B1029091B20290932A018093F3
:103190002901089580914E0190914F01A091500115
:1031A000B09151018093B3029093B402A093B50201
:1031B000B093B6028091290190912A019093B202B6
:1031C0008093B10284E690E090932A0180932901D4
:1031D00008950F931F93CF93DF9394E0899FE001AD
:1031E00011248E010E58104FFE01E85EF54FDE01EE
:1031F000A355BC4F2D913D914D915C9160817181A2
:10320000828193810E94C9EAF8016083718382837D
:103210009383FE01E35CFB4F85919591A591B49159
:10322000FE01EE50F64F80839183A283B383FE01AB
:10323000E75BFB4F85919591A591B491C55DDE4FFC
:1032400088839983AA83BB83DF91CF911F910F91CC
:1032500008959091340AE92FF0E0EC5DF54F8083FA
:103260009F5F903140F49093340A8091370F8F5FC5
:103270008093370F08951092340AF7CF2FEB280F61
:103280002A3108F042C0E22FF0E08091D6029091FE
:10329000D702A091D802B091D90204C0B695A795E3
:1032A000979587952A95D2F780FD02C08170089581
:1032B000E454FD4FE081EE2329F180913F0F90917E
:1032C000400FE80FF92FF11D808190ED980F9A3093
:1032D00030F08E3251F4818180538A3098F4F0932B
:1032E0005902E093580281E008958D3211F08B323B
:1032F00049F4818190ED980F9A3088F38E3211F461
:103300008281EACFF0E0E0E0EACF80E008950E9419
:103310003E19882341F081E02091580230915902F2
:10332000232B09F480E00895089590E080E008954B
:1033300080E1E2E8FFE0ABE4BFE001900D928A9506
:10334000E1F7089580E1EBE4FFE0A2E8BFE001903F
:103350000D928A95E1F7089580915F039091600343
:103360002FEF3FEF981751F0E92FF0E0E152FD4FBA
:10337000208130E09F5F9F7790936003C90108959B
:103380003F924F925F926F927F928F929F92AF92F5
:10339000BF92CF92DF92EF92FF920F931F93CF9342
:1033A000DF93EC01162FDCAC5BAC5C0124E0A20ED9
:1033B000B11CE98DFA8DC5010995982EE884F98430
:1033C000C7010E94E8A7082F888599850E94EBA76E
:1033D000782E88248A94013011F48FE0882E888515
:1033E00099850E94DEA7082F888599850E94DAA713
:1033F000C82E888599850E94E2A7113670F0009743
:1034000061F0E80EF91E01E6C116B8F41C8A1F8AA5
:10341000188E1D8A1E8A80E05BC0888599850E946F
:10342000E5A7113430F0009721F0E80EF91E01E411
:10343000EBCF81E1E80EF11CE7CFC01638F3872D02
:1034400090E0F70124912F3F39F4FFEFEF1AFF0AC4
:10345000C016E1F20F5FF5CF101368C0888599851B
:103460000E94E8A797012F5F3F4FF701882319F0CB
:10347000823009F044C084918F8BF9012491288F08
:10348000F7013396E491EC8BF7013496E491ED8BE0
:10349000F7013596E491EE8BE114F10409F4BBCF0A
:1034A000888599850E94EBA7782ECF88388C8D89E6
:1034B000580E1D2D13198E89181B190D032D2C2D37
:1034C000412F652DC5010E94F5A7811138C08C8957
:1034D0009BAD890F8BAF81E090E0DF91CF911F9181
:1034E0000F91FF90EF90DF90CF90BF90AF909F90A3
:1034F0008F907F906F905F904F903F900895849150
:10350000982F9F7092509E8B82958F708D8BF901B2
:103510002491822F8F70888F22952F702F8BF70127
:103520003296E491E295EF70EC8BB6CF3296E4914F
:10353000E821E80FF92FF11DEE0EFF1E89CFE70CF1
:10354000F11C07E00C0D069506950695310E4E010F
:10355000F0E28F0E911C602E712C131509F4B7CF79
:10356000452C670112C0F60184916E817F8148A2CB
:1035700019A31BA28AA394014BE3C5010E9418A6BC
:10358000FFEFCF1ADF0A28E0420E8C2D8E1980172C
:1035900050F3E60CF71C1F5FE0CF4F925F926F92E3
:1035A0007F928F929F92AF92BF92CF92DF92EF92D3
:1035B000FF92CF93DF93CDB7DEB76A970FB6F8943B
:1035C000DEBF0FBECDBF9A8F898F5B014A01DC0140
:1035D000D7966D917D918D919C91DA970E9422E40E
:1035E0006B017C01F50120813181428153810E9470
:1035F00083E40E9435EB0E94C5EB3B015C01D401E2
:103600002D913D914D915C91C701B6010E9483E4DB
:103610000E9435EB0E94C5EB6D827E82AF82B88638
:103620002D813E814F81588528373105410551054F
:1036300040F428E730E040E050E02D833E834F83A4
:10364000588769837A838B839C8389819A81AB8134
:10365000BC8188379105A105B10540F428E730E029
:1036600040E050E029833A834B835C83E98DFA8DF7
:10367000ED5BFF4F80819181A281B38189879A8719
:10368000AB87BC87BC01CD010E9424E42B013C0127
:103690006D817E818F8198850E9422E4698B7A8B6F
:1036A0008B8B9C8B20E030E0A901C301B2010E940A
:1036B0001DE4882309F43BC1A7019601C701B601A7
:1036C0000E9483E44B015C0129893A894B895C891A
:1036D000CA01B9010E9483E49B01AC01C501B40198
:1036E0000E94C8EA4B015C01A3019201C301B2012F
:1036F0000E94C9EA9B01AC01C501B4010E944CEBD8
:103700000E9435EB0E94C5EB6D877E878F87988B73
:1037100069857A858B859C85909580957095619556
:103720007F4F8F4F9F4F0E9424E44B015C016981C2
:103730007A818B819C810E9422E469877A878B87BA
:103740009C8720E030E0A901C501B4010E941DE47E
:10375000882309F4F0C029853A854B855C85CA0128
:10376000B9010E9483E46D8B7E8B8F8B988FA701AC
:103770009601C701B6010E9483E49B01AC016D89EB
:103780007E898F89988D0E94C8EA6B017C01A50112
:103790009401C501B4010E94C9EA9B01AC01C701B3
:1037A000B6010E944CEB0E94F4EBA98DBA8D959660
:1037B0008D909D90AD90BC909897750164012D857A
:1037C0003E854F855889C21AD30AE40AF50A0E9439
:1037D000C5EBC61AD70AE80AF90AF7FE6EC020E060
:1037E00030E0A901C301B2010E941DE4882309F45D
:1037F000A6C0C501B4010E9422E46B017C01A301B3
:103800009201C301B2010E94C9EA9B01AC01C70148
:10381000B6010E9483E46B017C0129893A894B89B6
:103820005C89CA01B9010E9483E49B01AC01C70114
:10383000B6010E94C8EA6B017C0129853A854B8557
:103840005C85CA01B9010E9483E49B01AC01C701F8
:10385000B6010E94C9EA6B017C0120E030E040E83B
:1038600050E4C301B2010E9483E49B01AC01C70193
:10387000B6010E944CEB0E9435EB6B017C0120E00D
:1038800030E0A9010E944CEC18161CF0C12CD12C80
:103890007601C701B6010E94C5EB6D877E878F87D1
:1038A000988B86169706A806B90620F48D869E8604
:1038B000AF86B88AC12CD12C76018D859E85AF85C7
:1038C000B889E98DFA8D82A793A7A4A7B5A7C80EDA
:1038D000D91EEA1EFB1EDF01C6A6D7A6E0AAF1AAE2
:1038E0002D813E814F81588523AF34AF45AF56AF10
:1038F000DF9629813A814B815C812D933D934D93D5
:103900005C9313976A960FB6F894DEBF0FBECDBFD7
:10391000DF91CF91FF90EF90DF90CF90BF90AF906D
:103920009F908F907F906F905F904F90089560E090
:1039300070E0CB01E5CE60E070E0CB0134CF60E019
:1039400070E0CB0198CF4F925F926F927F928F92EF
:103950009F92AF92BF92CF92DF92EF92FF920F931E
:103960001F93CF93DF93EC016091BA037091BB0377
:10397000072E000C880B990B0E9424E49B01AC01DC
:10398000688179818A819B810E94C8EA6B017C01F0
:103990006091BC037091BD03072E000C880B990B3E
:1039A0000E9424E49B01AC016C817D818E819F810A
:1039B0000E94C8EA4B015C01A701960160910601D3
:1039C0007091070180910801909109010E941DE406
:1039D000882309F451C0C0920601D0920701E092F9
:1039E0000801F092090120918503309186034091EE
:1039F000870350918803C701B6010E9483E42B011D
:103A00003C010E94F4EB6B017C0120E030E0A90155
:103A10000E941DE487FD71C020E030E040E85FE3D4
:103A2000C701B6010E944CEC181634F4C12CD12CFD
:103A3000C0E8EC2ECFE3FC2EA7019601C301B20132
:103A40000E94C8EA6093810370938203809383038A
:103A500090938403C701B6010E94BEEB609380037C
:103A6000062E000C770B6F5F7F4F6230710514F0EC
:103A700062E070E060937F0310910101D0918003B8
:103A8000A5019401609102017091030180910401EC
:103A9000909105010E941DE4811133C01D1382C065
:103AA000209161033091620340916303509164035C
:103AB00060918103709182038091830390918403CC
:103AC0000E9483E42091650330916603409167036F
:103AD000509168030E94C9EADF91CF911F910F9125
:103AE000FF90EF90DF90CF90BF90AF909F908F901E
:103AF0007F906F905F904F900895C12CD12C7601EC
:103B00009BCF8092020190920301A0920401B09297
:103B100005012091890330918A0340918B035091D4
:103B20008C03C501B4010E9483E44B015C010E9437
:103B3000F4EB6B017C0120E030E0A9010E941DE460
:103B400087FDF9C020E030E040E85FE3C701B6013F
:103B50000E944CEC181634F4C12CD12CB0E8EB2E9A
:103B6000BFE3FB2EA7019601C501B4010E94C8EA7C
:103B700060937B0370937C0380937D0390937E031B
:103B8000C701B6010E94BEEB60937A03062E000CBB
:103B9000770B6F5F7F4F6230710514F062E070E069
:103BA00060937903C0917A031D1305C080910001D1
:103BB0008C1709F475C0D0930101C09300018D2FBB
:103BC000DD0F990B0C2E000CDD0BAC01440F551FC3
:103BD000840F951FFC01EC0FFD1FEE0FFF1FEE0F72
:103BE000FF1FE453FC4F2081318142815381209398
:103BF0007503309376034093770350937803E091F5
:103C000079030E2FEE0F110BDC01A00FB11FAA0FCD
:103C1000BB1FAA0FBB1FA453BC4F6D917D918D910B
:103C20009C910E94C8EA6093710370937203809321
:103C300073039093740380917F03282F880F330BB5
:103C4000C901880F991F820F931FC80FD91FCC0F6E
:103C5000DD1FCC0FDD1FC453DC4F288139814A8121
:103C60005B8120936D0330936E0340936F035093F9
:103C70007003FC01E00FF11FEE0FFF1FEE0FFF1F9F
:103C8000E453FC4F60817181828193810E94C8EA74
:103C90006093690370936A0380936B0390936C0342
:103CA00080907B0390907C03A0907D03B0907E0376
:103CB000209171033091720340917303509174030A
:103CC000C501B4010E9483E420917503309176030D
:103CD00040917703509178030E94C9EA6B017C01FF
:103CE000C0926503D0926603E0926703F092680386
:103CF0002091690330916A0340916B0350916C03EA
:103D0000C501B4010E9483E420916D0330916E03DC
:103D100040916F03509170030E94C9EAA701960178
:103D20000E94C8EA60936103709362038093630307
:103D300090936403B5CEC12CD12C760113CFCF93D1
:103D4000DF932091F403222379F0EC010E94A31C5D
:103D50009B01AC01688579858A859B850E94C8EAAC
:103D6000688779878A879B87DF91CF9108958F92A3
:103D70009F92AF92BF92CF92DF92EF92FF920F93FA
:103D8000CF93DF931F92CDB7DEB76C017B01490162
:103D90008091BE035B01A40EB51E8823A1F0F6013D
:103DA00080819181480F591F518340830F90DF918B
:103DB000CF910F91FF90EF90DF90CF90BF90AF9099
:103DC0009F908F900895F601808191810E943FEA33
:103DD00089839091BF03992311F0002311F0F7011B
:103DE0008083BE016F5F7F4FC4010E944EA2F60127
:103DF00080819181019691838083FFEFEF1AFF0A02
:103E0000EA14FB0401F7D2CF809158029091590235
:103E1000009731F04AE050E070E060E00C9430E14F
:103E200060E070E0CB0108950E94041F97FD0CC074
:103E30000E94041F6F3F71058105910509F034F45C
:103E40000E94041F862F089580E008958FEF089543
:103E50008091580290915902892B41F00E94141FC1
:103E600091E0811101C090E0892F089591E0FCCF8D
:103E70008091580290915902009731F04AE050E049
:103E800070E060E00C945EE260E070E0CB010895C9
:103E90000F931F93CF9380915802909159020097EE
:103EA000E9F0FC018F01C1912C2F2F7D81F0C534E9
:103EB00011F0C536B9F7F801108270E060E00E9499
:103EC000D2DFF801C083CF911F910F91089570E068
:103ED00060E0CF911F910F910C94D2DF60E070E011
:103EE000CB01F1CF11980000000087FD52C041982E
:103EF00000000000119A000000001198000000006E
:103F000086FD53C0419800000000119A0000000097
:103F100011980000000085FD46C041980000000097
:103F2000119A0000000011980000000084FD39C0C3
:103F3000419800000000119A000000001198000054
:103F4000000083FD2CC0419800000000119A000081
:103F5000000011980000000082FD1FC04198000081
:103F60000000119A0000000011980000000081FD7F
:103F700012C0419800000000119A00000000119842
:103F800000000000419800000000119A00000000AD
:103F90000895419AADCF419AEDCF419AE0CF419A31
:103FA000D3CF419AC6CF419AB9CF419AACCF8F9225
:103FB0009F92AF92BF92CF92DF92EF92FF920F93B8
:103FC0001F93CF93DF93B0E4A0E06A2F70E0AB01C2
:103FD0004B0F511D559547954A1711F0B41319C051
:103FE000EFEBF2E065917491072E000C880B990BB2
:103FF0000E9424E4DF91CF911F910F91FF90EF90E9
:10400000DF90CF90BF90AF909F908F900895B42F86
:10401000DECF9A0121503109220F331F220F331FA7
:10402000F901EF53FE4FE590F490F901EB53FE4F89
:10403000C591D4918E159F0554F3A42FC817D907A5
:104040000CF4C3CFF901ED53FE4F05911491F90122
:10405000E953FE4FC590D490BC016E197F09072E1D
:10406000000C880B990B0E9424E44B015C01B60103
:10407000601B710B072E000C880B990B0E9424E427
:104080009B01AC01C501B4010E9483E44B015C01BA
:10409000BE016E197F09072E000C880B990B0E9438
:1040A00024E49B01AC01C501B4010E944CEB6B01FF
:1040B0007C01B801110F880B990B0E9424E49B012D
:1040C000AC01C701B6010E94C9EA94CF0F930FB7A4
:1040D0000F9300916E000B7F00936E0078940F9306
:1040E0000BB70F930CB70F921F922F933F934F93E1
:1040F0005F936F937F938F939F93AF93BF93EF9350
:10410000FF9311240E94FA3FFF91EF91BF91AF916D
:104110009F918F917F916F915F914F913F912F91DF
:104120001F900F900CBF0F910BBF0F910460F8947C
:1041300000936E000F910FBF0F911895CF92DF92F1
:10414000EF92FF92C090C909D090CA09E090CB09C4
:10415000F090CC096091380F7091390F6650710959
:10416000072E000C880B990B0E9424E4A7019601EE
:104170000E944CEC18160CF520E030E040E050E4D2
:10418000C701B6010E94C9EA0E94C5EB7093A60957
:104190006093A5090E940FA3605E70448D4F9F4FEE
:1041A0006093A1097093A2098093A3099093A40935
:1041B000FF90EF90DF90CF9008951092A109109298
:1041C000A2091092A3091092A409F2CF8F929F9294
:1041D000AF92BF92CF92DF92EF92FF920F931F9315
:1041E000CF93DF93B0E2A0E06A2F70E0AB014B0FFA
:1041F000511D55954795A41711F0B41319C0E8E760
:10420000F9E165917491072E000C880B990B0E94BF
:1042100024E4DF91CF911F910F91FF90EF90DF90F9
:10422000CF90BF90AF909F908F900895B42FDECF26
:104230009A0121503109220F331F220F331FF90138
:10424000E650F74EE590F490F901E250F74EC59133
:10425000D4918E159F0554F3A42FC817D9070CF4D9
:10426000C3CFF901E450F74E05911491F901E050E4
:10427000F74EC590D490BC016E197F09072E000C33
:10428000880B990B0E9424E44B015C01B601601B72
:10429000710B072E000C880B990B0E9424E49B01E4
:1042A000AC01C501B4010E9483E44B015C01BE0175
:1042B0006E197F09072E000C880B990B0E9424E4CD
:1042C0009B01AC01C501B4010E944CEB6B017C0168
:1042D000B801110F880B990B0E9424E49B01AC01DB
:1042E000C701B6010E94C9EA94CF8091B1099091AB
:1042F000B2090E94D71F6093E5117093E611809375
:10430000E7119093E8118091AF099091B0090E9454
:10431000E6206093C9097093CA098093CB099093F2
:10432000CC09A8951092B30908950F931F9380911B
:10433000CF09813019F50E940FA300917D091091DA
:104340007E0920917F0930918009601B710B820BDF
:10435000930B28EE33E040E050E00E9465EA609164
:10436000790970917A0980917B0990917C09620F9B
:10437000731F841F951F1F910F91089560918109EC
:10438000709182098091830990918409D6CF10920F
:10439000CF0910927D0910927E0910927F09109228
:1043A000800910928109109282091092830910925B
:1043B00084091092790910927A0910927B0910925F
:1043C0007C0908958091CF098130F1F08230C9F4E1
:1043D0000E9495216093790970937A0980937B09F3
:1043E00090937C0981E08093CF090E940FA3609392
:1043F0007D0970937E0980937F099093800981E005
:1044000008950E94C721EECF80E008958091CF09E2
:10441000813079F482E08093CF090E940FA36093EA
:10442000810970938209809383099093840981E0C4
:10443000089580E008958091CF098150823070F412
:104440001092CF090E940FA3609381097093820993
:10445000809383099093840981E0089580E0089512
:1044600090E080E00E9429A91092390F1092380F35
:104470000E949E200E941B2290E080E00E9429A9B9
:104480001092C6095D981092390F1092380F109251
:10449000C7095C9808950F930FB70F9300916E00B2
:1044A0000F930B7F00936E0000916F000D7F0093C0
:1044B0006F000F930BB70F930CB70F921F922F93B0
:1044C0003F934F935F936F937F938F939F93AF939C
:1044D000BF93EF93FF9311240E94BB22FF91EF91B2
:1044E000BF91AF919F918F917F916F915F914F910C
:1044F0003F912F911F900F900CBF0F910BBF0F9109
:104500000260F89400936F000F9100936E000F917A
:104510000FBF0F9118958091230980FF20C0459A05
:104520008FEF80930E018091230981FF1BC0479A72
:104530008FEF80930F018091230982FF16C02A9884
:104540008FEF809310018091230983FF11C0289A77
:104550008FEF80931101000000000000089545983E
:1045600081E0DFCF479881E0E4CF2A9A81E0E9CF6C
:10457000289881E0EECF2F923F924F925F926F92F8
:104580007F928F929F92BF92CF92DF92EF92FF9293
:104590000F931F93CF93DF93F8948FEF9FEF909338
:1045A0008900809388007AE0B72E312C212CE0E935
:1045B0008E2EE8E19E2E789480916609909167098D
:1045C000A0916809B0916909892B8A2B8B2B09F07E
:1045D000CCC180916C098823D1F080916A099091B7
:1045E0006B0910926C09892B91F010925D09109261
:1045F0006B0910926A0990912A1280912B129817D8
:1046000031F080912B128F5F8F7080932B128091ED
:104610006A0990916B09892B09F4A7C1409162093D
:1046200050916309609164097091650980915E09F8
:1046300090915F09A0916009B0916109C090500903
:10464000D12CF12CE12C841B950BA60BB70BC816B3
:10465000D906EA06FB0610F4D701C601382F840FED
:10466000951FA61FB71F8093620990936309A093BB
:104670006409B093650980918400909185004E96FD
:10468000409138095091390960913A0970913B097C
:10469000C0902809D0902909E0902A09F0902B09B0
:1046A0004C0D5D1D6E1D7F1D4093380950933909D7
:1046B00060933A0970933B0977FD1CC05F9AC090E4
:1046C0009E11D0909F11E090A011F090A111209127
:1046D0000E01422F220F550B660B770B4C0D5D1D03
:1046E0006E1D7F1D40939E1150939F116093A011EA
:1046F0007093A11140913C0950913D0960913E0990
:1047000070913F09C0902C09D0902D09E0902E099E
:10471000F0902F094C0D5D1D6E1D7F1D40933C09CF
:1047200050933D0960933E0970933F0977FD1CC08B
:10473000469AC090A211D090A311E090A411F090DD
:10474000A51120910F01422F220F550B660B770BFD
:104750004C0D5D1D6E1D7F1D4093A2115093A31142
:104760006093A4117093A5114091400950914109A3
:104770006091420970914309C0903009D09031098D
:10478000E0903209F09033094C0D5D1D6E1D7F1DC8
:104790004093400950934109609342097093430943
:1047A00077FD1CC02B9AC090A611D090A711E09065
:1047B000A811F090A91120911001422F220F550B42
:1047C000660B770B4C0D5D1D6E1D7F1D4093A61172
:1047D0005093A7116093A8117093A91140914409B7
:1047E000509145096091460970914709C09034097C
:1047F000D0903509E0903609F09037094C0D5D1DD9
:104800006E1D7F1D409344095093450960934609EE
:104810007093470977FD1CC0299AC090AA11D090C7
:10482000AB11E090AC11F090AD1120911101422F2D
:10483000220F550B660B770B4C0D5D1D6E1D7F1DFA
:104840004093AA115093AB116093AC117093AD11CA
:10485000409184005091850048175907C8F3409152
:1048600038095091390960913A0970913B0977FDF7
:1048700015C0C0902409D0902509E0902609F09039
:1048800027094C195D096E097F0940933809509337
:10489000390960933A0970933B095F9840913C094C
:1048A00050913D0960913E0970913F0977FD15C017
:1048B000C0902409D0902509E0902609F09027099E
:1048C0004C195D096E097F0940933C0950933D09DD
:1048D00060933E0970933F0946984091400950917A
:1048E0004109609142097091430977FD15C0C0905C
:1048F0002409D0902509E0902609F09027094C1949
:104900005D096E097F094093400950934109609306
:104910004209709343092B984091440950914509ED
:10492000609146097091470977FD15C0C090240930
:10493000D0902509E0902609F09027094C195D09CF
:104940006E097F09409344095093450960934609D5
:10495000709347092998315041F04091840050915B
:10496000850048175907C8F38ACE8091660990914F
:104970006709A0916809B0916909892B8A2B8B2B53
:1049800009F025C4E0916A09F0916B09309709F4A8
:1049900086C48091620990916309A0916409B091E5
:1049A000650940915E0950915F09609160097091BD
:1049B000610984179507A607B70708F46EC010921F
:1049C0005D0910926B0910926A0990912A128091E8
:1049D0002B12981709F463C480912B128F5F8F708C
:1049E00080932B1260EDC62E67E0D62EE12CF12CC1
:1049F00080916A0990916B09892B09F0E0C30E94AC
:104A00003D1790936B0980936A09892B09F4D7C3EA
:104A1000C0916A09D0916B09888183FF92C28D8908
:104A20009E89AF89B88D80939E1190939F11A0931A
:104A3000A011B093A111898D9A8DAB8DBC8D8093FF
:104A4000A2119093A311A093A411B093A5118D8DE1
:104A50009E8DAF8DB8A18093A6119093A711A093BE
:104A6000A811B093A91189A19AA1ABA1BCA180936F
:104A7000AA119093AB11A093AC11B093AD1190918A
:104A80002A1280912B12981709F4B9CF80912B121A
:104A90008F5F8F7080932B12B2CF40915909509144
:104AA0005A0960915B0970915C09481759076A07B8
:104AB0007B0708F4D9C08091550990915609A091BF
:104AC0005709B091580942A953A964A975A9CC27DF
:104AD000859FD12D969F9001A69F300DA59F200DFB
:104AE000311D869FD00D211D3C1F959FD00D211D8E
:104AF0003C1FA49FD00D211D3C1F949FD10D2C1F46
:104B00003C1FD6952C1F3C1F789F200D311D799F8F
:104B1000300D112443AD54AD65AD76AD420F531F3A
:104B2000611D711D409351095093520960935309BF
:104B300070935409C7A8D0ACE1ACF2ACC416D5064A
:104B4000E606F70640F4C0925109D0925209E0926D
:104B50005309F092540940905109509052096090C5
:104B600053097090540924E738E141E0F901C590F8
:104B7000D590E590F490C414D504E604F70450F4FD
:104B80007694679457944794440F2C5F3F4F821656
:104B9000930661F74093500920E2421651046104E4
:104BA000710428F420E2422E512C612C712C40E239
:104BB000441A510861087108411478E057066104ED
:104BC000710408F42EC0F4E05F9E900111242C586B
:104BD0003B4EF901329645915491F42DEE27F59F05
:104BE000B001F49F610D7E1F06946E1F7E1F11247D
:104BF000AB0170E060E0F901C590D490F12CE12C9C
:104C0000C41AD50AE60AF70A8C0D9D1DAE1DBF1DFC
:104C10008093550990935609A0935709B09358096A
:104C2000E7CEB301A20176956795579547959A010E
:104C30002C7F2C583F4EF901C590D490F901329643
:104C400045915491242D2770422E449E9001459EFB
:104C5000300D112403E0369527950A95E1F7C21A25
:104C6000D30AF12CE12CD0CF40914C0950914D0941
:104C700060914E0970914F09481759076A077B07E1
:104C800008F0CFC08091480990914909A0914A0944
:104C9000B0914B0942A953A964A975A92227859F00
:104CA000312D969F6001A69FD00CA59FC00CD11CF2
:104CB000869F300DC11CD21E959F300DC11CD21E87
:104CC000A49F300DC11CD21E949F310DC21ED21E56
:104CD0003695C21ED21E789FC00CD11C799FD00C75
:104CE0001124F12CE12C409151095091520960910D
:104CF000530970915409FF964080518062807380FF
:104D0000C416D506E606F70658F44C195D096E0977
:104D10007F09441655066606770610F42A013B0102
:104D200024E738E141E0F901C590D590E590F49091
:104D3000C414D504E604F70450F4769467945794A9
:104D40004794440F2C5F3F4F8216930661F74093C0
:104D5000500940E2441651046104710428F4C0E291
:104D60004C2E512C612C712C70E2471A51086108AD
:104D700071084114F8E05F066104710408F42EC064
:104D800044E0549E900111242C583B4EF901329678
:104D900045915491F42DEE27F59FB001F49F610DDC
:104DA0007E1F06946E1F7E1F1124AB0170E060E031
:104DB000F901C590D490F12CE12CC41AD50AE60A69
:104DC000F70A8C0D9D1DAE1DBF1D80934809909361
:104DD0004909A0934A09B0934B090ACEB301A20135
:104DE00076956795579547959A012C7F2C583F4E9D
:104DF000F901C590D490F901329645915491242D32
:104E00002770422E449E9001459E300D1124F3E000
:104E100036952795FA95E1F7C21AD30AF12CE12CC1
:104E2000D0CF8091130190911401A0911501B09100
:104E30001601B7FF5BC0C7A8D0ACE1ACF2AC84E709
:104E400098E121E0FC0145915591659174914C15D3
:104E50005D056E057F0548F4F694E794D794C794F2
:104E6000220F04968816990669F72093500940E2AC
:104E7000C416D104E104F10428F460E2C62ED12C5A
:104E8000E12CF12C70E2C71AD108E108F108C11435
:104E900088E0D806E104F10408F431C0A4E0DA9E09
:104EA000C00111248C589B4EFC01329625913491FF
:104EB000BC2D6627B39FA001B29F410D561F0694DB
:104EC000461F561F112470E060E0FC01859194910B
:104ED000B0E0A0E0841B950BA60BB70B80931301E9
:104EE00090931401A0931501B0931601C090130183
:104EF000D0901401E0901501F090160179CDD70102
:104F0000C601B695A795979587958C7F8C589F4E2F
:104F1000FC0125913491FC01329645915491FC2D70
:104F2000F770F49FC001F59F900D112453E0969502
:104F300087955A95E1F7281B390BC901B0E0A0E02D
:104F4000CDCF4D885E886F88788C81E04114510404
:104F50006104710409F480E0C98CDA8CEB8CFC8C60
:104F6000C114D104E104F10409F082604D8D5E8D1D
:104F70006F8D78A1411551056105710509F08460B7
:104F800080935D09109248091092490910924A09CC
:104F900010924B0910925509109256091092570918
:104FA000109258098DA19EA1AFA1B8A580935E096A
:104FB00090935F09A0936009B093610900271127BE
:104FC0009801081B190B2A0B3B0B00934409109303
:104FD00045092093460930934709009340091093EF
:104FE0004109209342093093430900933C091093EF
:104FF0003D0920933E0930933F09009338091093EF
:10500000390920933A0930933B09440C551C661C1E
:10501000771C409228095092290960922A097092BF
:105020002B09CC0CDD1CEE1CFF1CC0922C09D0926D
:105030002D09E0922E09F0922F09440F551F661F8B
:10504000771F409330095093310960933209709370
:10505000330949A15AA16BA17CA1440F551F661FBA
:10506000771F409334095093350960933609709344
:105070003709880F991FAA1FBB1F8093240990939B
:105080002509A0932609B09327091092620910926E
:10509000630910926409109265098AA59BA5ACA5C5
:1050A000BDA58093590990935A09A0935B09B093C9
:1050B0005C098EA59FA5A8A9B9A980934C099093D6
:1050C0004D09A0934E09B0934F0929A53EA980919F
:1050D0002309381309C040911201822F022E000CBF
:1050E000990B4817190631F03093230920931201C8
:1050F0000E948B220E9493178FEF9FEFDC01809319
:10510000130190931401A0931501B09316014BADB8
:105110005CAD6DAD7EAD40935109509352096093E3
:1051200053097093540984E798E121E0FC01C5908C
:10513000D590E590F490C416D506E606F70648F437
:105140007695679557954795220F04968816990688
:1051500069F720935009403251056105710520F42B
:1051600040E250E060E070E040525109610971098D
:10517000411598E059076105710508F46EC0A4E077
:105180005A9FC00111248C589B4EFC0132962591E8
:105190003491AA27439FF001429FE10DFA1F069424
:1051A000EA1FFA1F1124AF0170E060E0FC01C59016
:1051B000D490F12CE12CC41AD50AE60AF70AC09261
:1051C0006609D0926709E0926809F09269098091B6
:1051D000660990916709A0916809B0916909AC01CD
:1051E000BD010097F1E0AF07B10520F04FEF5FEF91
:1051F00060E070E0841B950BA60BB70B80936609EB
:1052000090936709A0936809B0936909F894809115
:105210008400909185004096BA94BB2009F43DC06B
:10522000240E351E2816390608F4C5C930928900A7
:10523000209288007894DF91CF911F910F91FF9079
:10524000EF90DF90CF90BF909F908F907F906F9066
:105250005F904F903F902F900895DB01CA01B69563
:10526000A795979587958C7F8C589F4EFC01C5908C
:10527000D490FC013296259134914770429FC00131
:10528000439F900D112433E0969587953A95E1F769
:10529000C81AD90AF12CE12C92CF1C01C7CF80ED9E
:1052A000C82E87E0D82EE12CF12CA9CBCF92DF922B
:1052B000EF92FF920F931F93CF93DF938C01EB013B
:1052C00070E060E00E9448A187FD8CC0C03282E09F
:1052D000D8070CF043C0D80112968C91129728E59C
:1052E00032E0281B310987FD3395220F331F220F2F
:1052F000331F032E000C440B550B11968C9198E82C
:10530000C92ED12CC81AD10887FDD394CC0CDD1C32
:10531000CC0CDD1C0D2C000CEE08FF0860E070E0EA
:10532000CB01D7FD0AC0BE01C53BD10514F064EB2B
:1053300070E0072E000C880B990B2C193D094E09C3
:105340005F090E9455EA24EB30E040E050E00E9403
:1053500087EAC20ED31EE41EF51EE601D801EC91C9
:10536000EC3008F511962C91119788E890E0821B9B
:10537000910927FD9395880F991F880F991FC817CA
:10538000D907FCF402974FB7F8942E2F30E0F901BB
:10539000EE0FFF1FE20FF31FE05BFD4E880F991F1A
:1053A000928381834FBF62E370E080E090E0DF9101
:1053B000CF911F910F91FF90EF90DF90CF900C94C1
:1053C00005A912962C9188E592E0821B910927FD90
:1053D0009395880F991F880F991FC817D90794F6BE
:1053E000CE01D0CFDF91CF911F910F91FF90EF9021
:1053F000DF90CF9008951F920F920FB60F92112455
:105400000BB60F922F933F934F935F936F937F93BE
:105410008F939F93AF93BF93EF93FF938091520429
:1054200087FF27C01092950010929400809152043B
:105430008F5F8093520480915204082E000C990BC8
:10544000209174122817190629F024F08091520433
:105450008C30DCF18091940090919500049680341A
:105460009C4908F47DC08091940090919500049629
:1054700079C080915204082E000C990B209174126F
:105480002817190699F294F2E09152048E2FEE0F2C
:10549000990BFC01EE0FFF1FE80FF91FE05BFD4EBB
:1054A000808186FFC3CFE09152048E2FEE0F990BBF
:1054B000FC01EE0FFF1FE80FF91FE05BFD4E80813E
:1054C00060E08F730E9480A2B1CF20919400309150
:1054D0009500E09152048E2FEE0F990BFC01EE0F18
:1054E000FF1FE80FF91FE05BFD4E81819281820F63
:1054F000931F9093990080939800E09152048E2F0F
:10550000EE0F990BFC01EE0FFF1FE80FF91FE05B98
:10551000FD4E808186FF11C0E09152048E2FEE0F68
:10552000990BFC01EE0FFF1FE80FF91FE05BFD4E2A
:10553000808161E08F730E9480A2FF91EF91BF9103
:10554000AF919F918F917F916F915F914F913F911B
:105550002F910F900BBE0F900FBE0F901F901895BC
:1055600080E49CE990939900809398008FEF80935A
:105570005204E3CFCF93DF9390916F00292F2270D5
:1055800091FF05C090916F009D7F90936F0094E014
:10559000899FA0011124FA01E359F64F60817181BE
:1055A00082819381222329F020916F002260209331
:1055B0006F00EA01CA52D64F0E9424E42881398143
:1055C0004A815B810E9483E4DF91CF9108950F931C
:1055D0001F93CF93DF93CDB7DEB72C970FB6F89418
:1055E000DEBF0FBECDBF2091F403222349F18A0113
:1055F00019861A861B861C86FC0180819181A281F6
:10560000B38189839A83AB83BC83FB0180819181C1
:10561000A281B3818D839E83AF83B887CE0101962B
:105620000E94A31C9B01AC01F80160817181828101
:1056300093810E94C9EAF801608371838283938316
:105640002C960FB6F894DEBF0FBECDBFDF91CF9181
:105650001F910F910895FC0120E03EE2DB014D9186
:10566000BD01403249F0283011F430833196DB011E
:1056700011974C91408331962F5F2B3079F7108230
:10568000089561E0FC0180810C9480A28EBD0DB470
:1056900007FEFDCF08958FEF8EBD0DB407FEFDCF41
:1056A0008EB508958F929F92AF92BF92EF92FF9224
:1056B0000F931F93CF937C01C62F49015A01FC0120
:1056C0009281892F806A86958CBD90FD03C081E010
:1056D000963009F480E08DBD60E0F70180810E9482
:1056E00080A28CE291E00E9467A38C2F80640E94CC
:1056F000462B08E110E0D501C401002E04C0B69588
:10570000A795979587950A94D2F70E94462B085043
:105710001109083FFFEF1F0771F785E9CC2321F03E
:1057200087E8C83009F08FEF0E94462BCC3011F487
:105730000E944B2BC0E00E944B2BF701838387FF15
:1057400004C0CF3F11F0CF5FF6CFCF911F910F91E3
:10575000FF90EF90BF90AF909F908F9008950F9320
:105760001F93CF93DF93EC0189018C81833039F053
:1057700089E0440F551F661F771F8A95D1F79A015C
:10578000AB0168E1CE010E94522B882319F086E01C
:1057900089833AC08EEF8EBDF801C8019E5F0DB4BB
:1057A00007FEFDCF20812EBD0DB407FEFDCF218168
:1057B0002EBD3296E817F90791F70DB407FEFDCF1D
:1057C0008FEF0E94462B8FEF0E94462B0E944B2B9F
:1057D0008B838F71853099F488E592E00E9467A3EE
:1057E000182F87E11123A1F220E030E0A9016DE03C
:1057F000CE010E94522B882361F086E1C9CF83E15C
:105800008983CE010E94412BCE010E94412B10E0E2
:1058100007C00E944B2B8111F0CFCE010E94412B7B
:10582000812FDF91CF911F910F910895CF93809198
:105830009A11C1E08823A1F04091921150919311E7
:10584000609194117091951122E93FE080919B1134
:1058500090919C110E94AF2BC82F811104C0C0E011
:105860008C2FCF910895409196115091971160918E
:10587000981170919911411551056105710591F0CB
:1058800022E93FE080919B1190919C110E94AF2BE7
:10589000882329F310929611109297111092981163
:1058A0001092991110929A11DBCFEF92FF920F9301
:1058B0001F93CF93DF93EC0179018C81833039F012
:1058C00089E0440F551F661F771F8A95D1F79A010B
:1058D000AB0161E1CE010E94522B882339F084E0B4
:1058E0008983CE010E94412B80E03BC00E940FA320
:1058F0008B010E944B2B8B838F3F81F40E940FA35F
:10590000601B710B6D327140A0F381E18983CE0180
:105910000E94412B8FEF0E94462BE6CF8E3F11F065
:105920008FE0F4CF8FEF8EBDF701D701A150BE4FAE
:105930000DB407FEFDCF9EB591938EBDAE17BF0788
:10594000B9F70DB407FEFDCF8EB58C930E944B2B9B
:105950000E944B2BCE010E94412B8FEF0E94462BC1
:1059600081E0DF91CF911F910F91FF90EF9008950B
:10597000CF92DF92EF92FF92CF936B017C01C42F05
:105980008091921190919311A0919411B0919511E1
:105990008C159D05AE05BF0501F10E94162C8111E5
:1059A00008C0C0E08C2FCF91FF90EF90DF90CF9098
:1059B000089522E93FE0B701A60180919B119091E3
:1059C0009C110E94552C882361F3C0929211D092B1
:1059D0009311E0929411F0929511CC2321F081E083
:1059E00080939A11DFCFC1E0DDCF4F925F926F922B
:1059F0007F928F929F92AF92BF92CF92DF92EF925F
:105A0000FF920F931F93CF93DF93EC014230510528
:105A10006105710590F480E0DF91CF911F910F91A6
:105A2000FF90EF90DF90CF90BF90AF909F908F90BE
:105A30007F906F905F904F90089589859A85AB8590
:105A4000BC850196A11DB11D84179507A607B70750
:105A500010F38F898031C9F5852E962EA72EBB2491
:105A60008B899C89AD89BE89880E991EAA1EBB1E92
:105A7000280139016A017B0141E0C501B4010E949E
:105A8000B82C882341F29F89903181F5DD24EE24E2
:105A9000FF24F601EE0FFF1FEE56F04F1183008337
:105AA0009A89923008F4B8CF4D815E816F817885F4
:105AB000840E951EA61EB71E809296119092971185
:105AC000A0929811B0929911A7CF803209F0A3CF7C
:105AD0008B899C89AD89BE894A015B01E7E0B69458
